:020000040800F2
:10000000A80400201D220008E1210008E3210008C7
:10001000E5210008E7210008E921000800000000B0
:10002000000000000000000000000000EB210008BC
:10003000ED21000800000000EF210008F121000878
:10004000492200084D2200085122000855220008CC
:10005000592200085D22000861220008652200087C
:10006000692200086D22000871220008752200082C
:10007000792200087D2200088122000885220008DC
:10008000892200088D22000891220008952200088C
:10009000992200089D220008A1220008A52200083C
:1000A000A9220008AD220008B1220008B5220008EC
:1000B000B9220008BD220008C1220008C52200089C
:1000C000C9220008CD220008D1220008D52200084C
:1000D000D9220008DD220008E1220008E5220008FC
:1000E000E9220008ED220008F1220008F5220008AC
:1000F000F9220008FD22000801230008052300085A
:10010000092300080D230008112300081523000807
:10011000192300081D2300082123000825230008B7
:10012000292300082D230008312300083523000867
:10013000392300083D230008412300084523000817
:10014000492300084D2300085123000855230008C7
:10015000592300085D230008612300086523000877
:10016000692300086D230008712300087523000827
:10017000792300087D230008812300080000000087
:10018000852300088923000810B50400002C01D144
:1001900001205FE0606A002806D16068B0F5827FC8
:1001A00006D00020E06103E00020206100206061B3
:1001B0000020A06294F85100002805D1002084F8A6
:1001C0005000200000F0EBFB022084F85100206872
:1001D000006830F0400021680860606810F48270A8
:1001E000A16811F404410843E16811F40061084377
:1001F000217C11F002010843217D11F00101084327
:10020000A16911F400710843217F11F038010843FE
:1002100094F8201011F080010843A16A11F40051F4
:10022000084321680860A069000C10F0040094F8ED
:10023000241011F010010843216848602068C0694B
:1002400030F400602168C86100206065012084F8F6
:100250005100002010BD2DE9F84306000D00914625
:100260001C00002796F85000012801D10220C5E0AB
:10027000012086F8500000F0D1FB8046494696F8F0
:100280005100012801D00227B0E0002D03D04846DC
:1002900080B2002801D10127A8E0032086F8510090
:1002A000002070653563A6F83490A6F836900020DB
:1002B000B0630020B0870020F08700207064002029
:1002C0003064B068B0F5004F0BD13068006830F092
:1002D0004000326810603068006850F48040326836
:1002E000106030680068400605D43068006850F03F
:1002F000400032681060F068B0F5006F2ED1706871
:10030000002802D089B2012914D1306B00883168ED
:10031000C860306B801C3063F08E401EF08609E0B0
:10032000306B00883168C860306B801C3063F08EA1
:10033000401EF086F08E00283FD03068806880072D
:10034000EED400F06BFBB0EB0800A04202D314F136
:10035000010F01D1002CEDD1032747E07068002880
:1003600002D089B2012914D1306B0078316808734A
:10037000306B401C3063F08E401EF08609E0306B1D
:10038000007831680873306B401C3063F08E401E7B
:10039000F086F08E002810D0306880688007EED498
:1003A00000F03CFBB0EB0800A04202D314F1010FB7
:1003B00001D1002CEDD1032718E042462100300086
:1003C00000F098FA002801D020207065B06800285D
:1003D00008D1002000903068C068009030688068C4
:1003E00000900098706D002800D00127012086F849
:1003F0005100002086F850003800C0B2BDE8F283FA
:100400002DE9F84306000D0091461C000027706896
:10041000B0F5827F0ED1B06800280BD1042086F899
:10042000510000944B469BB22A002900300000F096
:10043000A0F89CE096F85000012801D1022096E037
:10044000012086F8500000F0E9FA804696F8510045
:10045000012801D0022782E0002D03D0484680B257
:10046000002801D101277AE0042086F851000020FD
:100470007065B563A6F83C90A6F83E900020306306
:100480000020B0860020F0860020306400207064D8
:10049000B068B0F5004F0BD13068006830F0400014
:1004A000316808603068006830F480403168086066
:1004B00030680068400605D43068006850F040009D
:1004C00031680860F068002828D109E03068007BB6
:1004D000B16B0870B06B401CB063F08F401EF087AA
:1004E000F08F00282ED030688068C007EED400F06E
:1004F00095FAB0EB0800A04202D314F1010F01D12C
:10050000002CEDD103272AE03068C068B16B088069
:10051000B06B801CB063F08F401EF087F08F002816
:1005200010D030688068C007EED400F077FAB0EBE6
:100530000800A04202D314F1010F01D1002CEDD12B
:1005400003270CE042462100300000F08AF9002821
:1005500001D020207065706D002800D00127012097
:1005600086F85100002086F850003800C0B2BDE87F
:10057000F2832DE9FC4705000C0091469A465FF096
:100580000108002695F85000012801D10220FDE065
:10059000012085F8500000F041FA070095F851203D
:1005A000686851461300DBB2012B0AD0B0F5827F98
:1005B00005D1A868002802D1D2B2042A01D00226AF
:1005C000DCE0002C06D0B9F1000F03D0504680B219
:1005D000002801D10126D1E095F85100042802D06D
:1005E000052085F8510000206865C5F83890A5F809
:1005F0003EA0A5F83CA02C63A5F836A0A5F834A031
:10060000002028640020686428680068400605D43B
:100610002868006850F040002A6810600A9CE8686A
:10062000B0F5006F48D16868002802D089B201296E
:1006300009D1286B00882968C860286B801C286352
:10064000E88E401EE886E88E002802D1E88F002858
:100650007DD028688068800711D5E88E00280ED0EC
:10066000B8F1010F0BD1286B00882968C860286B8E
:10067000801C2863E88E401EE8865FF0000828682A
:100680008068C0070ED5E88F00280BD02868C068A6
:10069000A96B0880A86B801CA863E88F401EE887C0
:1006A0005FF0010800F0BAF9C01BA042CBD314F1EF
:1006B000010FC8D0032661E06868002802D089B223
:1006C000012909D1286B007829680873286B401C20
:1006D0002863E88E401EE886E88E002802D1E88F65
:1006E000002834D028688068800711D5E88E00285B
:1006F0000ED0B8F1010F0BD1286B00782968087370
:10070000286B401C2863E88E401EE8865FF00008D6
:1007100028688068C0070ED5E88F00280BD02868AD
:10072000C068A96B0870A86B401CA863E88F401EC6
:10073000E8875FF0010800F071F9C01BA04202D306
:1007400014F1010F01D1002CC6D1032616E03A00A6
:100750002100280000F0CEF8002803D00126202038
:1007600068650BE0A868002808D100200090286880
:10077000C06800902868806800900098012085F883
:100780005100002085F850003000C0B2BDE8F68767
:100790002DE9F84305000E0017009846089C00F06C
:1007A0003DF9B8EB0000241800F038F98146DFF875
:1007B000A00100684001000D00FB04F0009006E07D
:1007C0000098002800D100240098401E009028685E
:1007D00080683040B04201D1012000E000203900A3
:1007E000C9B288423AD018F1010FF0D000F016F9E2
:1007F000B0EB0900A04201D2002CE1D1286840688A
:1008000030F0E000296848606868B0F5827F0DD15B
:10081000A868B0F5004F03D0A868B0F5806F05D187
:100820002868006830F0400029680860A86AB0F5C0
:10083000005F0BD12868006830F400502968086018
:100840002868006850F4005029680860012085F885
:100850005100002085F85000032000E00020BDE892
:10086000F2831CB504000B006068B0F5827F0DD1E7
:10087000A068B0F5004F03D0A068B0F5806F05D137
:100880002068006830F04000216808606068B0F5BA
:10089000827F1FD1A068B0F5806F0DD0009200223A
:1008A00080212000FFF774FF002821D0606D50F0F8
:1008B0002000606503201CE000920022012120003E
:1008C000FFF766FF002813D0606D50F020006065D0
:1008D00003200EE00092002201212000FFF758FFC4
:1008E000002805D0606D50F020006065032000E016
:1008F000002016BD1CB504000B0015480068182127
:10090000B0FBF1F01349B0FBF1F14FF47A704143C1
:1009100000916068B0F5827F14D10092002280219E
:100920002000FFF735FF00280FD0606D50F0200049
:10093000606503200AE00098401E009020688068EF
:10094000000602D500980028F5D1002016BD000051
:100950000400002040420F0080B52B482B49016065
:100960004FF482714160002181600021C16000214B
:100970000161002141614FF4007181613821C16141
:100980000021016200214162002181620A21C162CD
:10099000FFF7FAFB002801D000F0F0F801BD10B518
:1009A00086B004001422002101A800F0E9F82068B4
:1009B0001649884225D1002000901548016851F45D
:1009C00080510160006810F4805000900098002071
:1009D00000901048016851F002010160006810F0B9
:1009E0000200009000983820019002200290002020
:1009F0000390032004900520059001A9064800F00B
:100A0000C9F806B010BD00000C0000200030014005
:100A10004438024030380240000402400148006877
:100A2000704700BF9C0000207CB500F0B5F900F0D5
:100A300042F800F0CBF9FFF78FFF494C4FF4004329
:100A4000484A4949200000F005FA207E00282FD1AD
:100A5000464D012000905FF4B023142229002000AD
:100A600000F050FB424E14223100280000F0F1FC4F
:100A700000281FD002200190012000905FF4B023D5
:100A800014223100200000F07AFA012000905FF477
:100A9000B02314222900200000F034FB142231007E
:100AA000280000F0D6FC002804D000F067F801E030
:100AB00000F064F8FEE710B592B03021002206ACD9
:100AC000200000F0DBFC1421002201AC200000F02B
:100AD000D5FC002000902748016851F0805101604A
:100AE000006810F08050009000980020009022488C
:100AF000016851F480410160006810F4804000906A
:100B00000098012006905FF48030079002200C903E
:100B10005FF480000D9004200E90A8200F9002201A
:100B200010900420119006A800F0F0FC002801D0DD
:100B300000F024F80F200190022002900020039082
:100B40004FF4A05004904FF480500590052101A867
:100B500000F0BEFE002801D000F010F812B010BD69
:100B600064000020000002400C00002080000020F3
:100B7000F8210008403802400070004072B6FEE7DD
:100B800010B5044610460A460146204600F076FCA1
:100B9000204610BDF8B4002200220022002336E0D7
:100BA000082604E0DFF8B861B042F9D10726F6B2B2
:100BB0009F0017F00C07BE4035431E00B60842F8F0
:100BC0002650DFF8A0512A68A2434E68F60200D5ED
:100BD00022432A60DFF890512A68A2434E68B60289
:100BE00000D522432A60DFF884512A68A2434E6868
:100BF000B60300D522432A60DFF874512A68A24365
:100C00004E68F60301D5144322002A605B1C102BAA
:100C100080F09980012616FA03F20C681440944281
:100C2000F4D10A7912F00302012A04D00A7912F0F1
:100C30000302022A12D1856803275A009740BD4358
:100C4000CF685A0097403D43856042689E40B2435A
:100C50004D68C5F300159D402A4342600A7912F0A1
:100C60000302032A09D0C56803265A009640B543FB
:100C70008E685A0096403543C5600A7912F0030227
:100C8000022A15D11A00D20800EB8202126A0F253F
:100C90009E0016F01C06B540AA430D699E0016F092
:100CA0001C06B5402A431D00ED0800EB85052A62AD
:100CB000056803265A009640B5430E7916F00306E0
:100CC0005A009640354305604A6812F4403F9DD073
:100CD00000220092274A156855F480451560126875
:100CE00012F480420092009A234A1D00AD0852F887
:100CF00025500F269F0017F00C07BE40B5431F4E2E
:100D0000B04201D1002652E71D4EB04201D101266A
:100D10004DE71C4EB04201D1022648E71A4EB042C0
:100D200001D1032643E7194EB04201D104263EE724
:100D3000174EB04201D1052639E7164EB0427FF476
:100D400031AF062633E7F1BC7047D2B2002A02D099
:100D500089B2816102E089B20904816170470000B3
:100D6000001C0240083C01400C3C0140043C014096
:100D7000003C014044380240083801400000024075
:100D80000004024000080240000C02400010024033
:100D9000001402400018024080B50B48016851F46D
:100DA00000710160016851F480610160016851F4D3
:100DB00080710160032000F08EFE0F2000F0B2FE73
:100DC00000F0D6FE002002BD003C024010B586B007
:100DD0001422002101A8FFF7D3FE002000901B4839
:100DE000016851F080010160016811F080010091FB
:100DF000009900210091016851F001010160016832
:100E000011F001010091009900210091016851F059
:100E100002010160006810F00200009000980C4C84
:100E200001224FF400412000FFF78FFF4FF40040F4
:100E3000019001200290002003900320049001A95A
:100E40002000FFF7A7FE06B010BD00BF30380240FB
:100E500000000240F8B504000D0016001F006420D9
:100E600000F0B0FEA560E660278201202076A06831
:100E70000068DFF8501588420DD0A0680068DFF8E0
:100E80004815884207D0A0680068DFF840158842FE
:100E900001D0207E60E0E0688069218A50EA01404C
:100EA000E1688861AB20A07164230122A11DA068C4
:100EB00000F07EFEE0688169208A0143E06881617C
:100EC000012000F07FFEE0688069218A50EA01403D
:100ED000E16888616620A07164230122A11DA068D9
:100EE00000F066FEE0688169208A0143E068816164
:100EF000012000F067FEE0688069218A50EA014025
:100F0000E16888619920A07164230122A11DA06875
:100F100000F04EFEE0688169208A0143E06881614B
:100F2000012000F04FFE200000F0FEF92078EF28AD
:100F300001D0207E10E06078132807D01DD315283B
:100F40000FD00AD3172814D00FD316E04FF48050D7
:100F5000606100202076207EF2BD4FF40050606179
:100F6000F7E74FF480406061F3E74FF400406061C1
:100F7000EFE75FF480306061EBE7207EECE72DE97E
:100F8000F84380460D009146012088F818000020A3
:100F9000484680B2002801D0002D02D198F81800F0
:100FA000A2E0089E3000C0B2002801D019F1020969
:100FB000484680B240F20111884202DB98F81800DE
:100FC00092E01F00380602D098F818008CE0D8F89C
:100FD0001400401E0002B84202D298F8180083E0C4
:100FE0006421404600F0D7F9002802D098F8180094
:100FF0007AE0484680B200F0E9FD0400002C02D1FE
:1010000098F8180070E0F6B2002E1BD04A4692B253
:10101000921E29002600300000F076FEB9F1020190
:1010200089B2280000F0EEF9010089B2090A4A46A7
:1010300092B2224402F8021C494689B2214401F8C6
:10104000010C06E04A4692B226002900300000F06A
:101050005BFE099D404600F0BDF9D8F80C008069A0
:10106000B8F8101050EA0140D8F80C10886102203E
:1010700088F806006423012218F10601D8F8080058
:1010800000F096FD3800000C88F803003800000AD4
:1010900088F8040088F805706423032218F103011E
:1010A000D8F8080000F084FD64234A4692B221007B
:1010B000D8F8080000F07CFD200000F078FED8F899
:1010C0000C008169B8F810000143D8F80C00816168
:1010D0002800C0B2012809D1032000F073FD0020D0
:1010E00088F8180098F81800BDE8F283EDB2022DD8
:1010F000F5D10321404600F04EF90028EFD098F8D2
:101100001800F1E72DE9F84307000D0090469946D5
:10111000012038760020404680B2002801D0002D02
:1011200001D1387E93E0089E3000C0B2002801D083
:1011300018F10208404680B240F20111884201DBFA
:10114000387E84E05FEA096001D0387E7FE078690C
:10115000401E0002484501D2387E78E06421380004
:1011600000F019F9002801D0387E70E0404680B2C6
:1011700000F02CFD0400002C01D1387E67E0F868F7
:101180008069398A50EA0140F96888610320B871A2
:1011900064230122B91DB86800F00AFD4846000C1E
:1011A000F8704846000A387187F8059064230322D6
:1011B000F91CB86800F0FCFC6423424692B221009E
:1011C000B86800F0FAFCF8688169388A0143F86869
:1011D00081613000C0B200281FD0B8F1020189B28D
:1011E000200000F00FF9414689B2214411F8021C99
:1011F000020092B2120A92B2914209D1414689B2DA
:10120000214411F8011C80B200F0FF00814204D09B
:10121000200000F0CCFD387E19E0F6B2002E09D097
:101220001FFA88F8B8F1020821004246280000F0B1
:101230006BFD06E01FFA88F821004246280000F006
:1012400063FD200000F0B3FD00203876387EBDE855
:10125000F28380B56A46012100F007F89DF800008E
:10126000C0B2400810F0010002BD38B504001500FE
:10127000C9B2012904D056D3032939D01CD352E076
:10128000E0688069218A50EA0140E16888610520B0
:10129000A07164230122A11DA06800F089FC6423D1
:1012A00001222900A06800F088FCE0688169208A9A
:1012B0000143E068816136E0E0688069218A50EA94
:1012C0000140E16888613520A07164230122A11DDD
:1012D000A06800F06DFC642301222900A06800F0E2
:1012E0006CFCE0688169208A0143E06881611AE052
:1012F000E0688069218A50EA0140E1688861352010
:10130000A07164230122A11DA06800F051FC642398
:1013100001222900A06800F050FCE0688169208A61
:101320000143E068816131BD10B5040001202076E1
:101330006421200000F02FF8002801D0207E29E051
:10134000E0688069218A50EA0140E1688861902064
:10135000A07164230122A11DA06800F029FC0020D7
:10136000E070002020710020607164230322E11CE2
:10137000A06800F01DFC642302222100A06800F098
:101380001CFCE0688169208A0143E06881610020DB
:101390002076207E10BDF8B504000D0001202076D7
:1013A0000B4F3E683868801BA84208D22000FFF728
:1013B00050FF0028F6D100202076207E00E0207E1D
:1013C000F2BD00000030014000380040003C004009
:1013D0009C00002010B50400E0688069218A50EA72
:1013E0000140E16888610620A07164230122A11DEB
:1013F000A06800F0DDFBE0688169208A0143E068B5
:10140000816110BD30B402004FF6FF70002400E08F
:10141000641C23000D009BB2ADB2AB4216D2230078
:101420009BB2D35C5840002302E080B240080BE03E
:101430001D00ADB2082DEBDAC507F6D580B2050068
:101440004AF2010090EA55005B1CF1E780B230BC23
:1014500070478AB10B7890F800C09C4506D110F80F
:10146000013B4BB1491C521EF4D105E002D24FF0B2
:10147000FF307047012070470020704762F30F2251
:1014800062F31F42401810F0030308D0C91A1FD39B
:10149000DB0748BF00F8012D28BF20F8022D1300FC
:1014A00030B414461546103928BF20E93C00FAD85C
:1014B000490728BF20E90C0048BF40F8042D8900E7
:1014C00028BF20F8022D48BF00F8012D30BC70471E
:1014D000C91818BF00F8012DCB0728BF00F8012D4F
:1014E00070470EE002684368024408305FEAC37C3C
:1014F00044BF4B445B1E52F804CB43F804CB091F96
:10150000F9D150F8041B0029ECD170472DE9FC41BA
:101510000400002C01D10120C4E12078C0075FD570
:10152000DFF88403016811F00C01042909D0006878
:1015300010F00C0008280ED1DFF87003006840029C
:1015400009D5DFF86C030068800349D5606800287E
:1015500046D10120A6E16068B0F5803F06D1DFF8F2
:101560005003016851F48031016018E06068B0F503
:10157000A02F0AD1DFF83803016851F480210160FF
:10158000016851F48031016009E0DFF8240301684B
:1015900031F480310160016831F4802101606068BC
:1015A00000280ED0FFF73AFA0500DFF804030068C0
:1015B000800315D4FFF732FA401B6528F5D30320CA
:1015C00070E1FFF72BFA0500DFF8E4020068800302
:1015D00006D5FFF723FA401B6528F5D3032061E108
:1015E000207880071DD5B048016811F00C0F08D095
:1015F000006810F00C0008282AD1AC4800684002AE
:1016000026D4AB480168890704D5E168012901D0D7
:10161000012047E1016831F0F801226951EAC20175
:1016200001602078000751D5606900283DD0012075
:10163000A0490860FFF7F2F905009F48006880079D
:1016400044D4FFF7EBF9401B0328F6D3032029E12C
:10165000E068002818D0012098490860FFF7DEF9FB
:10166000050093480168890706D4FFF7D7F9401BA6
:101670000328F6D3032015E1016831F0F80122694F
:1016800051EAC2010160CCE700208C490860FFF7F5
:10169000C5F90500864800688007C2D5FFF7BEF986
:1016A000401B0328F6D30320FCE00020814908609A
:1016B000FFF7B4F9050080480068800706D5FFF7FA
:1016C000ADF9401B0328F6D30320EBE02078400758
:1016D0006FD500267A4D2868C0000BD400200090FA
:1016E000286850F080502860286810F080500090E2
:1016F00000980126734F3868C00511D4386850F43B
:1017000080703860FFF78AF980463868C00507D4D2
:10171000FFF784F9B0EB08000328F6D30320C1E0FB
:10172000A068012805D16848016851F001010160F5
:1017300015E0A068052809D16348016851F004014B
:101740000160016851F00101016008E05E48016834
:10175000490849000160016831F004010160A06896
:1017600000280FD0FFF75AF9070057480068800794
:1017700018D4FFF753F9C01B41F289318842F4D3E2
:1017800003208FE0FFF74AF907004F480068800701
:1017900008D5FFF743F9C01B41F289318842F4D3E1
:1017A00003207FE0F6B2012E03D1286830F080508C
:1017B0002860A069002874D03B48006810F00C0035
:1017C000082843D0A06902282FD1404E0020306065
:1017D000FFF724F90700364D2868800106D5FFF78A
:1017E0001DF9C01B0328F6D303205BE0E169206AE2
:1017F0000143606A51EA8011A06A4008401E51EA24
:101800000041E06A51EA006128480160012030602F
:10181000FFF704F904002868800142D4FFF7FEF8BE
:10182000001B0328F7D303203CE000202749086071
:10183000FFF7F4F804001E480068800131D5FFF777
:10184000EDF8001B0328F6D303202BE0A069012844
:1018500001D1012026E015480068A16901291ED0A8
:1018600010F48001E269914219D110F03F01226A1F
:10187000914214D147F6C0710140626AB1EB821FF8
:101880000DD110F44031A26A5208521EB1EB024F42
:1018900005D110F07060E16AB0EB016F01D001205A
:1018A00000E00020BDE8F68108380240043802401C
:1018B00000380240800E4742743802400000474220
:1018C00040380240007000407038024060004742DB
:1018D0002DE9F04104000E00002C01D1012092E01E
:1018E0004A4D286810F00700B04207D22E702868D1
:1018F00010F00700B04201D0012084E0207880077A
:1019000016D52078400704D54148016851F4E051CC
:1019100001602078000704D53D48016851F460411A
:1019200001603B490A6832F0F002A06802430A6095
:101930002078C00735D56068012805D13548006892
:10194000800313D401205EE06068022802D0606842
:10195000032805D12F480068800107D4012052E0F8
:101960002C480068800701D401204CE0284F3968DA
:1019700089088900606801433960FFF74FF88046A5
:10198000386810F00C006168B0EB810F09D0FFF7E8
:1019900045F8B0EB080041F289318842F0D30320CA
:1019A00031E0286810F00700864207D22E702868C0
:1019B00010F00700B04201D0012024E02078400759
:1019C00006D513490A6832F4E052E06802430A601F
:1019D0002078000707D50E48016831F4604122697C
:1019E00051EAC201016000F0E5F90B49084A1268AA
:1019F000C2F30312895CC8400849086008480068BF
:101A000000F090F80020BDE8F0810000003C0240AA
:101A100008380240003802400C2200080400002070
:101A20000000002010F00700374B1A684FF6FF0146
:101A30000A4052EA0022354802431A607047324891
:101A40000068C0F302207047020052B2002A04D49A
:101A500009012F4A40B2115407E009012D4A40B252
:101A600010F00F00104400F8041C704710B410F080
:101A70000700D0F10703052B01D3042301E0D0F1C7
:101A80000703041D072C01D2002000E0C01E012422
:101A900014FA03F35B1E1940814014FA00F0401E53
:101AA0001040084310BC704780B5411EB1F1807FE3
:101AB00001D301200EE0401E174908600F215FF09E
:101AC000FF30FFF7C1FF00201449086007201449C8
:101AD0000860002002BD80B5FFF7A4FF01BD70B50E
:101AE00004000D0016000020FFF7A9FF32002900B6
:101AF000FFF7BCFF0100200040B2FFF7A5FF70BD5B
:101B000080B5FFF7D1FF02BD0CED00E00000FA0543
:101B100000E400E018ED00E014E000E018E000E070
:101B200010E000E010B504004FF47A700D49097818
:101B3000B0FBF1F00C490968B1FBF0F0FFF7E0FFF2
:101B4000002801D001200CE0102C09D20022210035
:101B50005FF0FF30FFF7C3FF04480460002000E09F
:101B6000012010BD0800002004000020000000201B
:101B700081B0002000900C48016851F48041016060
:101B8000006810F480400090009800200090074802
:101B9000016851F080510160006810F080500090A1
:101BA000009801B0704700BF4438024040380240FE
:101BB00080B592B2FEF74FFB01BD80B592B2FEF741
:101BC0001FFC01BD80B500F035F901BD10B504461C
:101BD000AFF30080204600F005F80446AFF3008024
:101BE000204610BDF8B500F10F04E408E400A0425F
:101BF0002BD2082C04D2082402E0083000F047F869
:101C0000DFF800211368190005D1002007E00568FE
:101C1000A5420DD2011D08680028F8D11868111DD1
:101C200000E0191D0B6883420BD01D68A542F8D354
:101C300059B10B6818680838A04208D25868086083
:101C40000FE000F00BF90028D7D10020F2BD1819E1
:101C500008601D1D586828511E680F68361B3E60BD
:101C60001C60096800291DBF48680028081D002065
:101C7000106003F10800F2BD10B5040006D0AFF308
:101C80000080204600F003F8AFF3008010BD00286C
:101C900000D1704770B4A0F108021368072B2ED949
:101CA00013F0070F2BD1DFF85C40616809B18A425D
:101CB00003D25160626015E00146486808B1904265
:101CC000FAD308680E18B24219D3964203D11B18F2
:101CD0000B600A4606E0486810B1134498420ED3E0
:101CE00050604A60506850B11368D518854206D1DB
:101CF000002626600168CB1813604068506070BCF5
:101D0000704700009400002062B38B0708D0521E79
:101D100011F8013B00F8013B00F024808B07F6D15D
:101D2000830740F0208000BF103A07D330B4B1E8F9
:101D30003810103AA0E83810F9D230BC530724BF4D
:101D4000B1E80810A0E8081044BF51F8043B40F87F
:101D5000043BD20724BF31F8022B20F8022B44BFEA
:101D60000B7803707047121F17D35B0009D151F82D
:101D7000043B20F8023B1B0C121F20F8023BF6D25A
:101D80000BE051F8043B00F8013B1B0A20F8023B32
:101D90001B0C121F00F8013BF3D238BF121D521E5C
:101DA00024BF11F8013B00F8013BF8D87047FFF75A
:101DB00063BF000010B5002000200020002019485B
:101DC000006810F00C00002804D0042804D0082873
:101DD00004D025E0144824E0144822E0144C226882
:101DE00012F03F022068400209D52068C0F3881035
:101DF0000E49A1FB0001002300F046F808E020682E
:101E0000C0F388100849A1FB0001002300F03CF852
:101E10002168C1F30141491C4900B0FBF1F000E029
:101E2000014810BD083802400024F40000127A0076
:101E30000438024038B50400FEF7F0FD050014F147
:101E4000010F02D0044800782418FEF7E7FD401B7C
:101E5000A042FAD331BD00BF08000020074908683E
:101E600008B1002070470648C008C0000860054956
:101E7000C908C900091A0160704700BFA00000200E
:101E8000AF040020A8060020BBBBE1B1B2F5803F43
:101E900080F07E80022A1ED98C46B1FBF2F102FB53
:101EA00011C31B0443EA1043B3FBF2FC02FB1C33D7
:101EB00080B240EA0343B3FBF2F002FB103240EA87
:101EC0000C4000237047022A05D98446B0FBF2F08B
:101ED00002FB10C270474AB105D100F00102490867
:101EE0005FEA3000704700220023704700F0E4B83A
:101EF0000B000200002100207047904271EB030CA0
:101F0000F6D3B3F5803F2FD2F0B5B3FA83F7B1FA29
:101F100081F4A7F10F0E3D1B5340CEF1200602FACB
:101F20000EF2F3415340B5F10F0746D80F3C2C4455
:101F30004140C4F12006A040F1414140B1FBF3F61D
:101F400003FB1611A2FB0645001BA94102D2761E17
:101F50008018594180EA010221FA0EF362FA0EF26A
:101F600000215A403046F0BD30B4B1FBF3FC03FB16
:101F70001C11A2FB0C45001BA94103D2ACF1010CC2
:101F80008018594130BC02460B466046002170471C
:101F9000B2F1807F65D3F0B5B2FA82F7B1FA81F47D
:101FA000C7F10F063D1B22FA06F307F1110EF241AD
:101FB00020355A40B5F10F07B8D94140C4F1200689
:101FC000A040F1414140B1FBF3FC03FB1C11A2FB1B
:101FD0000C45001BA94103D2BCF1010C80185941EA
:101FE0000F2F12D30F3FC90341EA5041B1FBF3F663
:101FF00003FB1611A2FB0645D4EBC030A94102D267
:10200000761E8018594146EACC3C07B34140C7F1DF
:102010002006B840F1414140B1FBF3F603FB161135
:10202000A2FB0645001BA94102D2761E8018594129
:1020300080EA010221FA0EF3C7F1200462FA0EF2DF
:102040000CFA07F05A402CFA04F13043F0BD80EA54
:10205000010221FA0EF3002162FA0EF260465A40A4
:10206000F0BD8C46B1FBF2F102FB11C31B0243EA47
:102070001063B3FBF2FC02FB1C331B024CEA002092
:1020800043EA1063B3FBF2FC02FB1C331B024CEA75
:10209000002043EA1063B3FBF2FC02FB1C331B027B
:1020A0004CEA002043EA1063B3FBF2FC02FB1C3253
:1020B0004CEA002000237047704730B4002512E03E
:1020C00050F8042BD30744BF4A44521E091F042969
:1020D00042F8045BFAD213468C0744BF15809B1C60
:1020E000C90748BF1D7050F8041B0029E8D130BC57
:1020F0007047000010B5074979441831064C7C44FC
:10210000163404E00A68081D114488470146A142BC
:10211000F8D110BD2C0000004C0000004EF6885194
:10212000CEF20001086840F470000860BFF34F8FE2
:10213000BFF36F8F4FF00170E1EE100A704700009F
:102140007BFFFFFF980000000C0000200000000053
:1021500093F3FFFF0C000000E400000000000020EB
:102160000000000000F00DF8002801D0FFF7C2FFCA
:10217000AFF300800020AFF30080FEF755FC00F0C5
:1021800002F80120704700F001B800000746384609
:1021900000F002F8FBE7000080B5AFF30080024AD0
:1021A00011001820ABBEFBE72600020005480146DF
:1021B00003B4684680F30988AFF30080FFF7AEFFF1
:1021C000FFF7D0FFA5EDF5FE03480168034A12783A
:1021D00089180160704700BF9C00002008000020A3
:1021E000FEE7FEE7FEE7FEE7FEE770477047704751
:1021F00080B5FFF7E9FF01BD0102030405060708EA
:1022000009004142434445464748494A000000000E
:102210000000000001020304060708090148804786
:10222000014800472D220008AD210008024801683E
:1022300051F470010160704788ED00E0100000006B
:102240000024F40001000000FFF7FEBFFFF7FEBF0F
:10225000FFF7FEBFFFF7FEBFFFF7FEBFFFF7FEBFB2
:10226000FFF7FEBFFFF7FEBFFFF7FEBFFFF7FEBFA2
:10227000FFF7FEBFFFF7FEBFFFF7FEBFFFF7FEBF92
:10228000FFF7FEBFFFF7FEBFFFF7FEBFFFF7FEBF82
:10229000FFF7FEBFFFF7FEBFFFF7FEBFFFF7FEBF72
:1022A000FFF7FEBFFFF7FEBFFFF7FEBFFFF7FEBF62
:1022B000FFF7FEBFFFF7FEBFFFF7FEBFFFF7FEBF52
:1022C000FFF7FEBFFFF7FEBFFFF7FEBFFFF7FEBF42
:1022D000FFF7FEBFFFF7FEBFFFF7FEBFFFF7FEBF32
:1022E000FFF7FEBFFFF7FEBFFFF7FEBFFFF7FEBF22
:1022F000FFF7FEBFFFF7FEBFFFF7FEBFFFF7FEBF12
:10230000FFF7FEBFFFF7FEBFFFF7FEBFFFF7FEBF01
:10231000FFF7FEBFFFF7FEBFFFF7FEBFFFF7FEBFF1
:10232000FFF7FEBFFFF7FEBFFFF7FEBFFFF7FEBFE1
:10233000FFF7FEBFFFF7FEBFFFF7FEBFFFF7FEBFD1
:10234000FFF7FEBFFFF7FEBFFFF7FEBFFFF7FEBFC1
:10235000FFF7FEBFFFF7FEBFFFF7FEBFFFF7FEBFB1
:10236000FFF7FEBFFFF7FEBFFFF7FEBFFFF7FEBFA1
:10237000FFF7FEBFFFF7FEBFFFF7FEBFFFF7FEBF91
:0C238000FFF7FEBFFFF7FEBFFFF7FEBF38
:04000005080021AD21
:00000001FF
