:020000040800F2
:10000000980400202D1E0008F11D0008F31D0008B3
:10001000F51D0008F71D0008F91D0008000000008C
:10002000000000000000000000000000FB1D0008B0
:10003000FD1D000800000000FF1D0008011E000853
:10004000591E00085D1E0008611E0008651E00089C
:10005000691E00086D1E0008711E0008751E00084C
:10006000791E00087D1E0008811E0008851E0008FC
:10007000891E00088D1E0008911E0008951E0008AC
:10008000991E00089D1E0008A11E0008A51E00085C
:10009000A91E0008AD1E0008B11E0008B51E00080C
:1000A000B91E0008BD1E0008C11E0008C51E0008BC
:1000B000C91E0008CD1E0008D11E0008D51E00086C
:1000C000D91E0008DD1E0008E11E0008E51E00081C
:1000D000E91E0008ED1E0008F11E0008F51E0008CC
:1000E000F91E0008FD1E0008011F0008051F00087A
:1000F000091F00080D1F0008111F0008151F000828
:10010000191F00081D1F0008211F0008251F0008D7
:10011000291F00082D1F0008311F0008351F000887
:10012000391F00083D1F0008411F0008451F000837
:10013000491F00084D1F0008511F0008551F0008E7
:10014000591F00085D1F0008611F0008651F000897
:10015000691F00086D1F0008711F0008751F000847
:10016000791F00087D1F0008811F0008851F0008F7
:10017000891F00088D1F0008911F00080000000063
:10018000951F0008991F000810B50400002C01D12C
:1001900001205FE0606A002806D16068B0F5827FC8
:1001A00006D00020E06103E00020206100206061B3
:1001B0000020A06294F85100002805D1002084F8A6
:1001C0005000200000F0EBFB022084F85100206872
:1001D000006830F0400021680860606810F48270A8
:1001E000A16811F404410843E16811F40061084377
:1001F000217C11F002010843217D11F00101084327
:10020000A16911F400710843217F11F038010843FE
:1002100094F8201011F080010843A16A11F40051F4
:10022000084321680860A069000C10F0040094F8ED
:10023000241011F010010843216848602068C0694B
:1002400030F400602168C86100206065012084F8F6
:100250005100002010BD2DE9F84306000D00914625
:100260001C00002796F85000012801D10220C5E0AB
:10027000012086F8500000F0D1FB8046494696F8F0
:100280005100012801D00227B0E0002D03D04846DC
:1002900080B2002801D10127A8E0032086F8510090
:1002A000002070653563A6F83490A6F836900020DB
:1002B000B0630020B0870020F08700207064002029
:1002C0003064B068B0F5004F0BD13068006830F092
:1002D0004000326810603068006850F48040326836
:1002E000106030680068400605D43068006850F03F
:1002F000400032681060F068B0F5006F2ED1706871
:10030000002802D089B2012914D1306B00883168ED
:10031000C860306B801C3063F08E401EF08609E0B0
:10032000306B00883168C860306B801C3063F08EA1
:10033000401EF086F08E00283FD03068806880072D
:10034000EED400F06BFBB0EB0800A04202D314F136
:10035000010F01D1002CEDD1032747E07068002880
:1003600002D089B2012914D1306B0078316808734A
:10037000306B401C3063F08E401EF08609E0306B1D
:10038000007831680873306B401C3063F08E401E7B
:10039000F086F08E002810D0306880688007EED498
:1003A00000F03CFBB0EB0800A04202D314F1010FB7
:1003B00001D1002CEDD1032718E042462100300086
:1003C00000F098FA002801D020207065B06800285D
:1003D00008D1002000903068C068009030688068C4
:1003E00000900098706D002800D00127012086F849
:1003F0005100002086F850003800C0B2BDE8F283FA
:100400002DE9F84306000D0091461C000027706896
:10041000B0F5827F0ED1B06800280BD1042086F899
:10042000510000944B469BB22A002900300000F096
:10043000A0F89CE096F85000012801D1022096E037
:10044000012086F8500000F0E9FA804696F8510045
:10045000012801D0022782E0002D03D0484680B257
:10046000002801D101277AE0042086F851000020FD
:100470007065B563A6F83C90A6F83E900020306306
:100480000020B0860020F0860020306400207064D8
:10049000B068B0F5004F0BD13068006830F0400014
:1004A000316808603068006830F480403168086066
:1004B00030680068400605D43068006850F040009D
:1004C00031680860F068002828D109E03068007BB6
:1004D000B16B0870B06B401CB063F08F401EF087AA
:1004E000F08F00282ED030688068C007EED400F06E
:1004F00095FAB0EB0800A04202D314F1010F01D12C
:10050000002CEDD103272AE03068C068B16B088069
:10051000B06B801CB063F08F401EF087F08F002816
:1005200010D030688068C007EED400F077FAB0EBE6
:100530000800A04202D314F1010F01D1002CEDD12B
:1005400003270CE042462100300000F08AF9002821
:1005500001D020207065706D002800D00127012097
:1005600086F85100002086F850003800C0B2BDE87F
:10057000F2832DE9FC4705000C0091469A465FF096
:100580000108002695F85000012801D10220FDE065
:10059000012085F8500000F041FA070095F851203D
:1005A000686851461300DBB2012B0AD0B0F5827F98
:1005B00005D1A868002802D1D2B2042A01D00226AF
:1005C000DCE0002C06D0B9F1000F03D0504680B219
:1005D000002801D10126D1E095F85100042802D06D
:1005E000052085F8510000206865C5F83890A5F809
:1005F0003EA0A5F83CA02C63A5F836A0A5F834A031
:10060000002028640020686428680068400605D43B
:100610002868006850F040002A6810600A9CE8686A
:10062000B0F5006F48D16868002802D089B201296E
:1006300009D1286B00882968C860286B801C286352
:10064000E88E401EE886E88E002802D1E88F002858
:100650007DD028688068800711D5E88E00280ED0EC
:10066000B8F1010F0BD1286B00882968C860286B8E
:10067000801C2863E88E401EE8865FF0000828682A
:100680008068C0070ED5E88F00280BD02868C068A6
:10069000A96B0880A86B801CA863E88F401EE887C0
:1006A0005FF0010800F0BAF9C01BA042CBD314F1EF
:1006B000010FC8D0032661E06868002802D089B223
:1006C000012909D1286B007829680873286B401C20
:1006D0002863E88E401EE886E88E002802D1E88F65
:1006E000002834D028688068800711D5E88E00285B
:1006F0000ED0B8F1010F0BD1286B00782968087370
:10070000286B401C2863E88E401EE8865FF00008D6
:1007100028688068C0070ED5E88F00280BD02868AD
:10072000C068A96B0870A86B401CA863E88F401EC6
:10073000E8875FF0010800F071F9C01BA04202D306
:1007400014F1010F01D1002CC6D1032616E03A00A6
:100750002100280000F0CEF8002803D00126202038
:1007600068650BE0A868002808D100200090286880
:10077000C06800902868806800900098012085F883
:100780005100002085F850003000C0B2BDE8F68767
:100790002DE9F84305000E0017009846089C00F06C
:1007A0003DF9B8EB0000241800F038F98146DFF875
:1007B000A00100684001000D00FB04F0009006E07D
:1007C0000098002800D100240098401E009028685E
:1007D00080683040B04201D1012000E000203900A3
:1007E000C9B288423AD018F1010FF0D000F016F9E2
:1007F000B0EB0900A04201D2002CE1D1286840688A
:1008000030F0E000296848606868B0F5827F0DD15B
:10081000A868B0F5004F03D0A868B0F5806F05D187
:100820002868006830F0400029680860A86AB0F5C0
:10083000005F0BD12868006830F400502968086018
:100840002868006850F4005029680860012085F885
:100850005100002085F85000032000E00020BDE892
:10086000F2831CB504000B006068B0F5827F0DD1E7
:10087000A068B0F5004F03D0A068B0F5806F05D137
:100880002068006830F04000216808606068B0F5BA
:10089000827F1FD1A068B0F5806F0DD0009200223A
:1008A00080212000FFF774FF002821D0606D50F0F8
:1008B0002000606503201CE000920022012120003E
:1008C000FFF766FF002813D0606D50F020006065D0
:1008D00003200EE00092002201212000FFF758FFC4
:1008E000002805D0606D50F020006065032000E016
:1008F000002016BD1CB504000B0015480068182127
:10090000B0FBF1F01349B0FBF1F14FF47A704143C1
:1009100000916068B0F5827F14D10092002280219E
:100920002000FFF735FF00280FD0606D50F0200049
:10093000606503200AE00098401E009020688068EF
:10094000000602D500980028F5D1002016BD000051
:100950000400002040420F0080B52B482B49016065
:100960004FF482714160002181600021C16000214B
:100970000161002141614FF4007181613821C16141
:100980000021016200214162002181620A21C162CD
:10099000FFF7FAFB002801D000F0F7F801BD10B511
:1009A00086B004001422002101A800F0F0F82068AD
:1009B0001649884225D1002000901548016851F45D
:1009C00080510160006810F4805000900098002071
:1009D00000901048016851F002010160006810F0B9
:1009E0000200009000983820019002200290002020
:1009F0000390032004900520059001A9064800F00B
:100A0000E5F806B010BD00000C00002000300140E9
:100A10004438024030380240000402400148006877
:100A2000704700BF900000207CB500F0D1F900F0C5
:100A30003DF800F0E7F9FFF78FFF474C4FF4004314
:100A4000464A47480168200000F020FAA07D0028AF
:100A500029D1444D5FF4B02314222900200000F076
:100A600008FB414E14223100280000F01BFC002836
:100A70001BD0012000905FF4B0231422310020002D
:100A800000F090FA5FF4B02314222900200000F057
:100A9000F0FA14223100280000F004FC002804D0F1
:100AA00000F073F801E000F070F8FEE710B592B0C6
:100AB0003021002206AC200000F00AFC14210022A4
:100AC00001AC200000F004FC0020009027480168E1
:100AD00051F080510160006810F080500090009843
:100AE000002000902248016851F4804101600068B4
:100AF00010F4804000900098012006905FF4803050
:100B0000079002200C905FF480000D9004200E905E
:100B1000A8200F90022010900420119006A800F049
:100B20000BFC002801D000F030F80F2001900220CB
:100B30000290002003904FF4A05004904FF4805096
:100B40000590052101A800F0D9FD002801D000F092
:100B50001CF812B010BD000064000020000002402C
:100B60000C0000207C000020081E000840380240D5
:100B70000070004038B50400FFF750FF0500FFF794
:100B80004DFF401BA042FAD331BD72B6FEE710B54F
:100B9000044610460A460146204600F099FB2046CE
:100BA00010BD0EE002684368024408305FEAC37C6F
:100BB00044BF4B445B1E52F804CB43F804CB091FDF
:100BC000F9D150F8041B0029ECD17047F8B4002289
:100BD00000220022002336E0082604E0DFF8B86196
:100BE000B042F9D10726F6B29F0017F00C07BE40BD
:100BF00035431E00B60842F82650DFF8A0512A6897
:100C0000A2434E68F60200D522432A60DFF89051D5
:100C10002A68A2434E68B60200D522432A60DFF854
:100C200084512A68A2434E68B60300D522432A6045
:100C3000DFF874512A68A2434E68F60301D51443C5
:100C400022002A605B1C102B80F09980012616FA86
:100C500003F20C6814409442F4D10A7912F00302B2
:100C6000012A04D00A7912F00302022A12D18568FF
:100C700003275A009740BD43CF685A0097403D4331
:100C8000856042689E40B2434D68C5F300159D40A3
:100C90002A4342600A7912F00302032A09D0C56888
:100CA00003265A009640B5438E685A009640354355
:100CB000C5600A7912F00302022A15D11A00D2087F
:100CC00000EB8202126A0F259E0016F01C06B5404A
:100CD000AA430D699E0016F01C06B5402A431D006C
:100CE000ED0800EB85052A62056803265A00964048
:100CF000B5430E7916F003065A0096403543056059
:100D00004A6812F4403F9DD000220092274A15689D
:100D100055F480451560126812F480420092009AE2
:100D2000234A1D00AD0852F825500F269F0017F0EA
:100D30000C07BE40B5431F4EB04201D1002652E71A
:100D40001D4EB04201D101264DE71C4EB04201D1EB
:100D5000022648E71A4EB04201D1032643E7194E56
:100D6000B04201D104263EE7174EB04201D105261C
:100D700039E7164EB0427FF431AF062633E7F1BCB7
:100D80007047D2B2002A02D089B2816102E089B2F2
:100D90000904816170470000001C0240083C0140CA
:100DA0000C3C0140043C0140003C014044380240FE
:100DB00008380140000002400004024000080240E0
:100DC000000C0240001002400014024000180240D3
:100DD00080B50B48016851F400710160016851F45D
:100DE00080610160016851F480710160032000F0AE
:100DF00088FD0F2000F0ACFD00F0D0FD002002BD0A
:100E0000003C024010B586B01422002101A8FFF773
:100E1000BEFE002000901B48016851F08001016077
:100E2000016811F080010091009900210091016892
:100E300051F001010160016811F001010091009978
:100E400000210091016851F002010160006810F07A
:100E50000200009000980C4C01224FF40041200049
:100E6000FFF78FFF4FF40040019001200290002017
:100E700003900320049001A92000FFF7A7FE06B00D
:100E800010BD00BF3038024000000240F8B5040039
:100E90000D0016001F00642000F0BAFDE560266119
:100EA000A7820120A075E068DFF8181388420BD0F4
:100EB000E068DFF81413884206D0E068DFF80C130E
:100EC000884201D0A07D5AE0AB20207220694169A0
:100ED000A08A814320694161012214F10801E06880
:100EE00000F07CFD20694169A08A014320694161CD
:100EF000012000F08DFD6620207220694169A08AE2
:100F0000814320694161012214F10801E06800F089
:100F100065FD20694169A08A0143206941619920EA
:100F2000207220694169A08A8143206941610122C0
:100F300014F10801E06800F051FD20694169A08AC0
:100F4000014320694161012000F062FD200000F0B2
:100F50003FF92078EF2801D0A07D10E060781328B9
:100F600007D01DD315280FD00AD3172814D00FD3BC
:100F700016E04FF4805060600020A075A07DF2BDA7
:100F80004FF400506060F7E74FF480406060F3E793
:100F90004FF400406060EFE75FF480306060EBE7A3
:100FA000A07DECE72DE9F04105000E001700984602
:100FB000380080B2002805D0380080B240F201111C
:100FC000884201DB012052E05FEA086001D0012085
:100FD0004DE06868390089B2D1EB0021414501D26A
:100FE000012044E06421280000F033F9002801D0FA
:100FF00001203CE0069C280000F03DF90220287208
:1010000028694169A88A814328694161012215F153
:101010000801E86800F0E2FC4046000C68724046B7
:10102000000AA87285F80B80032215F10901E8680F
:1010300000F0D4FCBFB23A003100E86800F0CEFC0A
:1010400028694169A88A0143286941612000C0B22A
:10105000012803D1032000F0DBFC07E0E4B2022CFE
:1010600004D1280000F0EBF80028FAD10020BDE8F8
:10107000F081F8B504000D0016001F00300080B2AA
:10108000002805D0300080B240F20111884201DB17
:1010900001203CE0380601D0012038E060683100D2
:1010A00089B2D1EB0021B94201D201202FE06421A5
:1010B000200000F0CEF8002801D0012027E0032016
:1010C000207220694169A08A81432069416101221F
:1010D00014F10801E06800F081FC3800000C607237
:1010E0003800000AA072E772032214F10901E068D7
:1010F00000F074FCB6B232002900E06800F079FC20
:1011000020694169A08A0143206941610020F2BD44
:1011100038B504001500C9B2012904D050D3032901
:1011200035D01AD34CE00520207220694169A08A8D
:10113000814320694161012214F10801E06800F057
:101140004DFC01222900E06800F053FC2069416950
:10115000A08A01432069416132E035202072206974
:101160004169A08A814320694161012214F108018B
:10117000E06800F033FC01222900E06800F039FC4F
:1011800020694169A08A01432069416118E0352046
:10119000207220694169A08A81432069416101224E
:1011A00014F10801E06800F019FC01222900E06850
:1011B00000F01FFC20694169A08A01432069416158
:1011C00031BD00000030014000380040003C0040CC
:1011D0001CB504006421200000F03BF8002801D079
:1011E00001202BE000208DF8000090202072206963
:1011F0004169A08A814320694161012214F10801FB
:10120000E06800F0EBFB01226946E06800F0E6FBD5
:1012100001226946E06800F0E1FB01226946E068CE
:1012200000F0DCFB02222100E06800F0E2FB206914
:101230004169A08A014320694161002016BD80B543
:101240006A460121FFF764FF9DF8000010F00100DD
:1012500002BD38B505000C002800FFF7F0FF00289C
:1012600007D0641E012000F0D3FB002CF4D1012034
:1012700032BD0020FCE710B5040006202072206972
:101280004169A08A814320694161012214F108016A
:10129000E06800F0A3FB20694169A08A014320694E
:1012A000416110BD8AB10B7890F800C09C4506D111
:1012B00010F8013B4BB1491C521EF4D105E002D29B
:1012C0004FF0FF307047012070470020704700004A
:1012D00062F30F2262F31F42401810F0030308D09C
:1012E000C91A1FD3DB0748BF00F8012D28BF20F81B
:1012F000022D130030B414461546103928BF20E9DA
:101300003C00FAD8490728BF20E90C0048BF40F844
:10131000042D890028BF20F8022D48BF00F8012DB8
:1013200030BC7047C91818BF00F8012DCB0728BF83
:1013300000F8012D704700002DE9FC410400002C4D
:1013400001D10120C4E12078C0075FD5DFF8840314
:10135000016811F00C01042909D0006810F00C009C
:1013600008280ED1DFF870030068400209D5DFF8C5
:101370006C030068800349D56068002846D10120CD
:10138000A6E16068B0F5803F06D1DFF85003016840
:1013900051F48031016018E06068B0F5A02F0AD1E7
:1013A000DFF83803016851F480210160016851F4CD
:1013B0008031016009E0DFF82403016831F48031F5
:1013C0000160016831F480210160606800280ED05E
:1013D000FFF724FB0500DFF804030068800315D441
:1013E000FFF71CFB401B6528F5D3032070E1FFF7D6
:1013F00015FB0500DFF8E4020068800306D5FFF75F
:101400000DFB401B6528F5D3032061E120788007A0
:101410001DD5B048016811F00C0F08D0006810F01D
:101420000C0008282AD1AC480068400226D4AB48FA
:101430000168890704D5E168012901D0012047E14D
:10144000016831F0F801226951EAC2010160207897
:10145000000751D5606900283DD00120A0490860EF
:10146000FFF7DCFA05009F480068800744D4FFF7C7
:10147000D5FA401B0328F6D3032029E1E0680028B1
:1014800018D0012098490860FFF7C8FA0500934872
:101490000168890706D4FFF7C1FA401B0328F6D379
:1014A000032015E1016831F0F801226951EAC20117
:1014B0000160CCE700208C490860FFF7AFFA050017
:1014C000864800688007C2D5FFF7A8FA401B0328AA
:1014D000F6D30320FCE0002081490860FFF79EFA64
:1014E000050080480068800706D5FFF797FA401B83
:1014F0000328F6D30320EBE0207840076FD50026C1
:101500007A4D2868C0000BD400200090286850F065
:1015100080502860286810F08050009000980126C4
:10152000734F3868C00511D4386850F48070386043
:10153000FFF774FA80463868C00507D4FFF76EFAE3
:10154000B0EB08000328F6D30320C1E0A06801280F
:1015500005D16848016851F00101016015E0A068FB
:10156000052809D16348016851F004010160016850
:1015700051F00101016008E05E4801684908490036
:101580000160016831F004010160A06800280FD0FB
:10159000FFF744FA070057480068800718D4FFF7A0
:1015A0003DFAC01B41F289318842F4D303208FE019
:1015B000FFF734FA07004F480068800708D5FFF7A7
:1015C0002DFAC01B41F289318842F4D303207FE019
:1015D000F6B2012E03D1286830F080502860A0694F
:1015E000002874D03B48006810F00C00082843D055
:1015F000A06902282FD1404E00203060FFF70EFA7C
:101600000700364D2868800106D5FFF707FAC01B92
:101610000328F6D303205BE0E169206A0143606A96
:1016200051EA8011A06A4008401E51EA0041E06A78
:1016300051EA00612848016001203060FFF7EEF9AF
:1016400004002868800142D4FFF7E8F9001B032852
:10165000F7D303203CE0002027490860FFF7DEF9BC
:1016600004001E480068800131D5FFF7D7F9001B40
:101670000328F6D303202BE0A069012801D1012023
:1016800026E015480068A16901291ED010F48001E8
:10169000E269914219D110F03F01226A914214D1BE
:1016A00047F6C0710140626AB1EB821F0DD110F4A0
:1016B0004031A26A5208521EB1EB024F05D110F020
:1016C0007060E16AB0EB016F01D0012000E0002002
:1016D000BDE8F68108380240043802400038024074
:1016E000800E4742743802400000474240380240B2
:1016F0000070004070380240600047422DE9F04120
:1017000004000E00002C01D1012092E04A4D28680F
:1017100010F00700B04207D22E70286810F00700C2
:10172000B04201D0012084E02078800716D52078CF
:10173000400704D54148016851F4E0510160207828
:10174000000704D53D48016851F4604101603B4900
:101750000A6832F0F002A06802430A602078C007ED
:1017600035D56068012805D135480068800313D459
:1017700001205EE06068022802D06068032805D17D
:101780002F480068800107D4012052E02C480068EF
:10179000800701D401204CE0284F3968890889006E
:1017A000606801433960FFF739F98046386810F006
:1017B0000C006168B0EB810F09D0FFF72FF9B0EB97
:1017C000080041F289318842F0D3032031E02868D3
:1017D00010F00700864207D22E70286810F007002C
:1017E000B04201D0012024E02078400706D51349FB
:1017F0000A6832F4E052E06802430A602078000789
:1018000007D50E48016831F46041226951EAC201EE
:10181000016000F001F90B49084A1268C2F3031293
:10182000895CC840084908600848006800F090F8E2
:101830000020BDE8F0810000003C02400838024072
:10184000003802401C1E0008040000200000002098
:1018500010F00700374B1A684FF6FF010A4052EAB2
:101860000022354802431A60704732480068C0F3CE
:1018700002207047020052B2002A04D409012F4A04
:1018800040B2115407E009012D4A40B210F00F0098
:10189000104400F8041C704710B410F00700D0F199
:1018A0000703052B01D3042301E0D0F10703041D36
:1018B000072C01D2002000E0C01E012414FA03F31B
:1018C0005B1E1940814014FA00F0401E104008438E
:1018D00010BC704780B5411EB1F1807F01D301205B
:1018E0000EE0401E174908600F215FF0FF30FFF740
:1018F000C1FF002014490860072014490860002037
:1019000002BD80B5FFF7A4FF01BD70B504000D0056
:1019100016000020FFF7A9FF32002900FFF7BCFFE7
:101920000100200040B2FFF7A5FF70BD80B5FFF7B2
:10193000D1FF02BD0CED00E00000FA0500E400E07C
:1019400018ED00E014E000E018E000E010E000E036
:1019500010B504004FF47A700D490978B0FBF1F02E
:101960000C490968B1FBF0F0FFF7E0FF002801D057
:1019700001200CE0102C09D2002221005FF0FF3082
:10198000FFF7C3FF04480460002000E0012010BD01
:1019900008000020040000200000002081B000208A
:1019A00000900C48016851F480410160006810F417
:1019B000804000900098002000900748016851F096
:1019C00080510160006810F080500090009801B0D4
:1019D000704700BF443802404038024080B50A4B8F
:1019E000984205D14FF47A7392B20848FEF733FC5F
:1019F00001BD80B5044B984205D14FF47A7392B281
:101A00000248FEF7FDFC01BD003001400C00002043
:101A100080B5FFF7AFF801BD10B500200020002011
:101A200000201948006810F00C00002804D0042899
:101A300004D0082804D025E0144824E0144822E00B
:101A4000144C226812F03F022068400209D5206839
:101A5000C0F388100E49A1FB0001002300F01CF820
:101A600008E02068C0F388100849A1FB00010023AA
:101A700000F012F82168C1F30141491C4900B0FB94
:101A8000F1F000E0014810BD083802400024F400E5
:101A900000127A0004380240BBBBE1B1B2F5803FCE
:101AA00080F07E80022A1ED98C46B1FBF2F102FB47
:101AB00011C31B0443EA1043B3FBF2FC02FB1C33CB
:101AC00080B240EA0343B3FBF2F002FB103240EA7B
:101AD0000C4000237047022A05D98446B0FBF2F07F
:101AE00002FB10C270474AB105D100F0010249085B
:101AF0005FEA3000704700220023704700F0E4B82E
:101B00000B000200002100207047904271EB030C93
:101B1000F6D3B3F5803F2FD2F0B5B3FA83F7B1FA1D
:101B200081F4A7F10F0E3D1B5340CEF1200602FABF
:101B30000EF2F3415340B5F10F0746D80F3C2C4449
:101B40004140C4F12006A040F1414140B1FBF3F611
:101B500003FB1611A2FB0645001BA94102D2761E0B
:101B60008018594180EA010221FA0EF362FA0EF25E
:101B700000215A403046F0BD30B4B1FBF3FC03FB0A
:101B80001C11A2FB0C45001BA94103D2ACF1010CB6
:101B90008018594130BC02460B4660460021704710
:101BA000B2F1807F65D3F0B5B2FA82F7B1FA81F471
:101BB000C7F10F063D1B22FA06F307F1110EF241A1
:101BC00020355A40B5F10F07B8D94140C4F120067D
:101BD000A040F1414140B1FBF3FC03FB1C11A2FB0F
:101BE0000C45001BA94103D2BCF1010C80185941DE
:101BF0000F2F12D30F3FC90341EA5041B1FBF3F657
:101C000003FB1611A2FB0645D4EBC030A94102D25A
:101C1000761E8018594146EACC3C07B34140C7F1D3
:101C20002006B840F1414140B1FBF3F603FB161129
:101C3000A2FB0645001BA94102D2761E801859411D
:101C400080EA010221FA0EF3C7F1200462FA0EF2D3
:101C50000CFA07F05A402CFA04F13043F0BD80EA48
:101C6000010221FA0EF3002162FA0EF260465A4098
:101C7000F0BD8C46B1FBF2F102FB11C31B0243EA3B
:101C80001063B3FBF2FC02FB1C331B024CEA002086
:101C900043EA1063B3FBF2FC02FB1C331B024CEA69
:101CA000002043EA1063B3FBF2FC02FB1C331B026F
:101CB0004CEA002043EA1063B3FBF2FC02FB1C3247
:101CC0004CEA002000237047704730B4002512E032
:101CD00050F8042BD30744BF4A44521E091F04295D
:101CE00042F8045BFAD213468C0744BF15809B1C54
:101CF000C90748BF1D7050F8041B0029E8D130BC4B
:101D00007047000010B5074979441831064C7C44EF
:101D1000163404E00A68081D114488470146A142B0
:101D2000F8D110BD2C0000004C0000004EF6885188
:101D3000CEF20001086840F470000860BFF34F8FD6
:101D4000BFF36F8F4FF00170E1EE100A7047000093
:101D50007BFFFFFF880000000C0000200000000057
:101D600043EEFFFF0C000000E40000000000002034
:101D70000000000000F00DF8002801D0FFF7C2FFBE
:101D8000AFF300800020AFF30080FEF74DFE00F0BF
:101D900002F80120704700F001B8000007463846FD
:101DA00000F002F8FBE7000080B5AFF30080024AC4
:101DB00011001820ABBEFBE72600020005480146D3
:101DC00003B4684680F30988AFF30080FFF7AEFFE5
:101DD000FFF7D0FFA5EDF5FE03480168034A12782E
:101DE00089180160704700BF9000002008000020A3
:101DF000FEE7FEE7FEE7FEE7FEE770477047704745
:101E000080B5FFF7E9FF01BD0102030405060708DD
:101E100009004142434445464748494A0000000002
:101E2000000000000102030406070809014880477A
:101E3000014800473D1E0008BD1D0008024801681A
:101E400051F470010160704788ED00E0100000005F
:101E50000024F40001000000FFF7FEBFFFF7FEBF03
:101E6000FFF7FEBFFFF7FEBFFFF7FEBFFFF7FEBFA6
:101E7000FFF7FEBFFFF7FEBFFFF7FEBFFFF7FEBF96
:101E8000FFF7FEBFFFF7FEBFFFF7FEBFFFF7FEBF86
:101E9000FFF7FEBFFFF7FEBFFFF7FEBFFFF7FEBF76
:101EA000FFF7FEBFFFF7FEBFFFF7FEBFFFF7FEBF66
:101EB000FFF7FEBFFFF7FEBFFFF7FEBFFFF7FEBF56
:101EC000FFF7FEBFFFF7FEBFFFF7FEBFFFF7FEBF46
:101ED000FFF7FEBFFFF7FEBFFFF7FEBFFFF7FEBF36
:101EE000FFF7FEBFFFF7FEBFFFF7FEBFFFF7FEBF26
:101EF000FFF7FEBFFFF7FEBFFFF7FEBFFFF7FEBF16
:101F0000FFF7FEBFFFF7FEBFFFF7FEBFFFF7FEBF05
:101F1000FFF7FEBFFFF7FEBFFFF7FEBFFFF7FEBFF5
:101F2000FFF7FEBFFFF7FEBFFFF7FEBFFFF7FEBFE5
:101F3000FFF7FEBFFFF7FEBFFFF7FEBFFFF7FEBFD5
:101F4000FFF7FEBFFFF7FEBFFFF7FEBFFFF7FEBFC5
:101F5000FFF7FEBFFFF7FEBFFFF7FEBFFFF7FEBFB5
:101F6000FFF7FEBFFFF7FEBFFFF7FEBFFFF7FEBFA5
:101F7000FFF7FEBFFFF7FEBFFFF7FEBFFFF7FEBF95
:101F8000FFF7FEBFFFF7FEBFFFF7FEBFFFF7FEBF85
:0C1F9000FFF7FEBFFFF7FEBFFFF7FEBF2C
:0400000508001DBD15
:00000001FF
