:020000040800F2
:1000000098040020551F0008191F00081B1F000836
:100010001D1F00081F1F0008211F0008000000000E
:10002000000000000000000000000000231F000886
:10003000251F000800000000271F0008291F0008D6
:10004000811F0008851F0008891F00088D1F0008F8
:10005000911F0008951F0008991F00089D1F0008A8
:10006000A11F0008A51F0008A91F0008AD1F000858
:10007000B11F0008B51F0008B91F0008BD1F000808
:10008000C11F0008C51F0008C91F0008CD1F0008B8
:10009000D11F0008D51F0008D91F0008DD1F000868
:1000A000E11F0008E51F0008E91F0008ED1F000818
:1000B000F11F0008F51F0008F91F0008FD1F0008C8
:1000C0000120000805200008092000080D20000874
:1000D0001120000815200008192000081D20000824
:1000E0002120000825200008292000082D200008D4
:1000F0003120000835200008392000083D20000884
:100100004120000845200008492000084D20000833
:100110005120000855200008592000085D200008E3
:100120006120000865200008692000086D20000893
:100130007120000875200008792000087D20000843
:100140008120000885200008892000088D200008F3
:100150009120000895200008992000089D200008A3
:10016000A1200008A5200008A9200008AD20000853
:10017000B1200008B5200008B920000800000000E8
:10018000BD200008C120000810B50400002C01D1DA
:1001900001205FE0606A002806D16068B0F5827FC8
:1001A00006D00020E06103E00020206100206061B3
:1001B0000020A06294F85100002805D1002084F8A6
:1001C0005000200000F00FFC022084F8510020684D
:1001D000006830F0400021680860606810F48270A8
:1001E000A16811F404410843E16811F40061084377
:1001F000217C11F002010843217D11F00101084327
:10020000A16911F400710843217F11F038010843FE
:1002100094F8201011F080010843A16A11F40051F4
:10022000084321680860A069000C10F0040094F8ED
:10023000241011F010010843216848602068C0694B
:1002400030F400602168C86100206065012084F8F6
:100250005100002010BD2DE9FC4706000D001700DD
:100260001C005FF0000896F85000012801D1022020
:10027000CAE0012086F8500000F0F4FB8146BA463F
:1002800096F85100012802D002208046B4E0002DEB
:1002900003D0380080B2002802D101208046ABE0B4
:1002A000032086F85100002070653563B786F78615
:1002B0000020B0630020B0870020F0870020706429
:1002C00000203064B068B0F5004F0BD13068006892
:1002D00030F04000316808603068006850F48040B9
:1002E0003168086030680068400605D430680068EE
:1002F00050F0400031680860F068B0F5006F30D110
:100300007068002803D0504680B2012809D1306BB4
:1003100000883168C860306B801C3063F08E401EEE
:10032000F086F08E00284DD03068806880070AD5AE
:10033000306B00883168C860306B801C3063F08E91
:10034000401EF086EDE700F08DFBB0EB0900A04207
:1003500002D314F1010F01D1002CE2D10320804619
:100360004AE07068002803D0504680B2012809D1C5
:10037000306B007831680873306B401C3063F08E4E
:10038000401EF086F08E00281CD030688068800700
:100390000AD5306B007831680873306B401C3063CD
:1003A000F08E401EF086EDE700F05CFBB0EB09003C
:1003B000A04202D314F1010F01D1002CE2D103209D
:1003C000804619E04A462100300000F0B5FA0028C6
:1003D00001D020207065B068002808D1002000906E
:1003E0003068C06800903068806800900098706D38
:1003F000002801D001208046012086F8510000200D
:1004000086F850004046C0B2BDE8F6872DE9F843B3
:1004100006000D0017001C005FF000087068B0F5C2
:10042000827F0ED1B06800280BD1042086F85100DD
:1004300000943B009BB22A002900300000F0A4F891
:10044000A0E096F85000012801D102209AE0012096
:1004500086F8500000F006FB814696F8510001280E
:1004600002D00220804685E0002D03D0380080B203
:10047000002802D1012080467CE0042086F851004B
:1004800000207065B563B787F787002030630020D0
:10049000B0860020F0860020306400207064B068D0
:1004A000B0F5004F0BD13068006830F04000316883
:1004B00008603068006830F4804031680860306857
:1004C0000068400605D43068006850F0400031688C
:1004D0000860F06800281FD1F08F00283CD03068F9
:1004E0008068C0070AD53068007BB16B0870B06BBC
:1004F000401CB063F08F401EF087EDE700F0B2FAC9
:10050000B0EB0900A04202D314F1010F01D1002C7D
:10051000E2D1032080462DE0F08F00281CD0306807
:100520008068C0070AD53068C068B16B0880B06BBE
:10053000801CB063F08F401EF087EDE700F092FA68
:10054000B0EB0900A04202D314F1010F01D1002C3D
:10055000E2D1032080460DE04A462100300000F041
:100560009EF9002801D020207065706D002801D010
:1005700001208046012086F85100002086F85000B6
:100580004046C0B2BDE8F2832DE9FE4F07000D00E2
:10059000160098460C9C5FF001095FF0000A97F87E
:1005A0005000012801D102200AE1012087F8500003
:1005B00000F058FA834697F851008DF800007868EB
:1005C0000290ADF802809DF8000001280DD002983D
:1005D000B0F5827F06D1B868002803D19DF80000ED
:1005E000042802D002208246E2E0002D05D0002E31
:1005F00003D0404680B2002802D101208246D7E0D5
:1006000097F85100042802D0052087F851000020F7
:100610007865BE63A7F83E80A7F83C803D63A7F8E5
:100620003680A7F834800020386400207864386869
:100630000068400605D43868006850F0400039680A
:100640000860F868B0F5006F4CD17868002803D0D6
:10065000BDF80200012809D1386B00883968C860EC
:10066000386B801C3863F88E401EF886F88E0028A0
:1006700003D1F88F002800F08380386880688007F5
:1006800011D5F88E00280ED0B9F1010F0BD1386BBF
:1006900000883968C860386B801C3863F88E401E4B
:1006A000F8860020814638688068C0070ED5F88F2C
:1006B00000280BD03868C068B96B0880B86B801C04
:1006C000B863F88F401EF8870120814600F0CAF910
:1006D000B0EB0B00A042C9D314F1010FC6D0032028
:1006E000824665E07868002803D0BDF80200012842
:1006F00009D1386B007839680873386B401C38634F
:10070000F88E401EF886F88E002802D1F88F002857
:1007100036D038688068800711D5F88E00280ED052
:10072000B9F1010F0BD1386B007839680873386B59
:10073000401C3863F88E401EF886002081463868D9
:100740008068C0070ED5F88F00280BD03868C068C5
:10075000B96B0870B86B401CB863F88F401EF887FF
:100760000120814600F07EF9B0EB0B00A04202D3DD
:1007700014F1010F01D1002CC5D10320824617E0EE
:100780005A462100380000F0D7F8002804D0012094
:100790008246202078650BE0B868002808D1002048
:1007A00001903868C06801903868806801900198AD
:1007B000012087F85100002087F850005046C0B251
:1007C000BDE8FE8F2DE9FC4705000E001700984696
:1007D000DDF8289000F046F90400B8EB040419EBAA
:1007E000040400F03FF98246DFF8AC0100684001E4
:1007F000000D00FB04F00090286880683040B04293
:1008000001D1012000E000203900C9B2884243D064
:1008100018F1010FF0D000F025F9B0EB0A00A0426A
:1008200001D2002C2FD12868406830F0E000296800
:1008300048606868B0F5827F0DD1A868B0F5004FB8
:1008400003D0A868B0F5806F05D12868006830F043
:10085000400029680860A86AB0F5005F0BD12868DD
:10086000006830F40050296808602868006850F477
:10087000005029680860012085F85100002085F8A3
:100880005000032009E00098002801D10020040056
:100890000098401E0090AFE70020BDE8F6877CB5C9
:1008A00004000D0016006068B0F5827F0DD1A068CD
:1008B000B0F5004F03D0A068B0F5806F05D1206877
:1008C000006830F04000216808606068B0F5827F01
:1008D00021D1A068B0F5806F0ED000962B000022C9
:1008E00080212000FFF76EFF002823D0606D50F0BC
:1008F0002000606503201EE000962B0000220121ED
:100900002000FFF75FFF002814D0606D50F020003A
:10091000606503200FE000962B00002201212000DB
:10092000FFF750FF002805D0606D50F02000606593
:10093000032000E0002076BD7CB504000D00160009
:10094000154800681821B0FBF1F01449B0FBF1F133
:100950004FF47A70414301916068B0F5827F0ED107
:1009600000962B00002280212000FFF72BFF00289B
:100970000FD0606D50F02000606503200AE0019800
:10098000002806D00198401E01902068806800066B
:10099000F5D4002076BD00000400002040420F0086
:1009A00080B52B482B4901604FF4827141600021D2
:1009B00081600021C16000210161002141614FF48B
:1009C000007181613821C161002101620021416211
:1009D000002181620A21C162FFF7D6FB002801D005
:1009E00000F0FCF801BD10B586B00400142200210F
:1009F00001A800F0F5F820681649884225D10020AA
:100A000000901548016851F480510160006810F4AD
:100A1000805000900098002000901048016851F02C
:100A200002010160006810F0020000900098382078
:100A300001900220029000200390032004900520E2
:100A4000059001A9064800F0D5F806B010BD0000D9
:100A50000C00002000300140443802403038024091
:100A60000004024001480068704700BF9000002069
:100A70002DE9FC4100F0F8F900F041F800F00EFA21
:100A8000FFF78EFF484C4FF40043484A484801683E
:100A9000200000F047FA14260027464DA8463A00E9
:100AA0003100404600F050FCA07D002826D15FF4C4
:100AB000B02314222900200000F018FB3E4E14221F
:100AC0003100280000F073FC002817D001200090AE
:100AD0005FF4B02314223100200000F09FFA5FF48D
:100AE000B02314222900200000F000FB1422310062
:100AF000280000F05CFC002800D0FFE7FEE710B5FE
:100B000092B03021002206AC200000F01DFC142120
:100B1000002201AC200000F017FC002000902748C4
:100B2000016851F080510160006810F08050009021
:100B30000098002000902248016851F48041016033
:100B4000006810F4804000900098012006905FF447
:100B50008030079002200C905FF480000D900420FC
:100B60000E90A8200F90022010900420119006A84B
:100B700000F032FC002801D000F030F80F20019086
:100B800002200290002003904FF4A05004904FF4F4
:100B900080500590052101A800F014FE002801D026
:100BA00000F01CF812B010BD6400002000000240EC
:100BB0000C0000207C000020301F0008403802405C
:100BC0000070004070B50400FFF74CFF05002600E0
:100BD000FFF748FF401BB042FAD370BD72B6FEE784
:100BE00010B5044610460A460146204600F0ACFB0C
:100BF000204610BDF8B50023002400250026102E45
:100C000080F00881012717FA06F213000A681A40DB
:100C100014009C4240F0FC800A7912F00302012A81
:100C200004D00A7912F00302022A1FD1D0F808C0BA
:100C30005FF0030E3200D2B252001EFA02FE3CEA0E
:100C40000E0CD1F80CE03200D2B252001EFA02FEB5
:100C50005EEA0C0CC0F808C04268B740BA434F685F
:100C6000C7F30017B7403A43150045600A7912F000
:100C70000302032A14D0C7685FF0030C3200D2B21B
:100C800052001CFA02FC37EA0C07D1F808C0320007
:100C9000D2B252001CFA02FC5CEA07073D00C560B4
:100CA0000A7912F00302022A1ED13200D20800EBA8
:100CB0008202176A5FF00F0C16F00702D2B29200A0
:100CC0001CFA02FC37EA0C07D1F810C016F0070234
:100CD000D2B292001CFA02FC5CEA07073D00320027
:100CE000D20800EB8202156207685FF0030C320045
:100CF000D2B252001CFA02FC37EA0C0791F804C089
:100D00001CF0030C3200D2B252001CFA02FC5CEA66
:100D100007073D0005604A6812F4403F78D0002282
:100D20000092DFF80C21176857F4804717601268AB
:100D300012F480420092009ADFF8F8C03200920864
:100D40005CF822705FF00F0E16F00302D2B2920030
:100D50001EFA02FE37EA0E07374A904201D10025FB
:100D600023E0364A904201D101251EE0344A9042E8
:100D700001D1022519E0334A904201D1032514E044
:100D8000314A904201D104250FE0304A904201D10E
:100D900005250AE02E4A904201D1062505E02D4A9C
:100DA000904201D1072500E00825EDB216F00302BC
:100DB000D2B2920095402F43320092084CF8227034
:100DC000254D2A68A243D1F804C05FEACC2C00D597
:100DD00022432A60214F3D68A543D1F804C05FEA51
:100DE0008C2C00D525433D601D4F3A68A243D1F8B5
:100DF00004C05FEA8C3C00D522433A60194F3D683D
:100E0000A543D1F804C05FEACC3C00D525433D6042
:100E1000761CF4E6F1BD1300DBB2002B03D00B000F
:100E20009BB2836103E00B009BB21B04836170479C
:100E300044380240083801400000024000040240EB
:100E400000080240000C0240001002400014024062
:100E500000180240001C0240083C01400C3C0140CC
:100E6000043C0140003C014080B50B48016851F44E
:100E700000710160016851F480610160016851F402
:100E800080710160032000F0AEFD0F2000F0DAFD5C
:100E900000F0FEFD002002BD003C024010B586B00F
:100EA0001422002101A8FFF79BFE002000901B48A0
:100EB000016851F080010160016811F0800100912A
:100EC000009900210091016851F001010160016861
:100ED00011F001010091009900210091016851F089
:100EE00002010160006810F00200009000980C4CB4
:100EF00001224FF400412000FFF78DFF4FF4004026
:100F0000019001200290002003900320049001A989
:100F10002000FFF76FFE06B010BD00BF3038024062
:100F200000000240F8B504000D0016001F00642008
:100F300000F0F2FDE5602661A7820120A075AB20DC
:100F4000207220694169A08A8143206941610122A0
:100F500014F10801E06800F0BBFD20694169A08A36
:100F6000014320694161012000F0D6FD6620207216
:100F700020694169A08A814320694161012214F1FD
:100F80000801E06800F0A4FD20694169A08A0143DE
:100F9000206941619920207220694169A08A8143BA
:100FA00020694161012214F10801E06800F090FD20
:100FB00020694169A08A014320694161012000F054
:100FC000ABFD200000F03EF92078EF2801D0012091
:100FD00023E06078132807D01AD315280CD007D344
:100FE000172811D00CD313E04FF48050606011E04B
:100FF0004FF4005060600DE04FF48040606009E005
:101000004FF40040606005E05FF48030606001E014
:10101000012002E00020A075A07DF2BD2DE9F04185
:1010200005000E0090461F00069C404680B2002836
:1010300005D0404680B240F20111884201DB012018
:1010400052E0380601D001204EE069684FF480700C
:101050004143404680B2091AB94201D2012043E01F
:101060006421280000F031F9002801D001203BE084
:10107000280000F03DF90220287228694169A88AF9
:10108000814328694161012215F10801E86800F0F7
:101090001FFD3800000C68723800000AA872EF7259
:1010A000032215F10901E86800F012FD424692B2F0
:1010B0003100E86800F00CFD28694169A88A014305
:1010C000286941612000C0B2012803D1032000F04B
:1010D00023FD08E02000C0B2022804D1280000F05F
:1010E000E8F80028FAD10020BDE8F081F8B5040046
:1010F0000D0016001F00300080B2002805D030001F
:1011000080B240F20111884201DB01203EE0380646
:1011100001D001203AE061684FF480704143300013
:1011200080B2091AB94201D201202FE064212000C7
:1011300000F0CBF8002801D0012027E00320207226
:1011400020694169A08A814320694161012214F12B
:101150000801E06800F0BCFC3800000C6072380048
:10116000000AA072E772032214F10901E06800F09E
:10117000AFFC320092B22900E06800F0B9FC2069AF
:101180004169A08A0143206941610020F2BD70B528
:1011900004000D0016002800C0B2012804D050D36E
:1011A000032835D01AD34CE005202072206941690C
:1011B000A08A814320694161012214F10801E0689D
:1011C00000F086FC01223100E06800F091FC20690B
:1011D0004169A08A01432069416132E035202072D3
:1011E00020694169A08A814320694161012214F18B
:1011F0000801E06800F06CFC01223100E06800F0BA
:1012000077FC20694169A08A01432069416118E0A7
:101210003520207220694169A08A8143206941619B
:10122000012214F10801E06800F052FC01223100B3
:10123000E06800F05DFC20694169A08A01432069F3
:10124000416170BD1CB504006421200000F03DF830
:10125000002801D001202BE000208DF80000902014
:10126000207220694169A08A81432069416101227D
:1012700014F10801E06800F02BFC01226946E068E7
:1012800000F026FC01226946E06800F021FC012202
:101290006946E06800F01CFC02222100E06800F0D2
:1012A00027FC20694169A08A01432069416100202F
:1012B00016BD1CB504006A4601212000FFF767FF38
:1012C0009DF8000010F0010016BD38B505000C00B7
:1012D0002800FFF7EEFF002806D0641E012000F072
:1012E0001BFC002CF4D101E0002000E0012032BD05
:1012F00010B504000620207220694169A08A81434C
:1013000020694161012214F10801E06800F0E0FB6E
:1013100020694169A08A01432069416110BD0EE046
:1013200002684368024408305FEAC37C44BF4B4410
:101330005B1E52F804CB43F804CB091FF9D150F8D7
:10134000041B0029ECD1704762F30F2262F31F42A5
:10135000401810F0030308D0C91A1FD3DB0748BF99
:1013600000F8012D28BF20F8022D130030B41446D8
:101370001546103928BF20E93C00FAD8490728BF94
:1013800020E90C0048BF40F8042D890028BF20F850
:10139000022D48BF00F8012D30BC7047C91818BF96
:1013A00000F8012DCB0728BF00F8012D704704E09D
:1013B00010F8013B6BB1491C521E52B10B7890F8EA
:1013C00000C09C45F4D002D24FF0FF30704701209E
:1013D00070470020704700002DE9F8430400002CFE
:1013E00001D10120D8E12078C0075FD5DFF8AC0338
:1013F000016811F00C01042909D0006810F00C00FC
:1014000008280ED1DFF898030068400209D5DFF8FC
:1014100094030068800349D56068002846D1012004
:10142000BAE16068B0F5803F06D1DFF87803016863
:1014300051F48031016018E06068B0F5A02F0AD146
:10144000DFF86003016851F480210160016851F404
:101450008031016009E0DFF84C03016831F480312C
:101460000160016831F480210160606800280ED0BD
:10147000FFF7F8FA0500DFF82C030068800315D4A5
:10148000FFF7F0FA401B6528F5D3032084E1FFF74E
:10149000E9FA0500DFF80C030068800306D5FFF7C2
:1014A000E1FA401B6528F5D3032075E12078800719
:1014B0004CD5DFF8E802016811F00C0F08D0006885
:1014C00010F00C00082814D1B5480068400210D470
:1014D000B4480168890704D5E168012901D00120D9
:1014E0005AE1016831F0F801226951EAC201016054
:1014F0002CE0E068002818D00120AB490860FFF715
:10150000B1FA0500A7480168890706D4FFF7AAFACF
:10151000401B0328F6D303203EE1016831F0F801B7
:10152000226951EAC201016010E000209E49086072
:10153000FFF798FA05009B480068800706D5FFF77B
:1015400091FA401B0328F6D3032025E120780007F9
:1015500024D56069002810D0012094490860FFF765
:1015600081FA050092480068800717D4FFF77AFADD
:10157000401B0328F6D303200EE100208B490860AE
:10158000FFF770FA05008A480068800706D5FFF764
:1015900069FA401B0328F6D30320FDE020784007BA
:1015A0007CD50027DFF80C82D8F80000C0000FD4EB
:1015B00000200090D8F8000050F08050C8F80000DB
:1015C000D8F8000010F0805000900098012007002B
:1015D000DFF8E491D9F80000C00513D4D9F8000071
:1015E00050F48070C9F80000FFF73CFA0500D9F804
:1015F0000000C00506D4FFF735FA401B0328F6D3D8
:101600000320C9E0A068012805D16C48016851F0A9
:101610000101016015E0A068052809D1674801684B
:1016200051F004010160016851F00101016008E01E
:1016300062480168490849000160016831F004010D
:101640000160A06800280FD0FFF70CFA05005B4886
:101650000068800718D4FFF705FA401B41F2893172
:101660008842F4D3032097E0FFF7FCF905005348C4
:101670000068800708D5FFF7F5F9401B41F2893172
:101680008842F4D3032087E03800C0B2012805D196
:10169000D8F8000030F08050C8F80000A069002899
:1016A00079D03E48006810F00C00082847D0A069A7
:1016B000022833D1424F00203860FFF7D3F980462B
:1016C000DFF8E090D9F80000800107D5FFF7CAF9EC
:1016D000B0EB08000328F3D303205DE0E169206A42
:1016E0000143606A51EA8011A06A4008401E51EA35
:1016F0000041E06A51EA0061294801600120386038
:10170000FFF7B0F90500D9F80000800143D4FFF7D6
:10171000A9F9401B0328F6D303203DE00020284907
:101720000860FFF79FF905001E480068800132D568
:10173000FFF798F9401B0328F6D303202CE0A0699B
:10174000012801D1012027E0154800680600A069A2
:1017500001281ED016F48000E169884219D116F0E4
:101760003F00216A884214D147F6C0703040616A58
:10177000B0EB811F0DD116F44030A16A4908491E13
:10178000B0EB014F05D116F07060E16AB0EB016F6C
:1017900001D0012000E00020BDE8F28308380240BB
:1017A000043802400038024000004742800E4742A1
:1017B00074380240403802400070004070380240E7
:1017C000600047422DE9F04104000D00002C01D1DA
:1017D000012095E04B4F386810F00700A84207D26F
:1017E0003D70386810F00700A84201D0012087E062
:1017F0002078800716D52078400704D54248016834
:1018000051F4E05101602078000704D53E4801689A
:1018100051F4604101603C490A6832F0F002A0686E
:1018200002430A602078C00738D56068012805D1D6
:1018300036480068800313D4012061E06068022804
:1018400002D06068032805D130480068800107D4C1
:10185000012055E02D480068800701D401204FE0A9
:10186000DFF8A480D8F80010890889006068014377
:10187000C8F80010FFF7F6F80600D8F8000010F0DE
:101880000C006168B0EB810F08D0FFF7EBF8801B0C
:1018900041F289318842F0D3032031E0386810F0FA
:1018A0000700854207D23D70386810F00700A84253
:1018B00001D0012024E02078400706D512490A68AB
:1018C00032F4E052E06802430A602078000707D54E
:1018D0000D48016831F46041226951EAC20101609A
:1018E00000F020F90A49084A1268C2F30312895C21
:1018F000C840084908600848006800F0A3F80020C4
:10190000BDE8F081003C0240083802400038024047
:10191000441F0008040000200000002010B410F054
:101920000703DFF8044122684FF6FF010A4052EA3C
:101930000322DFF8F8100A43226010BC7047DFF87A
:10194000E8000068C0F30220704710B4020052B2F1
:10195000002A05D40A01364B040064B21A5508E087
:101960000A01344B040064B214F00F04234403F85A
:10197000042C10BC704770B4030013F00704D4F1BA
:101980000700052801D3042001E0D4F10700251D3C
:10199000072D01D2002500E0E51E012616FA00F011
:1019A000401E0140A94016FA05F56D1E2A4011435C
:1019B000080070BC704710B50400601EB0F1807F55
:1019C00001D301200EE0601E1B4908600F215FF06B
:1019D000FF30FFF7BAFF00201849086007201849B8
:1019E0000860002010BD10B504002000FFF796FF2E
:1019F00010BD2DE9F04104000D0016000027FFF78F
:101A00009EFF8046320029004046FFF7B4FF0100E8
:101A1000200040B2FFF799FFBDE8F08110B5040047
:101A20002000FFF7C8FF10BD0CED00E00000FA0534
:101A300000E400E018ED00E014E000E018E000E051
:101A400010E000E010B504004FF47A700D490978F9
:101A5000B0FBF1F00C490968B1FBF0F0FFF7DEFFD5
:101A6000002801D001200CE0102C09D20022210016
:101A70005FF0FF30FFF7BDFF04480460002000E086
:101A8000012010BD080000200400002000000020FC
:101A900081B0002000900C48016851F48041016041
:101AA000006810F4804000900098002000900748E3
:101AB000016851F080510160006810F08050009082
:101AC000009801B0704700BF4438024040380240DF
:101AD00070B504000D0016000D48844207D14FF484
:101AE0007A73320092B229000A48FEF7B4FB70BD47
:101AF00070B504000D0016000548844207D14FF46C
:101B00007A73320092B229000248FEF77FFC70BD62
:101B1000003001400C00002010B504002000FFF749
:101B200051F810BD2DE9F0410024002500260027C2
:101B30001F48006810F00C00002804D0042804D0CE
:101B4000082804D031E01B4830E01B482EE0DFF8C5
:101B50006C80D8F8000010F03F000400D8F80000B6
:101B600040020CD5D8F80000C0F388101249A1FB40
:101B700000012200002300F023F805000BE0D8F854
:101B80000000C0F388100B49A1FB000122000023D4
:101B900000F016F80500D8F80000C0F30140401C22
:101BA00040000600B5FBF6F000E00248BDE8F08119
:101BB000083802400024F40000127A000438024081
:101BC000BBBBE1B1B2F5803F80F07E80022A1ED916
:101BD0008C46B1FBF2F102FB11C31B0443EA104334
:101BE000B3FBF2FC02FB1C3380B240EA0343B3FBBD
:101BF000F2F002FB103240EA0C4000237047022A48
:101C000005D98446B0FBF2F002FB10C270474AB11E
:101C100005D100F0010249085FEA30007047002258
:101C20000023704700F0E4B80B0002000021002000
:101C30007047904271EB030CF6D3B3F5803F2FD27F
:101C4000F0B5B3FA83F7B1FA81F4A7F10F0E3D1B9B
:101C50005340CEF1200602FA0EF2F3415340B5F1A3
:101C60000F0746D80F3C2C444140C4F12006A04049
:101C7000F1414140B1FBF3F603FB1611A2FB06450F
:101C8000001BA94102D2761E8018594180EA010248
:101C900021FA0EF362FA0EF200215A403046F0BDEE
:101CA00030B4B1FBF3FC03FB1C11A2FB0C45001B81
:101CB000A94103D2ACF1010C8018594130BC024655
:101CC0000B46604600217047B2F1807F65D3F0B5C6
:101CD000B2FA82F7B1FA81F4C7F10F063D1B22FA7E
:101CE00006F307F1110EF24120355A40B5F10F0706
:101CF000B8D94140C4F12006A040F1414140B1FBB8
:101D0000F3FC03FB1C11A2FB0C45001BA94103D2F1
:101D1000BCF1010C801859410F2F12D30F3FC9039A
:101D200041EA5041B1FBF3F603FB1611A2FB064555
:101D3000D4EBC030A94102D2761E8018594146EA40
:101D4000CC3C07B34140C7F12006B840F1414140C7
:101D5000B1FBF3F603FB1611A2FB0645001BA941DC
:101D600002D2761E8018594180EA010221FA0EF350
:101D7000C7F1200462FA0EF20CFA07F05A402CFA6E
:101D800004F13043F0BD80EA010221FA0EF3002194
:101D900062FA0EF260465A40F0BD8C46B1FBF2F199
:101DA00002FB11C31B0243EA1063B3FBF2FC02FB0C
:101DB0001C331B024CEA002043EA1063B3FBF2FC25
:101DC00002FB1C331B024CEA002043EA1063B3FB06
:101DD000F2FC02FB1C331B024CEA002043EA1063B6
:101DE000B3FBF2FC02FB1C324CEA002000237047DC
:101DF000704730B4002512E050F8042BD30744BFDD
:101E00004A44521E091F042942F8045BFAD21346C1
:101E10008C0744BF15809B1CC90748BF1D7050F834
:101E2000041B0029E8D130BC7047000010B50749F9
:101E300079441831064C7C44163404E00A68081DC5
:101E4000114488470146A142F8D110BD2C00000082
:101E50004C0000004EF68851CEF20001086840F4B4
:101E600070000860BFF34F8FBFF36F8F4FF00170AA
:101E7000E1EE100A704700007BFFFFFF88000000C2
:101E80000C0000200000000097F4FFFF0C00000091
:101E9000E4000000000000200000000000F00DF849
:101EA000002801D0FFF7C2FFAFF300800020AFF39E
:101EB0000080FEF7DDFD00F002F80120704700F021
:101EC00001B800000746384600F002F8FBE70000C2
:101ED00080B5AFF30080024A11001820ABBEFBE7CB
:101EE000260002000548014603B4684680F30988CD
:101EF000AFF30080FFF7AEFFFFF7D0FFA5EDF5FED3
:101F000003480168034A127889180160704700BFCE
:101F10009000002008000020FEE7FEE7FEE7FEE755
:101F2000FEE770477047704780B5FFF7E9FF01BDD6
:101F300001020304050607080900414243444546DF
:101F40004748494A00000000000000000102030465
:101F5000060708090148804701480047651F000837
:101F6000E51E00080248016851F4700101607047E5
:101F700088ED00E0100000000024F40001000000E3
:101F8000FFF7FEBFFFF7FEBFFFF7FEBFFFF7FEBF85
:101F9000FFF7FEBFFFF7FEBFFFF7FEBFFFF7FEBF75
:101FA000FFF7FEBFFFF7FEBFFFF7FEBFFFF7FEBF65
:101FB000FFF7FEBFFFF7FEBFFFF7FEBFFFF7FEBF55
:101FC000FFF7FEBFFFF7FEBFFFF7FEBFFFF7FEBF45
:101FD000FFF7FEBFFFF7FEBFFFF7FEBFFFF7FEBF35
:101FE000FFF7FEBFFFF7FEBFFFF7FEBFFFF7FEBF25
:101FF000FFF7FEBFFFF7FEBFFFF7FEBFFFF7FEBF15
:10200000FFF7FEBFFFF7FEBFFFF7FEBFFFF7FEBF04
:10201000FFF7FEBFFFF7FEBFFFF7FEBFFFF7FEBFF4
:10202000FFF7FEBFFFF7FEBFFFF7FEBFFFF7FEBFE4
:10203000FFF7FEBFFFF7FEBFFFF7FEBFFFF7FEBFD4
:10204000FFF7FEBFFFF7FEBFFFF7FEBFFFF7FEBFC4
:10205000FFF7FEBFFFF7FEBFFFF7FEBFFFF7FEBFB4
:10206000FFF7FEBFFFF7FEBFFFF7FEBFFFF7FEBFA4
:10207000FFF7FEBFFFF7FEBFFFF7FEBFFFF7FEBF94
:10208000FFF7FEBFFFF7FEBFFFF7FEBFFFF7FEBF84
:10209000FFF7FEBFFFF7FEBFFFF7FEBFFFF7FEBF74
:1020A000FFF7FEBFFFF7FEBFFFF7FEBFFFF7FEBF64
:1020B000FFF7FEBFFFF7FEBFFFF7FEBFFFF7FEBF54
:0420C000FFF7FEBF69
:0400000508001EE5EC
:00000001FF
