:020000040800F2
:10000000F0050020D5250008B1250008B32500081B
:10001000B5250008B7250008B92500080000000034
:10002000000000000000000000000000BB250008E8
:10003000BD25000800000000BF250008C1250008FC
:10004000FD250008012600080526000809260008ED
:100050000D2600081126000815260008192600089C
:100060001D2600082126000825260008292600084C
:100070002D260008312600083526000839260008FC
:100080003D26000841260008452600080000000023
:1000900000000000000000000000000049260008E9
:1000A0004D2600085126000855260008592600084C
:1000B0005D260008612600086526000869260008FC
:1000C0006D260008712600087526000879260008AC
:1000D0007D26000881260008852600080000000013
:1000E000892600088D2600089126000800000000DF
:1000F000000000000000000000000000952600083D
:1001000000000000992600089D260008A12600088E
:1001100000000000000000000000000000000000DF
:10012000A5260008A9260008AD260008B12600086B
:10013000B5260008000000000000000000000000DC
:10014000000000000000000000000000B9260008C8
:10015000BD260008C1260008C5260008C9260008DB
:10016000CD260008D1260008000000000000000095
:10017000000000000000000000000000000000007F
:1001800000000000D526000800000000000000006C
:10019000D92600082DE9F04100280E46154698465C
:1001A00028D000F589746178002923D1217800F5E1
:1001B0008A7721B101206070B968D9B10AE026B10F
:1001C000290018BF5FEA080107D103206070B968F1
:1001D00081B10120BDE8F04108474FF4927100F071
:1001E0009FFB3E607D60C7F808800121DFF86C0648
:1001F000F8602170BDE8F08170B5040000F08580E2
:1002000004F589756878002840F07F80287804F527
:100210008A76012818BF012161D104212970B268B2
:100220009047F16864208847687898B9AB2161727B
:10023000B168884700F054FB38B105206870B16898
:1002400000294BD00120884704E000F0C8FAF1688B
:10025000012088476878002840D1662000F0BBFA6A
:1002600000F03EFB38B900F0BAFA992000F0B3FA7A
:1002700000F036FB38B105206870B16800292DD038
:100280000120884704E000F0AAFAF16801208847BD
:100290006878002822D1902000F09DFA00F020FB21
:1002A00080B90021A072E172207364227368032177
:1002B00004F10A00984728B93368642202212046D5
:1002C000984718B105216970B06838B100F087FA15
:1002D0006878002804BF2078EF2804D002216970D4
:1002E000B16891B17EE2607813380428F6D8DFE86F
:1002F00000F0040D10141700F0E74FF48051616016
:10030000F1680A2088470220287070BD4FF4005120
:10031000F5E74FF480406060F2E74FF40041EEE70C
:100320004FF48030F7E72DE9F84304000D4691467D
:100330001E4675D004F58877F878002870D1B87813
:10034000022801D0012130E00521B970002D71D0C3
:100350005FEA090008BF03204ED0DDF820805FEA85
:10036000080118BF801CE08140F20111E089884239
:1003700002DB0322FA7040E0300601D0042114E0D1
:100380006068401E0002B04238BF042034D35FEAE8
:10039000080004D04946284600F0A8FA38802046D4
:1003A00000F082FAF87810B10521F97025E00220FA
:1003B00060720020F9688847BB6800F092FAD0B9F3
:1003C000300C310AA072E17226736422BB680321EB
:1003D00004F10A00984770B9BB6864224946284670
:1003E000984740B9B8F1000F0DD0BB6864220221D4
:1003F0003846984738B10520F870F96881B1BDE8F2
:10040000F44301200847099DF968012088472DB170
:10041000022D07D00ED23969032088470220B87018
:10042000BDE8F1830321204600F0E0F90228F5D071
:100430000620E1E70320DFE72DE9F04705001F462E
:1004400079D005F58874E078002874D1A078022866
:1004500001D001211CE088460621A170B8F1000FEF
:1004600008BF03205BD05FEA020908BF032056D013
:10047000089E484606B1801CE88140F20111E889D7
:10048000884202DB0322E2704AE0380602D00421EF
:10049000E17045E06868401E0002B84238BF0420A1
:1004A0003DD3DDF824A0BAF1000F14BF0B200320C8
:1004B00068720020E1688847A36800F023F9C8B992
:1004C000380C390AA872E9722F736422A3680321D9
:1004D00005F10A00984768B9BAF1000F03D0A36884
:1004E00000F010F930B9E9896368642205F1100061
:1004F000984708B1052012E0E1680120884796B1CD
:10050000494605F1100000F0F1F92080022205F1C2
:1005100010002146484400F01BFA20B10720E0708B
:10052000E16841B1F3E04A4605F11001404600F0B0
:100530001FFA0220A070BDE8F08700002DE9F04707
:10054000050048D005F589767078002843D13078C9
:10055000022805F58C7701D0012120E09246072280
:10056000032932704FEA1A284FEA1A491C4600F252
:10057000B180DFE801F0023D67915FEA0A5001D0E7
:1005800004210CE068680002A0F58050504538BF97
:10059000042010D300F0A0F8707810B1052171701C
:1005A0000AE0202000F09DF800F0ABF810B900F050
:1005B0009CF820B105207070796861B1A7E000F067
:1005C0008DF834B1022C08D010D24FF4C870B9683D
:1005D000884702203070BDE8F0874FF4C871284684
:1005E00000F004F90228F4D00620E4E70320E2E753
:1005F0005FEA4A4001D00421D1E768680002A0F513
:100600000040504538BF0420D5D300F065F870781D
:100610000028C3D1522000F064F800F072F80028DE
:10062000C8D100F062F80028C4D100F057F8002CBF
:10063000CFD0022C03D0D9D24FF4C860C7E74FF413
:10064000C861CCE75FEA0A4001D00421A7E76868E7
:10065000834901EB0021514538BF0420ABD300F0A2
:100660003BF87078002899D1D82000F03AF800F0D3
:1006700048F800289ED100F038F800289AD100F000
:100680002DF8002CA5D0022C03D0AFD24FF4FA6085
:100690009DE74FF4FA61A2E7BAF1000F18BF0420FA
:1006A00089D100F019F8707808B1FFF777BFC7203B
:1006B00000F017F800F025F80028DFD100F00EF860
:1006C000002C46F2A81084D0022C01D08ED27EE7F6
:1006D000014684E708206EE72846E5E079680120B6
:1006E0000847687200207968084785F80A9085F8FD
:1006F0000B8085F80CA064223B68032105F10A00F9
:1007000018473B686422012105F109001847BDE83C
:10071000F047012008472DE9F04104000D469046BE
:1007200057D004F589777878002852D13878022894
:1007300004F58C7602D00121797042E005213970F0
:10074000290001D0042D01D3032039E05FEA08001D
:100750000CBF502006206072002071688847336803
:1007600000F0BFF8E8B9716801208847607A012D70
:1007700005D007D3032D04D038BF312002E001207B
:1007800000E011206072002071688847336800F033
:10079000A8F830B933686422012104F108009847B1
:1007A00008B105200CE0716801208847B8F1010FFD
:1007B0000DD10F21204600F019F8022807D006209D
:1007C0007870716829B1BDE8F04101200847022026
:1007D0003870BDE8F08160720020B1680847B168E8
:1007E00001200847BDE87040012008472DE9F0418D
:1007F0001C4E37680400884605D094F8130110B9E0
:10080000B8F1000F02D10820BDE8F081052004F501
:100810008A7560720020A96888476B6800F061F8EB
:1008200058B92B6800F020F838B9207AC1070BD5E9
:100830003068C01B8045F4D20BE0052184F8131109
:100840000120A9688847DEE7A968012088470220BF
:10085000DAE7A968012088470320D5E76524000866
:100860000000FFFF040000206422012104F10800C1
:10087000184738B504001EBF04F58975687800284C
:1008800011D000226A7064212046FFF7AFFF0228D2
:1008900008D006206870D4F81C1121B1BDE834409E
:1008A00001200847287031BD38B5040017D094F8EE
:1008B0001301A0B90621617204F58C756968884737
:1008C0002B6800F00EF828B1052084F81301696840
:1008D00029B100E069680120BDE83440084731BD16
:1008E00073686422012104F10900184730B50346FA
:1008F0004FF6FF70002400E0641CA2B28A420ED2C0
:100900009A5C504008224510C00751BFA8B285F438
:10091000204080F0010080B2521EF4D1ECE730BDDF
:10092000002200F031B80EE002684368024408304B
:100930005FEAC37C44BF4B445B1E52F804CB43F8D0
:1009400004CB091FF9D150F8041B0029ECD17047E2
:1009500003000020521E22BF13F8010B11F801CB37
:10096000B0EB0C00F6D0521C08BF104670470000D8
:100970004AB1000011F8013B521E00F8013B1CBFB8
:1009800011F8013BF8E7704700B500BF1300964629
:100990009446103928BFA0E80C50FAD85FEA417C91
:1009A00028BF0CC048BF40F8042BC90728BF20F857
:1009B000022B48BF00F8012B00BD000038B5040031
:1009C00001D1012032BD606A28B900F093F905D049
:1009D0000021E16102E00020206160610020A0624E
:1009E00004F15005687820B900212970204600F0F4
:1009F00073FB0220687000F08AFA6068A168E26800
:100A000000F4827001F404410843217C02F4006286
:100A10001043227D01F002010843A16902F00102A6
:100A20001043227F01F40071084394F8201002F073
:100A300038021043A26A01F080010843216802F4E1
:100A4000005210430860A06994F824102268000C3A
:100A500000F0040001F01001084350602068C169F3
:100A600021F40061C161002068600121697032BD1C
:100A70002DE9F843054605F15007002638780C4665
:100A800091469846012808BF022000F0908001207E
:100A9000387000F05BFB7978012918BF022640F01E
:100AA0008380002C18BFB9F1000F79D00321797031
:100AB00000237B602C63A5F83490A5F836900021C4
:100AC000A963AB87E9876B642964AB68B3F5004F12
:100AD00009D129680B6823F040030B6029680C6872
:100AE00044F480440C6029680B685C0603D40B68EE
:100AF00043F040030B604446E968B1F5006F696854
:100B000021D1002918BFB9F1010F00F0EFF980469B
:100B100004E0296B0A88C26000F0C9F9E88E002859
:100B200033D0286881688A07F3D400F00FFBA0EB6C
:100B30000800A04204D314F1010FEFD0032631E0E6
:100B4000002CEBD1FAE7002918BFB9F1010F00F032
:100B5000C1F9804606E0296B0A780273286B411CB4
:100B600000F0A7F9E88E80B1286881688A07F2D47E
:100B700000F0ECFAA0EB0800A04203D314F1010F3F
:100B8000F0D0DBE7002CEDD1D8E7424621462846DD
:100B900000F049FA08B12020786000F08FF908B120
:100BA000012601E001207870002139703046BDE84F
:100BB000F2832DE9F843044604F1500700267878C3
:100BC0000D4691469846012818BF022640F08D80B8
:100BD00000F090F804BFA068002809D104267E70B8
:100BE000CDF800804B462A46204600F087F87FE08B
:100BF0003878012808BF02207AD00120387000F030
:100C0000A5FA002D18BFB9F1000F6AD00421797040
:100C100000227A60A563A4F83C90A4F83E900021DD
:100C20002163A286E18622646164A268B2F5004F66
:100C300009D121680A6822F040020A6021680B6825
:100C400023F480430B6021680A68530601D400F046
:100C500059F90546E168002926D108E0007BA16B1F
:100C60000870A06B421CA263E08F411EE187E08FF9
:100C700068B320688168CA07F0D400F067FA401BA7
:100C8000404504D318F1010FF1D003262BE0B8F151
:100C9000000FECD1F9E7C068A16B0880A06B821C43
:100CA000A263E08F411EE187E08F80B120688168F8
:100CB000CA07F0D400F04AFA401B404503D318F1AC
:100CC000010FF1D0E1E7B8F1000FEDD1DDE72A46E1
:100CD0004146204600F081F908B12020786078680C
:100CE00008B1012601E001207870002139703046FA
:100CF000BDE8F2836068B0F5827F70472DE9FC475C
:100D0000054605F150070C46387891464FF001082A
:100D10004FF0000A012808BF022000F0C6801E46DE
:100D200087F8008000F012FA7B78012B0AD06968FE
:100D3000B1F5827F02BFA9680029042B02D04FF0D1
:100D4000020AAFE0002C18BFB9F1000F00D00EB9B5
:100D5000C246A7E07B78042B1CBF4FF0050C87F838
:100D600001C000237B60C5F83890EE87AE872C6306
:100D7000EE86AE862B646B6429680C68630603D428
:100D80000C6844F040040C60E9680A9CB1F5006FFF
:100D9000696838D1002918BF012E00F0A7F88146F4
:100DA000E88E002804BFE88F002868D0296888688A
:100DB00082070BD5E88E002818BFB8F1000F05D0C8
:100DC000286B0288CA60D04600F071F829688868EC
:100DD000C2070CD5E88F50B1C868A96B08804FF0E6
:100DE0000108A86B821CAA63E88F411EE98700F006
:100DF000ADF9A0EB0900A042D2D314F1010FCFD07E
:100E00004FF0030A4CE0002918BF012E00F062F8F1
:100E10008146E88E002804BFE88F00282FD029687B
:100E2000886882070DD5E88E002818BFB8F1000F3A
:100E300007D0286B02780A73D046286B411C00F05B
:100E400038F829688868C2070CD5E88F50B1C8689F
:100E5000A96B08704FF00108A86B421CAA63E88FC9
:100E6000411EE98700F072F9A0EB0900A04203D30C
:100E700014F1010FCDD0C3E7002CCAD1C0E74A4618
:100E80002146284600F0CFF820B120204FF0010A7B
:100E9000786007E000F012F810B14FF0010A01E0AD
:100EA00001207870002139705046BDE8F687286B24
:100EB000811C2963E88E411EE9867047A86838B90D
:100EC000002100912968CA68009289680091009AFF
:100ED0007868704709D1296B2B680A781A73296BD7
:100EE0004A1C2A63E98E4A1EEA86704709D1296B9B
:100EF0002B680A88DA60296B8A1C2A63E98E4A1EED
:100F0000EA8670470A6842F040020A60704720682B
:100F1000016821F04001016070472DE9F843089C09
:100F200005460E4690461F4600F010F9381A241860
:100F300000F00CF98146574801684901090D6143E9
:100F4000009105E0009800B900240098401E009030
:100F5000286881683140B1420CBF01200020404523
:100F600032D017F1010FF3D000F0F0F8A0EB090038
:100F7000A04201D2002CE5D12868416821F0E001AF
:100F800041606868B0F5827F08D1A868B0F5004F6D
:100F900018BFB0F5806F01D100F019F8A86AB0F55C
:100FA000005F09D12868016821F4005101602868B8
:100FB000026842F40052026005F1500001214170C4
:100FC00000220270032000E00020BDE8F2832868C0
:100FD000016821F04001016070471CB504460B46D2
:100FE000FFF788FE08D1A068B0F5004F18BFB0F534
:100FF000806F04D1FFF78BFFFFF77CFE07D1A0685D
:101000000092B0F5806F03D00022802102E00092B0
:10101000002201212046FFF780FF10B100F034F8D4
:1010200016BD002016BD7CB50D461646044600963A
:101030002B4601220221FFF770FFB8B91548164B65
:1010400001681822B1FBF2F2B2FBF3F34FF47A70AD
:10105000434300936168B1F5827F0AD100962B4625
:10106000002280212046FFF758FF58B100F00CF80D
:1010700076BD009830B10098401E009021688868C5
:101080000106F6D4002076BD606D40F0200060655A
:10109000032070470C00002040420F0080B5274815
:1010A000274901604FF4827238214260C1610023F8
:1010B0004FF400720A218360C3600361436182615F
:1010C000036243628362C162FFF778FC18B1BDE836
:1010D000014000F049B901BD10B586B004461422A4
:1010E000002101A800F07CFA21681548814223D133
:1010F000002214480092416941F4805141614169E4
:1011000001F48051009100990092E021036843F0BE
:10111000010303600222006800F0010000900098C3
:1011200009480191029200210391032205210591B2
:10113000049201A900F05EFA06B010BD340100204F
:101140000030014030380240000002400148406851
:10115000704700BF0000002010B5044600F03AFBC5
:101160002146BDE8104082B24FF47A73A24800F0E5
:101170007ABB38B5044600F02DFB9F4D82B24FF488
:101180007A732146284600F06EFB284601B0BDE880
:1011900030404FF47A73012295A100F064BB000047
:1011A0002DE9FC4100F092FC944C95489549206053
:1011B000616000F08BF800F0A3FCFFF76FFF00F018
:1011C000DFFC616899A0904D904E914F0FF200485E
:1011D0008847904B904A91492846FEF7DBFF6168AB
:1011E00096A088472846FFF707F861683046884789
:1011F00000202872002201212846FFF78CFA0022E5
:1012000002212846FFF787FA002203212846FFF72C
:1012100082FA61688FA08847012000210190009127
:1012200000F04DF895F8130110B1072809D03DE002
:1012300000F03FF800283BD1616806F12C00884798
:1012400036E0616806F15C008847616887A08847DE
:101250002846FFF70EFB61688AA088470223002218
:1012600003212846FFF76AF9D4F804108AA08847BA
:1012700002200022019000923B460D224146284662
:10128000FFF751F8D4F8041088A088470120002205
:101290000190009200F013F8656800F00AF810B9A8
:1012A00088A0A84704E000BF8CA0A84700F05CF825
:1012B000FEE70D22414604F10800FFF749BB3B461B
:1012C0000D2204F108012846FFF7B6B880B592B0A8
:1012D000302106A8FFF724FB142101A8FFF720FB0B
:1012E000002000904FF480334D48016841F0805158
:1012F00001600021006800F080500090009849488B
:1013000000910221026861F38F32026001220068BD
:1013100000F44040009006A80099069202214FF484
:1013200080020C910D921921A8220E910F92022198
:10133000042207931091119200F074FC08B100F0A0
:1013400013F8022102910F204FF4805101900022E6
:10135000049103920592022101A800F0F3FD08B167
:1013600000F002F813B000BD38B572B6DFF88C405B
:1013700060A021682C4D88476878401E072816D841
:10138000DFE800F00406080A0C0E10125EA00CE064
:1013900061A00AE064A008E066A006E015A004E0F1
:1013A00066A002E067A000E069A061688847226843
:1013B0006AA090472878082819D8DFE800F00507C8
:1013C000090B0D0F111315006AA00EE06BA00CE0C5
:1013D0006CA00AE06DA008E06EA006E070A004E03A
:1013E00072A002E074A000E076A061688847FEE782
:1013F0000A000000737069008C010020D4010020F5
:1014000059110008731100081000002088230008FB
:1014100000DA05004D240008352400081D240008CA
:10142000403802400070004022010020496E74657F
:101430007266616365206C696E6B00004465766955
:10144000636520696E697469616C697A6174696F3A
:101450006E000000466972737420617070726F6173
:10146000636820746F20726561640000436865637F
:101470006B73756D206572726F722072657365741F
:101480000000000057686F6C652063686970206514
:101490007261736500000000506167652070726FB3
:1014A0006772616D6D696E67000000005365636F60
:1014B0006E6420617070726F61636820746F207257
:1014C0006561640057726974696E672070726F633A
:1014D0006573732073756363657373005772697402
:1014E000696E672070726F63657373206661696CE3
:1014F00075726500416E206572726F72206F636352
:10150000757265643A200000737461747573206DA0
:101510006174636800000000696E697469616C69D8
:101520007A6174696F6E0000617267756D656E74C3
:1015300000000000616464726573730074696D6516
:101540006F757400636865636B73756D00000000F0
:10155000696E737472756374696F6E004C61737435
:101560002064657465637465642073746174757355
:101570003A2000006E6F206C696E6B0072657365B7
:10158000740000007265616479000000627573790F
:10159000000000006275737920696E6974000000B4
:1015A000627573792077726974650000627573796A
:1015B0002072656164000000627573792065726154
:1015C00073650000756E646566696E656400000091
:1015D00048656C6C6F20576F726C642100000000CE
:1015E00010B5044610460A460146204600F050FD5C
:1015F000204610BD2DE9F84F0D4600266D496E4A74
:101600000F23044601202F68B04000EA07088045F8
:1016100040F0C5804FEA460C032707FA0CF76FEA43
:10162000070E6F6807F00309B9F1010F1CBF07F03F
:101630000307022F12D1A768D5F80C900EEA07070E
:1016400009FA0CF949EA0707A760676827EA00006A
:101650006F68C7F30017B74038436060B0002F7958
:1016600007F00307032F21D0E768D5F808900EEAAA
:10167000070709FA0CF949EA0707E7602F7907F02D
:101680000307022F12D1F70804EB870700F01C09AB
:10169000D7F820A003FA09FB2AEA0B0AD5F810B004
:1016A0000BFA09F949EA0A09C7F8209027680EEAF7
:1016B000070E2F7907F0030707FA0CF747EA0E0C1D
:1016C000C4F800C06F6817F4403F68D04FF0000EB8
:1016D000CDF800E04FEA960C176847F48047176092
:1016E00000F00C00D2F800E0344F0EF4804ECDF83C
:1016F00000E0DDF800E057F82CE003FA00F72EEAEE
:10170000070E2F4FBC4208BF002713D02D4FBC42FD
:1017100008BF01270ED02C4FBC4208BF022709D0BA
:101720002A4FBC4208BF032704D0294FBC420CBF3C
:101730000427072707FA00F040EA0E00DFF87CE0F4
:101740004EF82C006FEA0800D1F808C06F6800EA74
:101750000C0CFF0248BF48EA0C0CC1F808C0D1F8D5
:101760000CC06F6800EA0C0CBF0248BF48EA0C0CC2
:10177000C1F80CC0D1F804C06F6800EA0C0CBF03BC
:1017800048BF48EA0C0CC1F804C0D1F800C06F682B
:1017900000EA0C00FF0348BF48EA00000860761C1E
:1017A0000F2E7FF62FAFBDE8F18F02B909048161DA
:1017B00070470000003C01404438024008380140B6
:1017C000000002400004024000080240000C0240F9
:1017D0000010024000F1010310F8011B11B110F8D4
:1017E000011BFBE7C01A704738B5040001D1012086
:1017F00032BD00F01BF808B900F01CF800F01FF82B
:1018000000F027F8FFE7416100F001F832BD2068E1
:10181000C16841F40051C1600020686020216970F6
:101820002020A870002161630020704704F140056A
:101830006878704700212970204600F0B8B924204C
:1018400068702068C16821F40051C160204600F032
:10185000D8B82068016921F490410161206841698C
:1018600021F02A0170472DE9FC4106460D4696F805
:101870004100202814461F4640D10DB1200001D15F
:1018800001203CE000207064212186F84110FFF720
:101890005DFCB4848046F48400F033F804BF306902
:1018A00000281ABF2C460025002412E000228021C7
:1018B000304600F040F8E0B93068002C12BF14F850
:1018C000011B35F8021BC1F308014160F08C411E79
:1018D000F1844346F08C00970028E7D10022402194
:1018E000304600F028F820B9202086F8410000207A
:1018F00005E0202086F84100032000E00220BDE83A
:10190000F681B068B0F5805F7047026802F10C01A3
:1019100051E8002F036803F10C047047016801F1DE
:10192000140252E8002F520801F11404520044E856
:101930000021002970472DE9FC41089C05460E4610
:1019400090461F46286801683140B1420CBF012013
:10195000002040452AD114F1010FF3D0FFF7F6FB28
:10196000C01B844200D314B90320BDE8F681296866
:10197000C8684207E6D5802E18BF402EE2D0084640
:1019800002681307DED5002000902A6813680093D0
:10199000496800910098284600F012F805F14000CF
:1019A00008214160002202700120DEE70020DCE710
:1019B000016801F10C0252E8002F01F10C0470479C
:1019C00010B5FFF7F5FF22F4907200F016F8F8D189
:1019D000FFF7A4FFFCD1016B012906D1FFF795FFAA
:1019E00022F0100200F009F8F8D1202180F842100E
:1019F0000022026310BD22F4807244E80021002915
:101A0000704770B5044622681169E06821F44051BE
:101A100001431161D3682748A168034020690B4343
:101A200061690343E0690B430343D3605169A069D3
:101A300021F44071014351611F498A421CBF1F4874
:101A4000824202D100F00CFB01E000F001FB626871
:101A50002568E4691921B4F5004FA1FB00016FF07E
:101A6000630612D1D30F520000F046FB00F028F8B5
:101A7000F60032366420B6FBF0F0420002F4F87251
:101A800002EB011200F0070010E0930F920000F04B
:101A900033FB00F015F8360132366420B6FBF0F067
:101AA00000F0F00202EB011200F00F008018A860B5
:101AB00070BD0000F369FFFF0010014000140140F9
:101AC0006421B0FBF1F106FB0106704780B50B48BD
:101AD000016841F400710160026842F480620260B2
:101AE000016841F480710160032000F096FB0F2033
:101AF00000F0DCFB00F0FAFB002002BD003C0240DD
:101B000010B586B01422002101A8FFF769FD00215D
:101B100019481A4C0091026842F0800202600022CB
:101B2000016801F08001009100990092036843F080
:101B300001030360016801F0010100910099009226
:101B40000122036843F0020303601021006800F0E3
:101B50000200009000982046FFF727FE1021019117
:101B600001220292002103910322049201A920463E
:101B7000FFF740FD06B010BD3038024000000240C3
:101B800080B52448244901604FF4165200230C21EB
:101B900042608360C360036141618361C361FFF799
:101BA00023FE18B1BDE80140FFF7DEBB01BD10B553
:101BB00086B004461422002101A8FFF711FD216818
:101BC0001548814224D1002214480092416941F015
:101BD00010014161416901F01001009100990092EA
:101BE0004FF4C061036843F0010303600222006800
:101BF00000F0010000900098094801910292002134
:101C00000391032207210591049201A9FFF7F2FC39
:101C100006B010BD8C010020001001403038024099
:101C2000000002402DE9F843040016D02078DFF8C8
:101C30000463C10713D5B06800F00C00042807D076
:101C4000B06800F00C0008283DD1706841023AD518
:101C50003068810303D56068002800F06581207832
:101C6000B54F810719D5B06810F00C0F07D0B068D8
:101C700000F00C0008285BD17068410258D430682D
:101C8000810703D5E068012840F04E813168206962
:101C900021F0F80141EAC00131602178080779D5C7
:101CA0006069A649002868D001220A60FFF74EFA51
:101CB0000546706F81076DD4FFF748FA401B022874
:101CC000F7D9032033E16068B0F5803F04D1306874
:101CD00040F48030306011E0B0F5A02F306806D1BC
:101CE00040F480203060316841F4803105E020F418
:101CF00080303060316821F480213160606858B1F3
:101D0000FFF724FA054630688103A8D4FFF71EFACE
:101D1000401B6528F7D3D4E7FFF718FA054630686B
:101D200081039CD5FFF712FA401B6528F7D3C8E75B
:101D3000E068A8B101213960FFF708FA054630686C
:101D4000810705D4FFF702FA401B0228F7D9B8E74C
:101D50003068216920F0F80040EAC10030609CE75B
:101D60003860FFF7F3F905463168880795D5FFF726
:101D7000EDF9401B0228F7D9A3E70860FFF7E6F961
:101D80000546706F810705D5FFF7E0F9401B022873
:101D9000F7D996E72078410760D5306C0025C1005F
:101DA0000BD4002000900125316C41F0805131644A
:101DB000306C00F0805000900098DFF88481D8F8F3
:101DC0000000C10513D4D8F8000040F48070C8F8B2
:101DD0000000FFF7BBF98146D8F80000C10506D422
:101DE000FFF7B4F9A0EB09000228F5D969E7A0686C
:101DF000012805D00528306F06D140F00400306777
:101E0000306F40F0010005E0400840003067306F5F
:101E100020F00400306741F28938A06860B1FFF714
:101E200095F98146306F810713D4FFF78FF9A0EB46
:101E300009004045F6D344E7FFF788F98146306F43
:101E4000810706D5FFF782F9A0EB09004045F6D3DC
:101E500037E71DB1306C20F080503064A069002855
:101E600064D0B16801F00C0108293AD002282AD1C7
:101E700000203866FFF76AF905463068810105D50C
:101E8000FFF764F9401B0228F7D91AE7E069216AD5
:101E9000626A0843A16A490840EA8210491E40EA82
:101EA0000140E16A40EA0160706001203866FFF796
:101EB0004DF904463068810138D4FFF747F9001B1B
:101EC0000228F7D9FDE600203866FFF73FF90446FF
:101ED000306881012AD5FFF739F9001B0228F7D9AC
:101EE000EFE6012820D07068E26900F48001914299
:101EF00002BF00F03F01226A914201BF47F6C07164
:101F00000140626AB1EB821F0ED1A26A00F4403137
:101F100001F580315208B1EB024F02BF00F0706052
:101F2000E16AB0EB016F01D0012000E00020BDE8C4
:101F3000F28300BF0038024000004742800E474253
:101F4000007000402DE9F04104000F4654D0494E86
:101F5000306800F00700B84202D200F073F84BD1AD
:101F60002068454D810712D5400703D5A96841F483
:101F7000E051A9602078010703D5A86840F46040CB
:101F8000A860A968A06821F0F0010143A960217848
:101F9000C80729D56068012802D129688A0305E0AD
:101FA000022818BF032803D129688A0103D423E03B
:101FB00029688A0720D5A968890840EA8100A860B5
:101FC000FFF7C4F88046A868616800F00C00B0EB29
:101FD000810F09D0FFF7BAF8A0EB080041F2893170
:101FE0008842F0D303202BE0306800F007008742DE
:101FF00004D200F027F801D0012021E02078410729
:1020000005D5AA68E06822F4E0520243AA6021786C
:10201000080706D5A968206921F4604141EAC0019A
:10202000A96000F07FF9AA681449154BC2F30312A6
:10203000895CC84018601348006800F037F9002038
:10204000BDE8F0813770316801F00701B94270478F
:102050000B480D4A006813680C49C3F3822206E05E
:102060000748094A006813680849C3F34232895C8B
:10207000C8407047003C0240003802403C25000840
:102080000C0000200800002008380240F425000859
:1020900062F30F2262F31F42401810F0030308D0CE
:1020A000C91A1FD3DB0748BF00F8012D28BF20F84D
:1020B000022D130030B414461546103928BF20E90C
:1020C0003C00FAD8490728BF20E90C0048BF40F877
:1020D000042D890028BF20F8022D48BF00F8012DEB
:1020E00030BC7047C91818BF00F8012DCB0728BFB6
:1020F00000F8012D70470000D3BBD9B1B2F5803F85
:102100005BD2022A1ED98C46B1FBF2F102FB11C34D
:102110001B0443EA1043B3FBF2FC02FB1C3380B206
:1021200040EA0343B3FBF2F002FB103240EA0C40FA
:1021300000237047022A05D98446B0FBF2F002FB67
:1021400010C270474AB105D100F0010249085FEAA8
:102150003000704700220023704700F013B90B00D5
:102160000200002100207047F7D3002200237047AF
:10217000904271EB030CF2D370B5B1FA81F4B3FA6B
:1021800083F52C1BA340C4F1200532FA05F6334336
:10219000A2405FF00046E64002E05B085FEA3202E0
:1021A000841A71EB030524BF204629467641F4D3F7
:1021B00002000B003000002170BD70B5B1FA81F44F
:1021C000B2FA82F5C4F120046419B4F12006DAD31E
:1021D000B2405FF00044F440002502E052085FEA9C
:1021E0003303C61A71EB020E24BF304671466441B8
:1021F0006D41F3D302000B002000290070BD0000E8
:102200000901020002D4234881547047224B02F096
:102210000F021A4402F8041C7047204B19684FF64D
:10222000FF020002114000F4E06008431C4908432B
:102230001860704770B5194B1C68C4F30223012461
:10224000C3F10705052D2EBF0F2504FA05F56D1EF8
:102250001E1D072E34BF0023DB1E2940994004FABF
:1022600003F3BDE870405B1E1A401143C8E700004D
:10227000401EB0F1807F01D30120704709490A4A0E
:1022800048600023F02010708B6007200860002059
:102290007047000000E400E018ED00E00CED00E005
:1022A0000000FA0510E000E023ED00E038B50D4D28
:1022B0000D4B2A7804464FF47A711868B1FBF2F29C
:1022C000B0FBF2F0FFF7D4FF50B9102C08D2002277
:1022D00021464FF0FF30FFF7ADFFAC60002032BD6C
:1022E000012032BD000000200C00002081B0002041
:1022F000009000220A48416841F4804141604168F1
:1023000001F48041009100990092036843F08053EA
:102310000360006800F080500090009801B07047A2
:102320004038024030B5144C606800F00C000428BE
:1023300002D0082802D01DE0104830BD2268206875
:102340000023410202F03F0204D525680B49C5F382
:10235000881003E020680A49C0F38810A1FB00013F
:10236000FFF7CAFE2168C1F30141491C4900B0FBD7
:10237000F1F030BD024830BD0438024040787D01A4
:102380000024F40070470000466F7263696E672096
:1023900073746174757320726567697374657273A1
:1023A00020746F2064656661756C74207374617449
:1023B000650000004461746120616C72656164793C
:1023C0002065786973742061742074617267657424
:1023D000207061676520626F756E646172696573F4
:1023E00000000000546172676574207061676520A9
:1023F00070726F6261626C7920636F6E7461696E76
:102400007320636F727275707465642064617461A7
:10241000206F7220657261736564000080B5134699
:1024200030B10A0004D001461348FEF7C2FB00B1E8
:10243000012002BD80B5134630B10A0004D0014628
:102440000D48FEF715FB00B1012002BD0B4B18B182
:10245000012806D1012200E0002210211846FFF7D2
:10246000A4B9704706490A68012898BF401C0B6848
:102470009B1A8342FBD370473401002000000240C6
:102480000400002030B4002512E050F8042BD307DC
:1024900044BF4A44521E091F042942F8045BFAD281
:1024A00013468C0744BF15809B1CC90748BF1D708D
:1024B00050F8041B0029E8D130BC704710B507491B
:1024C00079441831064C7C44163404E00A68081D2F
:1024D000114488470146A142F8D110BD2C000000EC
:1024E0004C0000004EF68851CEF20001086840F41E
:1024F00070000860BFF34F8FBFF36F8F4FF0017014
:10250000E1EE100A704700007DFFFFFFDC010000D4
:1025100010000020000000000FE4FFFF100000008A
:10252000C400000000000020000000000248016814
:1025300041F470010160704788ED00E00000000088
:1025400000000000010203040607080900F00DF86E
:10255000002801D0FFF7B2FFAFF300800020AFF3F7
:102560000080FEF71DFE00F002F80120704700F029
:1025700001B800000746384600F002F8FBE700000B
:1025800080B5AFF30080024A11001820ABBEFBE714
:10259000260002000548014603B4684680F3098816
:1025A000AFF30080FFF79EFFFFF7D0FFA5EDF5FE2C
:1025B000FEE7FEE7FEE7FEE7FEE77047704770477D
:1025C00000F000B80248416802788A1842607047FB
:1025D0000000002001488047014800472D250008E1
:1025E0009525000801000000000000001000000018
:1025F0000024F4000000000001020304FFF7FEBF06
:10260000FFF7FEBFFFF7FEBFFFF7FEBFFFF7FEBFFE
:10261000FFF7FEBFFFF7FEBFFFF7FEBFFFF7FEBFEE
:10262000FFF7FEBFFFF7FEBFFFF7FEBFFFF7FEBFDE
:10263000FFF7FEBFFFF7FEBFFFF7FEBFFFF7FEBFCE
:10264000FFF7FEBFFFF7FEBFFFF7FEBFFFF7FEBFBE
:10265000FFF7FEBFFFF7FEBFFFF7FEBFFFF7FEBFAE
:10266000FFF7FEBFFFF7FEBFFFF7FEBFFFF7FEBF9E
:10267000FFF7FEBFFFF7FEBFFFF7FEBFFFF7FEBF8E
:10268000FFF7FEBFFFF7FEBFFFF7FEBFFFF7FEBF7E
:10269000FFF7FEBFFFF7FEBFFFF7FEBFFFF7FEBF6E
:1026A000FFF7FEBFFFF7FEBFFFF7FEBFFFF7FEBF5E
:1026B000FFF7FEBFFFF7FEBFFFF7FEBFFFF7FEBF4E
:1026C000FFF7FEBFFFF7FEBFFFF7FEBFFFF7FEBF3E
:0C26D000FFF7FEBFFFF7FEBFFFF7FEBFE5
:040000050800259535
:00000001FF
