:020000041000EA
:1000000000B5324B212058609868022188439860DF
:10001000D860186158612E4B002199600221596106
:100020000121F02299502B49196001219960352056
:1000300000F044F80222904214D00621196600F024
:1000400034F8196E01211966002018661A6600F04E
:100050002CF8196E196E196E052000F02FF8012189
:100060000842F9D1002199601B49196000215960AB
:100070001A491B48016001219960EB211966A021F2
:10008000196600F012F800219960164914480160C1
:100090000121996001BC002800D000471248134993
:1000A000086003C880F30888084703B5996A0420EC
:1000B0000142FBD001200142F8D103BD02B5186610
:1000C0001866FFF7F2FF186E186E02BD00000240BE
:1000D000000000180000070000035F00212200005C
:1000E000F4000018222000A00001001008ED00E03C
:1000F00000000000000000000000000074B24E7A12
:1001000000200420F7010010C3010010C5010010F9
:10011000C1010010C1010010C1010010C101001097
:10012000C1010010C1010010C1010010C701001081
:10013000C1010010C1010010C9010010CB01001065
:10014000CD010010CD010010CD010010CD01001037
:10015000CD010010CD010010CD010010CD01001027
:10016000CD010010CD010010CD010010CD01001017
:10017000CD010010CD010010CD010010CD01001007
:10018000CD010010CD010010CD010010CD010010F7
:10019000CD010010CD010010CD010010CD010010E7
:1001A000CD010010CD010010CD010010CD010010D7
:1001B000CD010010CD010010CD010010CD010010C7
:1001C00000BE00BE00BE00BE00BE00BEEFF3058054
:1001D000103800BEF2EB887180AE0010A8AE00109F
:1001E0003402001090A31AE700201F49086006C8D7
:1001F00081F3088810471D48006800282FD10DA4FE
:100200000ECC002902D000F012F8F9E71849194A7B
:10021000002000E001C19142FCD1174988471749ED
:1002200088471749884700BEFDE701C901C29A42C5
:10023000FBD37047A8AE0010C0000020D4050020FA
:10024000BCB300100000042000000420BCB3001068
:10025000001004200010042000000000704709482E
:1002600005F04DFA0047000008ED00E0000000D066
:10027000D8050020E80A0020213C0010AD04001041
:10028000673D00105756000005005250DE65F468C7
:10029000BCB30010060052505422A29D7CA900104D
:1002A00006005250861C030288A900100600525016
:1002B000ABB36053A0A90010F8B5C0460648074983
:1002C000091A8B10C90FC91810B5491003D0044B77
:1002D000002B00D0984710BDD4050020D405002085
:1002E00000000000054B10B5002B03D00449054861
:1002F00000E000BFFFF7E2FF10BDC04600000000B5
:1003000074070020C097001080B588B004AFB860B3
:10031000F9607A603B6001F053FBBA68FB68B96929
:100320000291396801917968009101F0C5FF0300DD
:100330001800BD4604B080BD80B582B000AF7860C3
:10034000D0231B067A685A61C046BD4602B080BD04
:1003500080B582B000AF7860D0231B067A689A61BE
:10036000C046BD4602B080BD80B584B000AF7860A5
:100370000A00FB1C1A7001227B689A401300FB6084
:10038000FB1C1B78002B04D0FB681800FFF7D4FF80
:1003900003E0FB681800FFF7DBFFC046BD4604B072
:1003A00080BD80B582B000AF7860D0231B067A682C
:1003B0005A62C046BD4602B080BD80B582B000AF73
:1003C0007860D0231B067A689A62C046BD4602B0A8
:1003D00080BD80B584B000AF78600A00FB1C1A7045
:1003E00001227B689A401300FB60FB1C1B78002BEA
:1003F00004D0FB681800FFF7D4FF03E0FB68180087
:10040000FFF7DBFFC046BD4604B080BD80B582B0BB
:1004100000AF7860044B1B685A1C034B1A60012321
:100420001800BD4602B080BDBC09002080B500AFF9
:10043000192000F0D1F901211920FFF7CAFF01218D
:100440001920FFF791FFC046BD4680BD80B582B040
:1004500000AF78607B68104A1900100006F07EFF3C
:100460000121102000F082F90121132000F07EF913
:100470000121122000F07AF9112000F0ADF90121DC
:100480001120FFF771FF01211120FFF7A2FFC046E5
:10049000BD4602B080BDC04600C0034080B582B0FA
:1004A00000AFEFF3108372B67B60FEE780B588B0D3
:1004B00002AF06F0C4FBFFF7B9FF0D4B1800FFF7C2
:1004C000C5FF0C4AFA20800000213B000093002366
:1004D000FFF71AFF084B180007F026F8031E01D09B
:1004E000FFF7DCFF00211920FFF73EFFF2E7C046CF
:1004F000A08601000D0400106906001080B582B0CE
:1005000000AF7860D0231B067A685A61C046BD46AA
:1005100002B080BD80B582B000AF7860D0231B06EA
:100520007A689A61C046BD4602B080BD80B584B08D
:1005300000AF78600A00FB1C1A7001227B689A40A9
:100540001300FB60FB1C1B78002B04D0FB68180019
:10055000FFF7D4FF03E0FB681800FFF7DBFFC0469E
:10056000BD4604B080BD000080B584B000AFF86027
:100570007A600A23FB180A1C1A80FB68002B01D141
:1005800001230FE00A23FB181B88002B01D1012354
:1005900008E00A23FB181B88FA680448002109F0C8
:1005A000DFF800231800BD4604B080BD00C0034042
:1005B00080B584B000AFF8607A600A23FB180A1C8B
:1005C0001A80FB68002B01D101230FE00A23FB18DE
:1005D0001B88002B01D1012308E00A23FB181A888D
:1005E000FB680448190009F0DBF800231800BD4639
:1005F00004B080BD00C0034080B582B000AF0200EF
:10060000FB1D1A70FB1D1B78002B06D0012B09D196
:1006100001211120FFF78AFF05E000211120FFF7DB
:1006200085FF00E0C046C046BD4602B080BD000068
:1006300080B584B000AF78600A4B1B68FB607B68B4
:10064000012B02D87B6801337B60C046054B1A68DA
:10065000FB68D31A7A689A42F8D8C046C046BD46AD
:1006600004B080BDBC09002080B582B000AF7860C6
:100670007A68044B1100180006F0CAFAC046BD465D
:1006800002B080BDC097001080B582B000AF786026
:10069000C046BD4602B080BD80B582B000AF786074
:1006A000D0231B067A685A61C046BD4602B080BDA1
:1006B00080B582B000AF7860D0231B067A689A615B
:1006C000C046BD4602B080BD80B584B000AF786042
:1006D0000A00FB1C1A7001227B689A401300FB6021
:1006E000FB1C1B78002B04D0FB681800FFF7D4FF1D
:1006F00003E0FB681800FFF7DBFFC046BD4604B00F
:1007000080BD80B582B000AF7860D0231B067A68C8
:100710005A62C046BD4602B080BD80B582B000AF0F
:100720007860D0231B067A689A62C046BD4602B044
:1007300080BD80B584B000AF78600A00FB1C1A70E1
:1007400001227B689A401300FB60FB1C1B78002B86
:1007500004D0FB681800FFF7D4FF03E0FB68180023
:10076000FFF7DBFFC046BD4604B080BD80B588B052
:1007700000AF78600A00FB1C1A707B681800FFF756
:1007800083FF7B689B00124A94466344FB614023CD
:10079000BB61C0237B61FB691A68BB6953407A69FE
:1007A0001340FA693A61FB603B69802252011343AE
:1007B000FA681A60C046C0460649FB1C1A787B6876
:1007C000DB00CB1804331A60C046BD4608B080BDBC
:1007D00004C001400040014080B582B000AF7860A5
:1007E0007B6800211800FFF7A4FF7B680021180038
:1007F000FFF76AFF7B6805211800FFF7B7FFC046C7
:10080000BD4602B080BD000080B500AF044B1B6840
:10081000022213405A1E9341DBB21800BD4680BD30
:1008200000C0064080B586B000AF0B237B607B68BC
:100830000F4A944663449B007B61EFF3108372B6CA
:100840003B613B69FB607B69BB60C046BB681B6862
:100850005A425341DBB2002BF8D1BFF35F8FC04641
:10086000C046C046FB681800BD4606B080BDC04605
:100870004000003480B588B000AF78600B23FB6087
:10088000FB680E4A944663449B00FB617B68BB6136
:10089000FB697B61BFF35F8FC046C0467B69002266
:1008A0001A60C046BB693B613B6983F31088C04650
:1008B000C046C046BD4608B080BDC04640000034BA
:1008C00080B582B000AF786039603B68DB087A6839
:1008D000D3181B7819003B680722134001229A4065
:1008E00013000B405A1E9341DBB21800BD4602B004
:1008F00080BD80B586B000AFF860B9607A60FFF760
:1009000091FF03007B61BA68FB6811001800FFF7D4
:10091000D7FF031E05D0BA687B681100180003F0EA
:1009200051FABB68DB08FA68D3181978BB6807224C
:10093000134001229A401300DAB2BB68DB08F86862
:10094000C3180A43D2B21A707B691800FFF792FFEE
:10095000C046BD4606B080BD80B584B000AF002360
:10096000FB6012E0FB687B607B680C4A9446634442
:100970009B00BB60BFF35F8FC046C046BB680022D0
:100980001A60C046FB680133FB60FB681F2BE9D986
:10099000C046C046BD4604B080BDC04640000034DD
:1009A00080B582B000AF094B1B785A1CD1B2074A00
:1009B00011707B60054B1B78172B02D9034B10225B
:1009C0001A707B681800BD4602B080BD000500208B
:1009D00080B582B000AF7860C046BD4602B080BD31
:1009E00080B500AF024B9B681800BD4680BDC04675
:1009F00000ED00E080B582B000AF78607B68012236
:100A000013431800BD4602B080BD80B582B000AF70
:100A100078607B68012293431800BD4602B080BD18
:100A200080B58AB000AFF860B9607A60FFF7D8FF90
:100A30000200FB6810339B00D318BA681A60BFF33A
:100A40005F8FC04609237B617B690E4A94466344ED
:100A50009B007B627B683B627B6AFB61BFF35F8FBD
:100A6000C046C046FB6900221A60C0463B6ABB61B3
:100A7000BB6983F31088C046C046C046BD460AB075
:100A800080BDC0464000003480B582B000AF7860C1
:100A90000A00FB1C1A707B681800FFF799FF0122FF
:100AA0007B689A40FB1C1B781900100000F01CF8B2
:100AB000C046BD4602B080BD80B582B000AF786050
:100AC0007B681800FFF784FF01227B689A40054B82
:100AD0001B6813405A1E9341DBB21800BD4602B09A
:100AE00080BDC04600E100E080B582B000AF786014
:100AF0000A00FB1C1A70FB1C1B78002B06D0074B4E
:100B00007A681A60064B7A681A6002E0054B7A68C8
:100B10001A60C046BD4602B080BDC04680E200E01B
:100B200000E100E080E100E080B582B000AF7860D5
:100B30007A68054BD21A2F21002391425B41DBB228
:100B40001800BD4602B080BD0405002080B582B00B
:100B500000AF78607B681800FFF73AFFFFF740FFAF
:100B600002007B6810339B00D3181B681800BD4639
:100B700002B080BD80B58AB000AF786039607B6814
:100B80001800FFF725FF0923BB60BB681D4A944688
:100B900063449B007B627B6ABB61EFF3108372B698
:100BA0007B617B693B61BB69FB60C046FB681B687E
:100BB0005A425341DBB2002BF8D1BFF35F8FC046DE
:100BC000C046C0463B693B627B681800FFF7BEFF2A
:100BD0000300FB61FA690C4B9A4209D0FA693B6841
:100BE0009A4205D0094B0A4A0A48862103F0C4F804
:100BF0003A6A39687B681800FFF712FFC046BD46A5
:100C00000AB080BD40000034CD010010C497001030
:100C1000089A0010FC97001080B586B000AF78608D
:100C200039607B687B613B683B613A697B69D31AB9
:100C3000043BFB60FB680F4A934207DBFB680E4AEC
:100C4000934203DCFB680122134005D00B4B0C4A96
:100C50000C48A32103F090F8FB685B101BB25B0506
:100C60005B0D1BB2084A13431BB29BB21800BD4672
:100C700006B080BD00F8FFFFFE0700003C980010A2
:100C8000249A0010FC97001000E0FFFF80B586B0AA
:100C900000AF786039607B687B613B683B613A6993
:100CA0007B69D31A043B5B08FB60FB68DB0A05D059
:100CB0000E4B0F4A0F48AB2103F05EF8FB68DB0ACE
:100CC0009BB25B055B0D9BB20B4A13439AB27B68E8
:100CD0001A80FB689AB27B68023308490A4392B2D1
:100CE0001A80C046BD4606B080BDC0466C98001054
:100CF000309A0010FC97001000F0FFFF00F8FFFF93
:100D000080B584B000AF78607B681B88DB0A9BB23B
:100D10001C2B05D00D4B0E4A0E48B12103F02CF8C8
:100D20007B681B885B05FB60FB68002B02DA0A4AC4
:100D3000944663445B15FB60FB6802335B007A6892
:100D4000D3181800BD4604B080BDC0467C98001082
:100D5000489A0010FC970010FFFF1F0080B584B078
:100D600000AF78603960084BFB603968FA687B68CF
:100D70005B1A5B415A43120DFA607B60FB685BB201
:100D80001800BD4604B080BDAAAA000080B582B09C
:100D900000AF7860054A7B6811001800FFF7DEFF9E
:100DA00003001800BD4602B080BDC0460405002007
:100DB00090B593B000AF786039600923FB60FB68A1
:100DC000844A944663449B00BB63BB6BFB61EFF3B7
:100DD000108372B6BB61BB697B61FB693B61C04636
:100DE0003B691B685A425341DBB2002BF8D1BFF379
:100DF0005F8FC046C046C0467B697B63FFF7F0FD4E
:100E000002007B6810339B00D3181B687B647A6CEC
:100E1000714B9A4200D1D0E07A6C3B689A4200D183
:100E2000CBE07B6C1800FFF77FFE031E00D1C6E00D
:100E30003323FC187B681800FFF73EFE0300237085
:100E40007B6800211800FFF71FFEBFF35F8FC046CD
:100E5000EFF30583BB60BB68FB62FB6A002B0BD022
:100E60007B681033FA6A9A4206D05C4B5C4A3621A2
:100E7000FF315C4802F080FF00233B647B6C18006C
:100E8000FFF7C3FD0300BB62BB6AFB6311E0FB6BB2
:100E90003B64FB6B9B795BB2002B10DBFB6B9B799C
:100EA0005BB21A0013005B009B189B004E4A9B1814
:100EB000FB63FB6B9B683A689A42E8D100E0C0464E
:100EC000FB6B9B683A689A4267D127217B18FA6BC3
:100ED00092791A700A00BB181B787F2B38D8BB1880
:100EE00000229A5613005B009B189B003E4A9B18F9
:100EF0003B623B6A9A68FB6B9A603B6ADA79FB6BF0
:100F0000DA713B6A06229A56FB6B9A713B6A9B79AF
:100F10005BB2002B0EDBFB6B1C1D3B6A043318001D
:100F2000FFF7EEFE030019002000FFF775FE030037
:100F30001A0000E02D4AFB6B9A802D4B00229A5636
:100F40003B6A9A712A4B2722BA1812781A702BE042
:100F5000FB6A002B19D13B6C002B06D03B6CFF22A7
:100F60009A713B6C234A9A8001E01B4B7B64204BB7
:100F700000229A56FB6B9A71FB6B1800FFF706FF75
:100F800003001A001A4B1A700EE0FB6B04331A4A66
:100F900011001800FFF77AFE06E0184B104A6A218C
:100FA000FF31104802F0E8FE3323FB181A787B6803
:100FB00011001800FFF768FD01E0074B7B647A6BB6
:100FC000796C7B681800FFF72BFDC046BD4613B057
:100FD00090BDC04640000034CD010010589900106B
:100FE000589A0010FC9700100405002001BD000075
:100FF000E50A002001BDFFFF3E0500208C9900108E
:1010000090B595B000AF78607B681800FFF7F2FCF0
:1010100003007B647B6C1800FFF786FD031E06D17E
:101020005B4B5C4AC72149005B4802F0A5FEEFF329
:1010300005833B633B6B3B643B6C002B06D1574BFA
:10104000544A9221FF31544802F096FE0923FB6175
:10105000FB69534A944663449B00FB63FB6BFB6252
:10106000EFF3108372B6BB62BB6A7B62FB6A3B62C2
:10107000C0463B6A1B685A425341DBB2002BF8D191
:10108000BFF35F8FC046C046C0467B6ABB63372351
:10109000FC187B681800FFF779FE03002370FFF748
:1010A0009FFC02003B6C9B00D3181B687A6C9A4231
:1010B00008D1FFF795FC02003B6C9B00D318394A1E
:1010C0001A6041E04F23FB1800221A700023BB6412
:1010D0002BE03549BA6C13005B009B189B00CB18C2
:1010E00006331B785BB23722BA18127852B29A4292
:1010F00018D12D49BA6C13005B009B189B00CB18CC
:101100000633FF221A702849BA6C13005B009B1843
:101110009B00CB180433254A1A804F23FB18012269
:101120001A7005E0BB6C0133BB64BB6C032BD0D9D8
:101130004F23FB181B78002B06D11D4B154AD121DC
:101140004900154802F018FE1A4B00229A567B6897
:101150009A71184B3722BA1812781A70FB6BBB6160
:10116000BB6B7B61BB693B61BFF35F8FC046C04611
:101170003B6900221A60C0467B69FB60FB6883F311
:101180001088C046C046C046BD4615B090BDC0469A
:10119000949900106C9A0010FC970010BC990010F4
:1011A00040000034CD0100100405002001BDFFFF08
:1011B000C8990010E50A002080B584B000AF0B4B41
:1011C0007B600B4BFB600023BB6007E0FB681A1DD4
:1011D000FA607A681A60BB680133BB60BB68072B92
:1011E000F4D9C046C046BD4604B080BD8080808032
:1011F00000E400E080B584B000AF786039603B68FF
:10120000FB60FB68054A944663449B001A007B68B8
:101210001A60C046BD4604B080BDC04640000034E0
:1012200090B583B000AF78607C68FFF7B9FB03002E
:1012300019002000FFF7DEFF7B68FF221A71BFF361
:101240005F8FC046C046C046BD4603B090BD90B556
:1012500083B000AF78607C68FFF7A2FB0300190041
:101260002000FFF7C7FF7B68FF221A717B6800220E
:101270005A71BFF35F8FC046C046C046BD4603B03B
:1012800090BD80B582B000AF386079603A687B6805
:1012900010001900BD4602B080BD000080B584B0CA
:1012A00000AFF8603A607B603A687B68002B05DA33
:1012B000074B084A08483F2102F05EFDF9683A688A
:1012C0007B680A604B60C046BD4604B080BDC04626
:1012D0009C9B0010309F0010B89B0010B0B586B0EA
:1012E00000AF386079603A687B6810001900FFF73A
:1012F000C8FF02000B003A617B617B691C00002380
:101300001D002300FB600D4B5B6ABB60BA68FB6885
:101310009A420AD3094B9A6A3B699A4203D2BA6845
:10132000FB689A4201D0012300E000231A1C01232C
:101330001340DBB21800BD4606B0B0BD004005400A
:1013400080B584B000AF786001F0D4F802000B00E3
:10135000082179180800FFF7A1FF7968BA68FB68CF
:101360000A604B607868BD4604B080BD80B58AB025
:1013700000AFF8603A607B603A687B681000190043
:10138000FFF77FFF02000B00BA61FB61B869F969E2
:101390003A6B7B6B12184B413A627B623A6A7B6A0A
:1013A000002B04DA01225242094B3A627B623A6A0C
:1013B0007B6A102179180800FFF770FFF9683A6915
:1013C0007B690A604B60F868BD460AB080BDC046C4
:1013D000FFFFFF7F90B589B002AFF8603A607B6095
:1013E0001023FB181800FFF7ABFFFC683869796918
:1013F0003A687B680092019302000B002000FFF71F
:10140000B5FFF868BD4607B090BDB0B584B000AF79
:10141000B860F9603A607B603A687B681000190038
:10142000FFF72FFF04000D00BA68FB6810001900D9
:10143000FFF727FF02000B00A41A9D4122002B009A
:1014400010001900BD4604B0B0BD80B588B004AF2F
:10145000B860F9607A603B6000F0B2FABA68FB6885
:1014600018217918097802913968019179680091F9
:1014700000F090FD03001800BD4604B080BD80B5AB
:1014800082B000AF786000F09BFA02007B68190020
:10149000100000F049FE03001800BD4602B080BDF8
:1014A00080B582B000AF78600A00FB1C1A70FB1C8C
:1014B0001B78002B05D07B681B7BFA1C12789A42A4
:1014C00005D9094B094A0A48682102F055FC7B6896
:1014D0001968FB1C1A7813005B009B18033BCB18A0
:1014E0001800BD4602B080BD009C0010BC9E0010DC
:1014F0001C9C001080B584B000AF7860080011001B
:10150000FB1C021C1A70BB1C0A1C1A70FB1C1A78EC
:101510007B6811001800FFF7C3FF0300FB60FB1C92
:101520001B78002B05D11F4B1F4A20486F2102F06A
:1015300023FCBB1C1B78002B05D11D4B1A4A1B48F2
:10154000702102F019FCFA1CBB1C12781B789A421D
:1015500005D1184B144A1548712102F00DFCBB1C33
:101560001A787B6811001800FFF79AFF0300BB6030
:10157000BB68FA1C12789A70FB681B78002B04D1A8
:10158000FB68BA1C12781A7007E0FB681A78BB680F
:101590005A70FB68BA1C12781A70C046BD4604B077
:1015A00080BDC046689C0010A89E00101C9C0010C6
:1015B000749C0010809C001090B583B000AF7860E0
:1015C00008001100FB1C021C1A70BB1C0A1C1A70BC
:1015D000FB1C1B78002B02D1BB1C1B7827E0BB1C1B
:1015E0001B78002B02D1FB1C1B7820E07B685C6819
:1015F0007B689868BB1C1A78FB1C1B781900A047F5
:10160000031E0AD0BB1C1A78FB1C19787B681800D3
:10161000FFF770FFFB1C1B7809E0FB1C1A78BB1C52
:1016200019787B681800FFF765FFBB1C1B78180052
:10163000BD4603B090BD80B584B000AF78607B68D4
:101640009B7B002B01D1002326E00F217B187A68B9
:10165000927B1A707B181A787B6811001800FFF7CC
:101660001FFF0300BB60BB685A787B689A737B6876
:101670009B7B002B02D17B680022DA73BB680022BF
:101680009A70BB689A78BB685A70BB685A78BB6816
:101690001A700F23FB181B781800BD4604B080BDDC
:1016A00080B584B000AF78600A00FB1C1A70FB1C88
:1016B0001B78002B05D1164B164A1748A52102F0BE
:1016C0005BFBFB1C1A787B6811001800FFF7E8FE33
:1016D0000300FB60FB6800229A70FB689A78FB6845
:1016E0005A70FB685A78FB681A707B68597BFB1C40
:1016F0001A787B681800FFF75FFF03001A007B6809
:101700005A737B685B7B1800BD4604B080BDC04641
:10171000989C0010049F00101C9C001080B582B0A3
:1017200000AF78607B685B7B1800BD4602B080BD6F
:1017300080B582B000AF78600A00FB1C1A707B682D
:101740005B7BFA1C12789A420AD0FB1C1A787B68E1
:1017500011001800FFF7A4FE03009B78002B01D0B6
:10176000012300E000231A1C01231340DBB2180000
:10177000BD4602B080BD000080B582B000AF786089
:101780000A00FB1C1A70FB1C1B78002B08D0FB1CEA
:101790001A787B6811001800FFF7CAFF031E05D0F6
:1017A000174B184A1848F62102F0E6FA7B68DB7BF3
:1017B000002B0AD07B68DA7B7B6811001800FFF7EA
:1017C0006FFE0200FB1C1B7853707B689B7B002B19
:1017D0000DD17B68DB7B002B05D00C4B094A0A48F6
:1017E000FB2102F0C9FA7B68FA1C12789A737B68B5
:1017F000FA1C1278DA73C046BD4602B080BDC046FE
:101800009C9C0010489F00101C9C0010C09C001065
:1018100080B500AF034B5B685A1E9341DBB21800E2
:10182000BD4680BD5C05002080B582B000AF786009
:101830000A00FB1C1A70FB1C1B78002B06D07B686F
:101840001B681B7BFA1C12789A4205D9094B0A4A7D
:101850000A483C2102F090FA7B689A68FB1C1B78CE
:1018600007498C4663441B01D3181800BD4602B0DB
:1018700080BDC046D49C0010C89E0010F89C00108B
:10188000FFFFFF0F80B582B000AF78600A00FB1C3D
:101890001A70FB1C1B78002B06D07B681B681B7B17
:1018A000FA1C12789A4205D9074B084A0848412188
:1018B00002F062FA7B68DA68FB1C1B78013BD318E4
:1018C0001800BD4602B080BDD49C0010589F001087
:1018D000F89C0010B0B584B000AF7860080011002B
:1018E000FB1C021C1A70BB1C0A1C1A707B68FB6074
:1018F000FB1C1A78FB6811001800FFF795FF030026
:101900001A685B6810001900FFF7BBFC04000D00AB
:10191000BB1C1A78FB6811001800FFF785FF030055
:101920001A685B6810001900FFF7ABFC02000B009F
:101930000121AB4204D801D1A24201D80023191CD5
:10194000CBB21800BD4604B0B0BD80B582B000AFC8
:101950000200FB1D1A70BB1D0A1C1A70FB1D1B78B0
:101960001A02BB1D1B7813431800BD4602B080BD90
:1019700080B500AFFFF74CFF03001A00012353406E
:10198000DBB2002B0ED00B4B18680A4B0A4A102111
:1019900001F0AFF9032000F097FD064B032118007A
:1019A00000F0C4FA054B0A211800FFF723FCC046DB
:1019B000BD4680BD5C050020D5180010A0090020A0
:1019C00080B500AFFFF724FF031E05D1044B054A85
:1019D00005485E2102F0D0F9044B1800BD4680BDD9
:1019E000309D0010D49E0010F89C00105C05002073
:1019F000F0B589B000AFF8603A607B60382108200C
:101A00000B18DB191B78002B1ED0FB681A680B180B
:101A1000DB191B7819001000FFF78AFE03001A007B
:101A200001235340DBB2002B05D1384B384A3948EB
:101A3000672102F0A1F91F23FB1838220821521850
:101A4000D21912781A7008E0FB681B681F22BC18B4
:101A50001800FFF7F0FD030023701F257B191B788A
:101A6000002B4BD07B191A78FB6811001800FFF788
:101A7000DBFE0300BB61B9693A687B680A604B60B2
:101A8000BB69BA6B9A60BB69FA6BDA60FB681A686B
:101A90007B191B7819001000FFF702FE03001A00E3
:101AA0007B191B78934229D1FB681B7D19001726EF
:101AB000BC193A687B68080000F0FAFE0300237046
:101AC000BB191B78002B11D03C2308229B18DB1973
:101AD0001B7801225340DBB2002B07D0FB681A6849
:101AE0007B191B781900100001F082FABB6C002BE7
:101AF00004D0BB6C1722BA1812781A701F23FB1877
:101B00001B781800BD4609B0F0BDC046549D0010BA
:101B1000EC9E0010F89C0010F0B5AFB006AF7860F6
:101B2000D94B7A689200D3588C22BA1813601023CC
:101B3000FB181800FFF704FC00239822BA18136062
:101B400000220023BA60FB6000239422BA181360BD
:101B50009F23FB1800221A708C23FB181B685B68FC
:101B6000FB66EFF3108372B6BB66BB6E7B66FB6EE3
:101B70003B66C0463B6E1B685A425341DBB2002BAA
:101B8000F8D1BFF35F8FC046C046C0467B6E882247
:101B9000BA1813608C26BB191B681B6887257C1933
:101BA0001800FFF7BBFD030023707B191B78002B87
:101BB00000D17DE07B191A78BB191B681100180051
:101BC000FFF732FE03008022B9180B60BB181B68B8
:101BD0001A685B6838697969FFF717FC02000B0027
:101BE000002B56DC01D1002A53D18C23FB181B6833
:101BF0001B687F257C190021180001F0D7F903002C
:101C000023707A198723FB1812781B789A4205D023
:101C10009E4B9F4A9F488E2102F0AEF880217B1890
:101C20001B681A685B68BA60FB600A00BB181B6817
:101C30009B68982178180360BB181B68DB689422A6
:101C4000BA1813607B181B68002B05D1924B904A81
:101C50009048922102F090F88723FB181A788C2480
:101C60003B191B6811001800FFF70CFE02009321BE
:101C70007B1812781A707F23FB181A787B181B7850
:101C800011001800FFF761FE02003B191B681A6182
:101C90000EE08023FB181B681A685B6879680800EF
:101CA00000F006FE031E03D09F23FB1801221A70CA
:101CB0008C243B191B685B68FB658823FB181B6839
:101CC000BB65FB6D7B65BFF35F8FC046C0467B6D18
:101CD00000221A60C046BB6D3B653B6D83F31088E4
:101CE000C046C04698257B191B68002B00D111E126
:101CF0008723FB181A789323FB181B781100180010
:101D0000FFF723FE9423FB181A687B191B68110048
:101D1000984702000B003A677B673B191B685B68BA
:101D2000FB64EFF3108372B6BB64BB6C7B64FB6C2B
:101D30003B64C0463B6C1B685A425341DBB2002BEC
:101D4000F8D1BFF35F8FC046C046C0467B6C882287
:101D5000BA1813607B6F002B46DA8C22BB181B6805
:101D60001B69002B40D0BB181B681C698723FB181C
:101D70001A789323FB181B7811001800FFF7E5FD74
:101D800003009C4205D0454B414A4248A12101F045
:101D9000F3FF3A6F7B6F00200021801A9941020007
:101DA0000B00100019001823FC18BA68FB6800909B
:101DB00001912000FFF7DAFABA69FB698C217918E2
:101DC000086800210491012103918721791809787D
:101DD000029194217918096801919821791809686C
:101DE0000091FFF705FE73E07B6F002B05DC7B6F36
:101DF000002B55D13B6F002B52D08C22BB181B6897
:101E00001B69002B4CD0BB181B681C698723FB186F
:101E10001A789323FB181B7811001800FFF795FD23
:101E200003009C4205D01D4B194A1A48A42101F019
:101E3000A3FF2023FB181800FFF782FA3A6F7B6F8D
:101E400028217C18386A796A0092019302000B00FD
:101E50002000FFF78BFABA6AFB6A8C2179180868B0
:101E600000210491012103918721791809780291B9
:101E700094217918096801919821791809680091CD
:101E8000FFF7B6FD24E0C0468C0700207C9D0010C3
:101E9000149F0010F89C0010949D0010A09D00104D
:101EA0008C243B191B681A6887257B191B7819003D
:101EB0001000FFF761FC7B191A783B191B681100B1
:101EC0001800FFF7DFFC03001A780132D2B21A7053
:101ED0008C217B181B6800221A617B181B685B68C9
:101EE000FB638823FB181B68BB63FB6B7B63BFF33F
:101EF0005F8FC046C0467B6B00221A60C046BB6B3A
:101F00003B633B6B83F31088C046C0469F23FB189E
:101F100001221A709F23FB181B78002B00D006E6C5
:101F2000C046C046BD4629B0F0BDC04680B584B0AD
:101F300000AF786039603B68180000F09BFD124AE2
:101F40003B681100180000F019FCFEF729FD0300A2
:101F5000FB60FB680D4A944663449B001A007B6853
:101F60005A603B68DAB27B681A75D0231B061B687F
:101F7000DAB27B685A75064B3A6892007968D1509C
:101F8000C046BD4604B080BD191B0010400000349F
:101F90008C070020B0B59EB006AF7861BA60FB60D8
:101FA0001F23FB1800221A705B23FB1800221A70F3
:101FB0007B695B687B64EFF3108372B63B643B6CB8
:101FC000FB637B6CBB63C046BB6B1B685A425341CF
:101FD000DBB2002BF8D1BFF35F8FC046C046C046CE
:101FE000FB6B7B6553257C19BA68FB6878691F21F8
:101FF000791804910021039100210291796F0191D8
:10200000396F0091FFF7F4FC030023707B191B78F4
:10201000002B0BD07B191A787B6911001800FFF791
:1020200031FC02005B23FB1812781A707B695B6835
:102030007B637B6D3B637B6BFB62BFF35F8FC04653
:10204000C046FB6A00221A60C0463B6BBB62BB6A9B
:1020500083F31088C046C0465323FB181B78002B1F
:1020600002D101235B425AE01F23FB181B78002B8F
:102070000BD15323FB181A785B23FB181B78110034
:102080001800FFF762FC030000E00023FB651F233C
:10209000FB181B78002B41D07823FB181B78002BF2
:1020A0003CD0796FFA6D3B6F1000984702000B002F
:1020B000BA64FB64BB6CFA6C134302D10023FB656A
:1020C0002CE0FB6C002B13DABA6CFB6C00200021B7
:1020D000801A994102000B00100019000823FC1817
:1020E000BA68FB68009001912000FFF73FF95BE7B9
:1020F0002023FB181800FFF723F9BA6CFB6C3C0097
:10210000386A796A0092019302000B002000FFF701
:102110002DF93A687B68BA60FB6045E7FB6D1800F3
:10212000BD4618B0B0BD0000F0B58FB000AF78600C
:1021300039603B68002B01D1002382E03723FB1874
:1021400000221A707B685B68BB62EFF3108372B683
:102150007B627B6A3B62BB6AFB61C046FB691B68B2
:102160005A425341DBB2002BF8D1BFF35F8FC04618
:10217000C046C0463B6A3B632F217B183A681A7001
:102180007B681A687B181B7819001000FFF7D0FADB
:10219000031E35D07B681B693A689A4206D12B4BE7
:1021A0002B4A2C21FF312B4801F0E6FD3B681A0A2F
:1021B0002E243B191A702F257B191A787B68110081
:1021C0001800FFF75FFB03001B783A1912789A4258
:1021D0001ED17B681A683726BC197B191B78190039
:1021E000100000F005FF03002370BB191B78002BC3
:1021F0000ED1194B164A99214900164801F0BCFD31
:102200007B681B693A689A4202D17B6800221A6196
:102210007B685B68BB613B6B7B61BB693B61BFF308
:102220005F8FC046C0463B6900221A60C0467B698A
:10223000FB60FB6883F31088C046C0463723FB1859
:102240001B781800BD460FB0F0BDC0460C9E0010B4
:102250006C9F0010F89C0010309E001080B584B078
:1022600000AF786039603B68FB60FB68DB687A68C8
:102270009A4206D00D4B0E4A5221FF310D4801F013
:102280007BFDFB681B69FA6810009847031E03D0AA
:10229000FB681A685B6804E0FB680022DA600022D1
:1022A000002310001900BD4604B080BD449E0010FC
:1022B000849F0010F89C001080B58AB004AFF860CD
:1022C0003A607B603B687A68134303D101220023A4
:1022D0003A607B60BB6AFA689A60BB6A3A6A1A61C4
:1022E000B96A3A687B680A604B60BB6A7A6A5A616D
:1022F0003A687B68002B05DA00200021801A99419A
:1023000002000B00102179180800FFF763F83A6902
:102310007B69F86801210291B96A0191074900912E
:10232000FFF738FE0200BB6ADA60BB6ADB68DB439A
:10233000DB0FDBB21800BD4606B080BD5D22001089
:1023400080B58CB000AF786039601C4B1B68BB61F6
:10235000EFF3108372B67B617B693B61BB69FB6005
:10236000C046FB681B685A425341DBB2002BF8D1D0
:10237000BFF35F8FC046C046C0463B69FB620F4B50
:102380001B68BB62FB6A7B62BB6A3B62BFF35F8F09
:10239000C046C0463B6A00221A60C0467B6AFB61A9
:1023A000FB6983F31088C046C04640BFC046002288
:1023B000002310001900BD460CB080BDA00900200C
:1023C00080B586B002AF38607960EFF30583BB60FB
:1023D000BB68002B08D0C0463A687B681000190023
:1023E000FEF77CFF030022E0134A38687968002377
:1023F00000930023FFF729F80300FB60FB68002B24
:1024000008DCC0463A687B6810001900FEF766FFDA
:1024100003000CE020BFC046FB681800FFF72FF850
:102420003A687B6810001900FEF758FF0300180097
:10243000BD4604B080BDC0464123001080B582B0C7
:1024400000AF386079603A687B6810001900BD46BB
:1024500002B080BD80B584B000AFF8603A607B60A8
:102460003A687B68002B05DA074B084A08483F2189
:1024700001F082FCF9683A687B680A604B60C046EC
:10248000BD4604B080BDC046A09F0010A4A00010AF
:10249000BC9F001080B582B000AF7860C046BD46DA
:1024A00002B080BD80B582B000AF78607B681F222B
:1024B0001A40044B012191400A001A60C046BD46F3
:1024C00002B080BD80E200E080B582B000AF7860ED
:1024D0007B681800FFF7DEFF044A7968044B180098
:1024E000FEF707FAC046BD4602B080BD04A000104A
:1024F000E40A0020F0B587B000AF154E766A7E6121
:10250000134EB66A3E61124E766AFE607E69B4462C
:10251000FE68B44502D0FE687E61F1E7C0467E6980
:102520003E6000267E603E683300002632003E6931
:102530003000002631001600064334000B431D0016
:1025400022002B0010001900BD4607B0F0BDC046A8
:102550000040054080B588B000AF38607960FFF773
:10256000C9FF02000B003A617B61386979693A68FA
:102570007B6812184B41BA61FB617A69FB699A4228
:1025800007D87A69FB699A4208D13A69BB699A42CD
:1025900004D901225242D317BA61FB61BA69FB69BF
:1025A000082179180800FFF755FFBA68FB6810008A
:1025B000190000F005F8C046BD4608B080BD000017
:1025C000B0B588B000AF386079603A687B681000B9
:1025D0001900FFF733FF02000B003A617B617B6952
:1025E0001C0000231D002300FB600F4B5B6AFB6196
:1025F00003E00D4B5B6AFB61C046FA69FB689A42D7
:10260000F7D303E0084B5B6AFB61C046FA69FB68DD
:102610009A4204D1044B9A6A3B699A42F2D3C0466B
:10262000BD4608B0B0BDC0460040054080B582B090
:1026300000AF78607B681800BD4602B080BD000026
:1026400080B590B000AFEFF305833B613B69103B71
:10265000BB63BB6B1800FFF71DFF0023FB630A235E
:102660007B617B693F4A944663449B007B637B6B41
:102670007B62EFF3108372B63B623B6AFB617B6A5D
:10268000BB61C046BB691B685A425341DBB2002B99
:10269000F8D1BFF35F8FC046C046C046FB693B63BD
:1026A000314B0121BA6B91400A005A630122BB6B86
:1026B0009A4013002D4AFA62BB62FB6AC022920163
:1026C0001343BA6A1A60C046294B1B781A00BB6BC9
:1026D000DA4013000122134024D0234B5A6A254BC1
:1026E000B96B8900CB589A4212D3234BBA6B920034
:1026F000D358FB630122BB6B9A401300DBB2DB4370
:10270000DBB21B4A12781340DAB2194B1A7009E097
:10271000154A1549BB6B04339B009A58BB6B0433B5
:102720009B005A507B6BFB603B6BBB60FB687B6024
:10273000BFF35F8FC046C0467B6800221A60C04668
:10274000BB683B603B6883F31088C046C046FB6BA8
:10275000002B03D0BA6BFB6B10009847C046BD46F8
:1027600010B080BD40000034004005403C400540B2
:10277000E60A0020A4090020D806002080B590B009
:1027800000AF786039607B681800FFF783FE7B68D4
:102790001800FFF74BFF0300FB630A233B623B6A11
:1027A0003E4A944663449B00BB63BB6B3B63EFF3C1
:1027B000108372B6FB62FB6ABB623B6B7B62C046F6
:1027C0007B6A1B685A425341DBB2002BF8D1BFF33E
:1027D0005F8FC046C046C046BB6A7B633B68002B28
:1027E00026D0FB6B1800FEF7B1F902002C4B9A4281
:1027F00018D02B4AFB6B11001800FEF7BBF9FB6BDE
:1028000001211800FEF740F901227B689A4013006D
:10281000244AFA61BB61FB69802292011343BA69C1
:102820001A60C046204B7A6892003968D1501CE08B
:102830001D4B7A6892000021D15001227B689A409A
:102840001300DBB2DB43DBB2184A12781340DAB272
:10285000164B1A70124AFB6B11001800FEF7A8FA0B
:10286000FB6B00211800FEF70FF9BB6B7B617B6BE4
:102870003B617B69FB60BFF35F8FC046C046FB686E
:1028800000221A60C0463B69BB60BB6883F31088B6
:10289000C046C046C046BD4610B080BD40000034B2
:1028A0004126001038400540D8060020E60A0020E6
:1028B000B0B596B000AFF8603A607B60FFF71AFEE3
:1028C00002000B00BA64FB643A687B6810001900D0
:1028D000FFF7B4FD02000B003A647B647A6CFB6C7A
:1028E0009A420CD87A6CFB6C9A4203D13A6CBB6C5E
:1028F0009A4204D85723FB1801221A70A4E05723E8
:10290000FB1800221A700A233B623B6A524A944623
:1029100063449B00FB63FB6B3B63EFF3108372B676
:10292000FB62FB6ABB623B6B7B62C0467B6A1B68D7
:102930005A425341DBB2002BF8D1BFF35F8FC04640
:10294000C046C046BB6ABB633723FB18434A1278B4
:102950001A700122FB689A401300DAB23F4B1B78D1
:102960001343DAB23D4B1A703D4B0121FA68914096
:102970000A005A633A493A6CFB6804339B005A5088
:102980007B6C1C0000231D002100364BFA6892006E
:10299000D150334B1B6A0121FA6891400A00134061
:1029A0000DD12F4B1B6C0121FA6891400A00134096
:1029B00035D12D4B2D4A2E48C52101F0DDF9FFF709
:1029C00099FD02000B00796C994228D8796C9942E4
:1029D00002D1396C914222D85723FB1801221A7078
:1029E0001E4B1B7837243A1912789A4217D01C4B89
:1029F0000121FA6891400A001A62194B0121FA6814
:102A000091400A005A63FB681800FFF70FFE0300AD
:102A10001800FFF747FD114B3A1912781A70FB6B3B
:102A2000FB61BB6BBB61FB697B61BFF35F8FC04622
:102A3000C0467B6900221A60C046BB693B613B69A6
:102A400083F31088C046C0465723FB181B78180034
:102A5000BD4616B0B0BDC04640000034E60A0020B6
:102A600000400540A40900203CA00010BCA00010BC
:102A700060A0001080B58EB000AF78607B68180051
:102A8000FFF708FD0A23FB60FB68254A9446634470
:102A90009B007B637B6BFB61EFF3108372B6BB61C2
:102AA000BB697B61FB693B61C0463B691B685A425D
:102AB0005341DBB2002BF8D1BFF35F8FC046C04655
:102AC000C0467B693B63174B01217A6891400A003D
:102AD0001A6201227B689A401300DBB2DB43DBB24F
:102AE000114A12781340DAB20F4B1A707B6BFB62FB
:102AF0003B6BBB62FB6A7B62BFF35F8FC046C04625
:102B00007B6A00221A60C046BB6A3B623B6A83F361
:102B10001088C046C046C046BD460EB080BDC04607
:102B20004000003400400540E60A002080B582B035
:102B300000AF78600A00FB1C1A70FB1C1B78002B8E
:102B400005D07B681B7BFA1C12789A4205D9094B89
:102B5000094A0A48682101F00FF97B681968FB1CD3
:102B60001A7813005B009B18033BCB181800BD4676
:102B700002B080BDD8A0001074A20010F4A0001014
:102B800080B584B000AF786008001100FB1C021C07
:102B90001A70BB1C0A1C1A70FB1C1A787B68110087
:102BA0001800FFF7C3FF0300FB60FB1C1B78002B22
:102BB00005D11F4B1F4A20486F2101F0DDF8BB1CD7
:102BC0001B78002B05D11D4B1A4A1B48702101F0C0
:102BD000D3F8FA1CBB1C12781B789A4205D1184B0B
:102BE000144A1548712101F0C7F8BB1C1A787B689C
:102BF00011001800FFF79AFF0300BB60BB68FA1CC6
:102C000012789A70FB681B78002B04D1FB68BA1C01
:102C100012781A7007E0FB681A78BB685A70FB6874
:102C2000BA1C12781A70C046BD4604B080BDC046BA
:102C300040A1001060A20010F4A000104CA10010F0
:102C400058A1001090B583B000AF78600800110063
:102C5000FB1C021C1A70BB1C0A1C1A70FB1C1B7884
:102C6000002B02D1BB1C1B7827E0BB1C1B78002B60
:102C700002D1FB1C1B7820E07B685C687B6898684D
:102C8000BB1C1A78FB1C1B781900A047031E0AD036
:102C9000BB1C1A78FB1C19787B681800FFF770FFC3
:102CA000FB1C1B7809E0FB1C1A78BB1C19787B689D
:102CB0001800FFF765FFBB1C1B781800BD4603B06A
:102CC00090BD80B582B000AF78607B685B7B1800F8
:102CD000BD4602B080BD80B582B000AF78607B6831
:102CE0000121180000F062F903001800BD4602B08F
:102CF00080BD80B584B000AFF860B9607A603B6099
:102D0000BB68DAB2FB681A73FB687A685A60FB68C2
:102D10003A689A60FB68180000F004F8C046BD46A7
:102D200004B080BD90B585B000AF78607B680022AC
:102D30005A737B6801229A737B681A7B7B68DA730B
:102D40000F23FB1801221A7013E00F243B191A7885
:102D50007B6811001800FFF7E9FE020021007B18D4
:102D60001B780133DBB253707B181A787B18013261
:102D70001A707B681B7B0F22BA1812789A42E4D330
:102D80007B681A7B7B6811001800FFF7CFFE0300F9
:102D900000225A70C046BD4605B090BDF0B585B062
:102DA00000AF78600A00FB1C1A70FB1C1B78002B1C
:102DB0000AD0FB1C1A787B6811001800FFF7B6FEDA
:102DC00003005B78002B02D1FB1C1B784AE00F2626
:102DD000BB19FA1C12781A70FB1C1A787B68110058
:102DE0001800FFF7A3FE02000E257B1952781A7017
:102DF0007B191A787B6811001800FFF797FE020014
:102E00000D23FB1852781A707B191A787B68110011
:102E10001800FFF78BFE040000236370BB191A78BB
:102E20007B6811001800FFF781FE030062785A707A
:102E30007B191A78BB1919787B681800FFF702FF15
:102E400003001C000D23FB181A787B681100180082
:102E5000FFF7A4FF03001A007B6821001800FFF7AA
:102E6000F1FE03001800BD4605B0F0BD90B585B079
:102E700000AF786008001100FB1C021C1A70BB1C1C
:102E80000A1C1A70FB1C1B78002B05D1414B424ACF
:102E90004248382100F070FFFB1C1A787B68110053
:102EA0001800FFF743FE03005B78002B05D03C4B76
:102EB000394A3A483A2100F05FFFFB1C1A787B68D8
:102EC00011001800FFF732FE03009B78002B05D09D
:102ED000344B314A31483B2100F04EFFFB1C1A783D
:102EE0007B6811001800FFF721FE03001A780F23FA
:102EF000FC187B6811001800FFF750FF03002370D7
:102F0000BB1C1B78002B24D07B68DB7B002B0AD0FA
:102F10007B68DA7B7B6811001800FFF707FE020070
:102F2000FB1C1B7853707B689B7B002B0DD17B684F
:102F3000DB7B002B05D01C4B174A1848422100F0C0
:102F40001BFF7B68FA1C12789A737B68FA1C127854
:102F5000DA730F22BB181B78002B09D0BB181A7824
:102F60007B6811001800FFF7E1FD030000229A7052
:102F7000FB1C1A787B6811001800FFF7D7FD0300CF
:102F800000225A700F23FB181B781800BD4605B0AD
:102F900090BDC04670A1001080A2001078A1001062
:102FA000B0A10010D8A10010FCA10010B0B584B0F1
:102FB00000AF78600A00FB1C1A700F257C197B6833
:102FC0001800FFF77EFE03002370FB1C1A782C000C
:102FD0003B1919787B681800FFF748FF03001A00B7
:102FE0007B685A733B191B781800BD4604B0B0BD0E
:102FF000B0B588B000AF78600A00FB1C1A70FB1CEB
:103000001B78002B01D1002390E07B685B7BFA1CCE
:1030100012789A4205D17B681800FFF75CFE012305
:1030200084E0FB1C1A787B6811001800FFF77EFD16
:103030000300BB61BB699B78002B01D1002375E0C5
:10304000BB699A787B6811001800FFF76FFD0300D9
:103050007B617B691B78FA1C12789A4204D1BB69A8
:103060005A787B691A7035E01F23FB187A69127849
:103070001A701E23FB1800221A701F23FB181A78DF
:103080007B6811001800FFF751FD03003B613B69AD
:103090005B78FA1C12789A4208D1BB695A783B696E
:1030A0005A701E23FB1801221A7008E01F217B189A
:1030B0003A6952781A707B181B78002BDDD11E23D9
:1030C000FB181B78002B05D11A4B1B4A1B486B21A0
:1030D00000F052FEBB6900229A70BB699A78BB6906
:1030E0005A700F257C19FB1C19787B680122180087
:1030F000FFF7BCFE030023707B685B7B7A191278B4
:103100009A4205D10E4B0C4A0C48712100F034FE56
:103110007B68597B0F23FB181A787B681800FFF730
:1031200091FD03001A007B685A7301231800BD4605
:1031300008B0B0BD10A2001094A2001078A1001039
:1031400018A2001080B582B000AF78607B68054A95
:10315000944663445A425341DBB21800BD4602B064
:1031600080BDC0460080FCBF80B582B000AF7860F3
:103170007B681800FFF7E6FF7B681800BD4602B0C9
:1031800080BD000080B584B000AF7860074BFB6065
:103190007B68BB60FB68802292011343BA681A60A7
:1031A000C046C046BD4604B080BDC04600C0004019
:1031B00080B584B000AF78600B4BFB607B68BB6070
:1031C000FB68C02292011343BA681A60C04600E04F
:1031D000C046054B9B68DB437A681340F8D1C04674
:1031E000C046BD4604B080BD00C0004080B582B07E
:1031F00000AF78607B681800FFF7A4FF031E02D0C1
:1032000080231B0401E08023DB031800FFF7BAFFD3
:10321000C046BD4602B080BD80B582B000AF7860C8
:103220007B681800FFF78EFF031E02D080231B046B
:1032300001E08023DB031800FFF7BAFFC046BD465C
:1032400002B080BD80B586B000AF786039600620DE
:1032500000F072FB031E01D1002339E07B681800E7
:10326000FFF7C4FF7B681800FFF7D6FF7B680021DB
:10327000180000F03BF93A687B681100180000F074
:10328000B7F803007B61786800230122082100F071
:1032900003F97B681800FFF767FF03002C333B61DD
:1032A0001023FB603B69802292011343FA681A6085
:1032B000C0467B681800FFF757FF0300064A1A63F1
:1032C0007B681800FFF750FF030003229A647B69B4
:1032D0001800BD4606B080BD01030000B0B58AB03D
:1032E00000AF78607B681800FFF73EFF03001B6BA0
:1032F0007B627B6A012213403DD07B681800FFF798
:1033000033FF03003033FB601D4BBB60FB68C02202
:1033100092011343BA681A60C0467B681800FFF731
:1033200023FF03005B6A3B627B681800FFF71CFF0A
:1033300003009B6AFB613B6A9B01FA69D318BB617E
:10334000BB699B02BB61062000F0F6FA03000D4941
:10335000180002F063FA03007B617969B86902F032
:103360005DFA03003B613B691C0000231D00200047
:103370002900FFF7EFF87B6A1800BD460AB0B0BD20
:10338000010300004E0E000080B58AB000AFF86067
:10339000B9607A60FB681800FFF7A0FF03007B624A
:1033A000FB681800FFF7E0FE03002C333B62BB68AC
:1033B000FB617B68BB613B6A1A68FB695340BA6971
:1033C00013403A6A7A613B617B6980225201134360
:1033D0003A691A60C046C046FB681800FFF7C4FE91
:1033E00003007A6A1A63C046BD460AB080BD000079
:1033F00080B586B000AF78603960062000F09CFA96
:103400000300DB003968180002F008FA0300FB60D3
:10341000FB68DB097B617B69002B04D101237B61A5
:1034200000233B610EE07B69194A934204D9194B92
:103430007B6100233B6105E0FB687F221340013381
:103440005B083B617B681800FFF78EFE03007A691A
:103450005A627B681800FFF787FE03003A699A6298
:103460007B68002200211800FFF78EFF062000F085
:1034700063FA030098007B699A013B69D31819002D
:1034800002F0CCF903001800BD4606B080BDC0466E
:10349000FEFF0000FFFF000080B584B000AFF860C1
:1034A000B9607A601A00FB1C1A70BB68053B5A01B0
:1034B0007B68013BDB001A43FB1C1B78002B01D00F
:1034C000022300E000231A43FB1C1B78012B01D1CF
:1034D000042300E0002313431900FB686E22180048
:1034E000FFF752FFC046BD4604B080BD90B583B023
:1034F00000AF78600A00FB1C1A70FB1C1B78002BC5
:1035000001D00A2401E080235C007B681800FFF7EB
:1035100019FE0200034B5200211CD152C046BD4689
:1035200003B090BDB409002080B582B000AF7860D0
:103530007B68033BFDD27B60C046BD4602B080BDC8
:1035400080B582B000AF0200FB1D1A70FB1D1B7816
:10355000052B03D0FB1D1B78042B01D1012300E0B8
:1035600000231A1C01231340DBB21800BD4602B031
:1035700080BD0000F0B5A3B000AF3963FA62BB6252
:103580000F2328229B18DA19031C1370BA6A982398
:1035900008215B18DB191B689A4205D28F4B904AB1
:1035A0009048332100F0E8FB982308229B18DB1990
:1035B0001A68BB6A9A4201D900230AE1BB6A3B62DE
:1035C00000237B623A6A7B6A1100090EF9611300DD
:1035D0001B02BB61982308229B18DB191B683B6107
:1035E00000237B613A697B69B869F96902F054F993
:1035F00002000B00130084203A1813600F232822C6
:103600009B18DB191A7813005B009B189B00764A05
:103610009446634480217A1813607B181B685B68AA
:103620003A1812689A4204D97B181B683A18126833
:103630005A600F2328229B18DB191B781800FFF70C
:103640007FFF031E19D03B6B012B16D18023FB1883
:103650001B68BB6703237B67BB6FC02292011343C8
:103660007A6F1A60C04600E0C0468023FB181B68D2
:103670009B6801221340F7D02CE08023FB181B68C5
:103680003B6780231B01FB663B6FC0229201134303
:10369000FA6E1A60C0460F2128268B19DB191A789A
:1036A000524B9200D358002B14D0504B58698B19B1
:1036B000DB191A784D4B9200D358190002F0AEF87E
:1036C00003000133FB67FA6F13005B009B181800BF
:1036D000FFF72AFF8026BB191A68FB6A5B01BA66EE
:1036E0007B66E0233B66BB6E1A687B6E53403A6E86
:1036F0001340BA6EFA65BB65FB6D8022520113431D
:10370000BA6D1A60C046C0460F2328229B18DB19E9
:103710001B781800FFF714FF031E23D0BB191B688A
:103720007B653B6B3B650323FB647B6D1A683B6DDC
:103730005340FA6C13407A6DBA647B64BB6C802290
:10374000520113437A6C1A60C046C04600E0C0467E
:103750008023FB181B689B6801213A6B91400A008B
:103760001340F4D080217B181B683B6480231B012D
:10377000FB633B6C802292011343FA6B1A60C046D4
:103780007B181B6884203A1812685A60BB6ABB60B9
:103790000023FB60BA68FB6811000D0E13001C02C9
:1037A0003B181B683B6000237B603A687B68200005
:1037B000290002F071F802000B00100019000F231D
:1037C00028229B18DB191A780100084B9200D1506F
:1037D00001231800BD4623B0F0BDC046ACA20010C6
:1037E000A8A30010C0A20010008000400007002025
:1037F00080B588B002AF0C2000F0A4F9FDF704F802
:10380000031E11D000237B6107E03F4B7A699200D1
:103810003E49D1507B6901337B617B69092BF4D927
:10382000394B3B4A5A626CE03A4B00229A6700F0EF
:1038300099F9394B3B610123FB603B69C02292013E
:103840001343FA681A60C04600E0C046314B5B6C17
:10385000012BFAD1314BBB6003237B60BB68C022D4
:10386000920113437A681A60C04600E0C046294BB3
:103870009B6B012BFAD12A4A2A4802230093062384
:10388000012100F09FF8284A2848052300930523CA
:10389000012100F097F8264A254B009313000022DF
:1038A00002210420FFF766FE224A224B00931300F8
:1038B000002201210520FFF75DFE144A134B0093FF
:1038C0001300002200210720FFF754FE0F4A0F4B80
:1038D00000931300002200210820FFF74BFE0B4A43
:1038E0000B4B00931300002200210920FFF742FE3A
:1038F000104A104B00931300002200210620FFF70E
:1039000039FEBD4606B080BD00070020006CDC0219
:103910001BB70000008000403C8000403080004029
:10392000002F685900800240008C864700C002408A
:10393000001BB7004059730780B582B000AF02008A
:10394000FB1D1A70FB1D1A78034B9200D358180008
:10395000BD4602B080BDC0460007002080B584B0DF
:1039600000AF7860074BFB607B68BB60FB68802220
:1039700092011343BA681A60C046C046BD4604B0FF
:1039800080BDC04600C0004080B584B000AF786004
:103990000B4BFB607B68BB60FB68C022920113434A
:1039A000BA681A60C04600E0C046054B9B68DB431E
:1039B0007A681340F8D1C046C046BD4604B080BD09
:1039C00000C0004080B58EB000AFF860B9607A608A
:1039D0003B60B968514801F021FF03007B637B68BD
:1039E0004F4A934203D97B684E4A934205D94E4BC6
:1039F0004E4A4F48112100F0BFF9796B786801F009
:103A00000DFF03003B633B6B0F2B04D93A6BA023E4
:103A10005B009A4205D9474B444A4548192100F0BA
:103A2000ABF93B68002B08D03B68072B05D83B6CF3
:103A3000002B02D03B6C072B05D93F4B3B4A3C483F
:103A40001C2100F099F97B681B097A6B9A4205D911
:103A50003A4B364A3648232100F08EF93B681A0467
:103A60003B6C1B031343FB62FB681B68002B15DADE
:103A7000FB681B683F221340BA689A420ED1FB686C
:103A80009B681B051B0D3A6B9A4207D1FB68DA68ED
:103A9000EE23DB021340FA6A9A423AD0FB68284AC6
:103AA000934202D180239B0101E080235B01BB6232
:103AB000BB6A1800FFF752FFBB6A1800FFF764FFEC
:103AC000FB68BA681A60FB683A6B9A6021237B62D4
:103AD000FB6804333B627B6AFB613B6AC022920154
:103AE0001343FA691A60C04600E0C046FB681B68D1
:103AF000002BFADAFB68FA6ADA60FB680433BB6110
:103B000008237B61BB69C022920113437A691A6062
:103B100000E0C046BD460EB080BDC046001BB700E9
:103B20007F17B42C00105E5FB8A30010DCA4001057
:103B300018A4001058A4001074A40010C0A4001011
:103B400000C0024080B582B000AF7860044B7A6854
:103B5000802189000A43DA62C046BD4602B080BDBA
:103B60000080054080B582B000AF0E4BAA22120142
:103B70001A600C4B2F22DA600A4B7B600A4B3B60C9
:103B80007B688022920113433A681A60C046C0469F
:103B9000044B5B68002BFBDAC046C046BD4602B052
:103BA00080BDC0460040024000B0FA0080B500AFC2
:103BB00000BEC046BD4680BD80B584B000AF786011
:103BC000074BFB607B68BB60FB688022920113435C
:103BD000BA681A60C046C046BD4604B080BDC04643
:103BE00000C0004080B584B000AF78600B4BFB6034
:103BF0007B68BB60FB68C02292011343BA681A60FD
:103C0000C04600E0C046054B9B68DB437A68134022
:103C1000F8D1C046C046BD4604B080BD00C00040DB
:103C200080B588B000AF3D4B1800FFF7C5FF3C4B97
:103C30001800FFF7D7FF3B4BFB6105E0FB691B68F2
:103C40009847FB690433FB61FA69374B9A42F5D315
:103C5000FFF7CEFD354B1800FFF7C4FF344B3B6137
:103C600040233A6993673A6953673A6913673A6937
:103C7000D366304BBB6120E0BB691B68002B13D0BF
:103C8000BB691B68012B05D02B4B2C4A2C48872184
:103C900000F072F8BB69BB60BB681800FDF7D7FA8B
:103CA000BB680833BB6108E0BB69FB60FB681800B8
:103CB000FDF7B6FAFB680833BB61BA69214B9A423B
:103CC000DAD3214B9B681A00204B18001100C02347
:103CD0001A0002F0FFFC1C4B1C4A9A60EFF30583AC
:103CE0007B607B68002B01D0FFF760FFFCF734FEA0
:103CF000FDF762FAFDF73CFE154B7B6105E07B6941
:103D00001B6898477B6904337B617A69114B9A423F
:103D1000F5D3C046C046BD4608B080BDBFCDFBFE52
:103D2000FE7F3C00C0050020D0050020FFFFFF0102
:103D300000F00140B80500204CA5001024A600109A
:103D40006CA50010C005002000ED00E00000002080
:103D5000D0050020D405002080B582B000AF786087
:103D6000FFF724FFFCE780B582B000AF78607B6886
:103D70001800FFF7F1FF0000B0B586B002AFF860A1
:103D8000B9607A603B607B68002B01D00A4B00E091
:103D90000A4B7A68002A01D07A6800E0074ABD68B9
:103DA000FC6839680648019200932B00220002F05B
:103DB0002FFF0120FFF7D0FFB0A50010C0A5001015
:103DC000C4A500100FB480B582B000AF0B4B180033
:103DD00002F032FE3B69002B0CD01423FB187B60F1
:103DE0007A683B691100180002F0E4FE044B1800E9
:103DF00002F022FE0120FFF7AFFFC04604A600102C
:103E000014A6001080B584B000AFB9607A603B6042
:103E10000F217B18021C1A707A683B689A4205D2FF
:103E2000BA687B68D3187A1812781A70C046BD46F3
:103E300004B080BD80B584B000AFB9607A603B60EB
:103E40000F23FB18021C1A70C046BD4604B080BD8B
:103E500080B584B000AFB9607A603B600F217B18F9
:103E6000021C1A7008007B181B78002B07D0BB6857
:103E70001A68BB6859683B181B7818009047C04601
:103E8000BD4604B080BD80B584B000AF78603960B5
:103E90007B68FB6002E0FB680133FB60FB681B781A
:103EA000002B04D03B685A1E3A60002BF3D1FA680D
:103EB0007B68D31A1800BD4604B080BD80B582B0BF
:103EC00000AF0200FB1D1A70FB1D1B782F2B05D9BC
:103ED000FB1D1B78392B01D8012300E000231A1C9D
:103EE00001231340DBB21800BD4602B080BD80B58F
:103EF00084B000AF78600023FB600EE0FA68130026
:103F00009B009B185B0018007B681B68591C7A6833
:103F100011601B78C318303BFB607B681B681B7803
:103F20001800FFF7CBFF031EE8D1FB681800BD4661
:103F300004B080BD90B587B000AFF860B9607A601A
:103F40003B607B683B617B6B0222134024D17B6B1F
:103F50000122134020D1FB6A7B610AE07A68531C7E
:103F60007B603B68B968FC682020A0477B6901330F
:103F70007B617A693B6B9A42F0D30DE0FB6A013BAF
:103F8000FB62BA6AFB6AD31818787A68531C7B60A4
:103F90003B68B968FC68A047FB6A002BEED17B6BDD
:103FA000022213400ED007E07A68531C7B603B6806
:103FB000B968FC682020A0477A683B69D31A3A6B3D
:103FC0009A42F1D87B681800BD4607B090BD90B505
:103FD00089B004AFF860B9607A603B60BB6B0222C5
:103FE000134034D17B6B002B17D0BB6B01221340E5
:103FF00013D02823FB181B78002B03D1BB6B0C229A
:1040000013400AD07B6B013B7B6306E07B6A5A1C42
:104010007A623A6AD31830221A707A6A3B6B9A42F3
:104020000AD27B6A1F2BF1D906E07B6A5A1C7A629E
:104030003A6AD31830221A70BB6B0122134006D0A3
:104040007A6A7B6B9A4202D27B6A1F2BEDD9BB6BDB
:104050001022134056D0BA6B8023DB00134016D1D8
:104060007B6A002B13D07A6A3B6B9A4203D07A6A40
:104070007B6B9A420BD17B6A013B7B627B6A002B94
:1040800005D0FB6A102B02D17B6A013B7B62FB6A85
:10409000102B0ED1BB6B202213400AD17B6A1F2B41
:1040A00007D87B6A5A1C7A623A6AD31878221A7047
:1040B0001EE0FB6A102B0ED1BB6B202213400AD0EE
:1040C0007B6A1F2B07D87B6A5A1C7A623A6AD3181C
:1040D00058221A700CE0FB6A022B09D17B6A1F2B55
:1040E00006D87B6A5A1C7A623A6AD31862221A701E
:1040F0007B6A1F2B06D87B6A5A1C7A623A6AD318ED
:1041000030221A707B6A1F2B23D82823FB181B78B8
:10411000002B07D07B6A5A1C7A623A6AD3182D2288
:104120001A7016E0BB6B0422134007D07B6A5A1C3E
:104130007A623A6AD3182B221A700AE0BB6B082203
:10414000134006D07B6A5A1C7A623A6AD31820223E
:104150001A703C687A68B968F868BB6B03937B6B2C
:1041600002937B6A01933B6A00932300FFF7E2FE10
:1041700003001800BD4605B090BD90B597B008AFDC
:10418000F860B9607A603B6000237B63BB6C002BF6
:1041900003D1FB6D10229343FB65FA6D8023DB0096
:1041A000134002D0BB6C002B33D0BB6C396D1800B0
:1041B00001F034FB0B001A0033217B181A700A003F
:1041C000BB181B78092B04D8BB181B783033DAB224
:1041D0000DE0FB6D2022134001D0412300E061235C
:1041E0003322BA1812789B18DBB20A3BDAB27B6B27
:1041F000591C796310217918CA54396DB86C01F0D3
:104200000DFB0300BB64BB6C002B02D07B6B1F2B30
:10421000CBD93C687A68B968F868FB6D0693BB6DCA
:1042200005937B6D04933B6D03934C23FB181B7824
:1042300002937B6B01931023FB1800932300FFF77D
:10424000C6FE03001800BD460FB090BDB0B596B0D5
:1042500008AFF860B9607A603B6000237B63BB6C99
:10426000FA6C134303D1BB6E10229343BB66BA6E44
:104270008023DB00134003D0BB6CFA6C13433AD0AD
:10428000B86CF96CBA6DFB6D01F006FB10001900FB
:1042900033243B19021C1A702200BB181B78092B0F
:1042A00004D8BB181B783033DAB20DE0BB6E202285
:1042B000134001D0412300E061233322BA18127861
:1042C0009B18DBB20A3BDAB27B6B591C7963102175
:1042D0007918CA54BA6DFB6DB86CF96C01F0DCFA50
:1042E00002000B00BA64FB64BB6CFA6C134302D08F
:1042F0007B6B1F2BC4D9BB6D3D687C68B968F868BF
:10430000BA6E06927A6E05923A6E04920393502327
:10431000FB181B7802937B6B01931023FB1800930F
:104320002B002200FFF753FE03001800BD460EB01D
:10433000B0BD0000F0B59DB006AFF860B9607A601E
:104340003B6000237B6500220023BA63FB633A6F66
:104350007B6F386F796F01F022FD031E12D03C682D
:104360007A68B968F8688023FB181B680393FB6FB1
:10437000029303230193C54B00932300FFF7DAFD5B
:1043800003001DE201225242C14B386F796F01F0E8
:10439000F3FC031E12D03C687A68B968F868802381
:1043A000FB181B680393FB6F029304230193B94B23
:1043B00000932300FFF7BEFD030001E201225242F9
:1043C000B54B386F796F01F0E5FC031E24D08023D4
:1043D000FB181B680422134001D0B04B00E0B04B27
:1043E0008022BA18126804210A4001D0042200E099
:1043F00003223E687D68BC68F868802179180968E6
:104400000391F96F02910192009333002A00210079
:10441000FFF790FD0300D3E10022A24B386F796FC4
:1044200001F0B8FC031E07D100229F4B386F796F53
:1044300001F0A2FC031E15D03D687C68B968F868DD
:104440008023FB181B680493FB6F0393BB6F0293DD
:104450003A6F7B6F009201932B00220000F0B4F9B9
:104460000300ADE153243B1900221A7000220023FF
:10447000386F796F01F080FC031E0CD03B190122CC
:104480001A703A6F7B6F0020002101F002FC0200DD
:104490000B003A677B678023FB181A688023DB00D8
:1044A00013400CD10623BB6709E07B6D5A1C7A656B
:1044B0001022BA183021D154BB6F013BBB677B6D12
:1044C0001F2B02D8BB6F092BEFD8386F796F01F023
:1044D00091FC0300FB64F86C01F074FC02000B001B
:1044E000386F796F01F0D5FB02000B001000190046
:1044F0006E4ABB6FDB00D3181A685B6801F0F9FBEA
:1045000002000B003A637B63386B796B01F096FC19
:104510000300BB64B86C01F051FC02000B00386B67
:10452000796B01F0B6FB02000B00BA63FB6300225B
:104530005F4BB86BF96B01F02DFC031E15D0BB6C03
:104540000133BB64B86C01F039FC584ABB6FDB0027
:10455000D3181A685B6801F015FC031E17D00023FE
:10456000BB64FB6C0133FB6411E00022504BB86B61
:10457000F96B01F001FC031E09D1BB6C002B03D0C9
:10458000BB6C0122134002D0BB6C0133BB64BB6F18
:10459000002B3BD1F86C01F015FC02000B00386FCA
:1045A000796F01F076FB02000B00BA63FB63012315
:1045B0001C1C00223E4BB86BF96B01F0DDFB031EA7
:1045C00001D100231C1CE3B201225340DBB2002BBB
:1045D00000D188E001231C1C0022354BB86BF96B1D
:1045E00001F0D8FB031E01D100231C1CE3B2012201
:1045F0005340DBB2002B00D175E0FB6C012213406D
:1046000000D170E0FB6C0133FB646CE0BB6F7B643A
:104610001BE07B6C013B7B64BB6C0A21180001F042
:10462000FDF80B00DAB27B6D591C79653032D1B2DE
:104630001022BA18D154BB6C0A21180001F0EEF810
:104640000300BB64BB6C002B03D07B6D1F2BE0D938
:1046500008E0C04606E07B6D5A1C7A651022BA1845
:104660003021D1547B6D1F2B04D87B6C5A1E7A6489
:10467000002BF0D17B6D1F2B35D87B6D5A1C7A65D2
:104680001022BA182E21D1542DE0C04634A60010B5
:10469000FFFFEFFF38A60010FFFFEF7F40A60010DE
:1046A00048A6001065CDCD4165CDCDC1E8A700106D
:1046B0000000E03FFB6C0A21180001F087F80B00B6
:1046C000DAB27B6D591C79653032D1B21022BA183A
:1046D000D154FB6C0A21180001F078F80300FB6448
:1046E000FB6C002B03D07B6D1F2BE3D900E0C04691
:1046F00080217B181B680222134023D17B181B6882
:10470000012213401ED0FB6F002B14D05323FB1843
:104710001B78002B04D17B181B680C2213400AD095
:10472000FB6F013BFB6706E07B6D5A1C7A6510222C
:10473000BA183021D1547A6DFB6F9A4202D27B6D48
:104740001F2BF1D97B6D1F2B27D85323FB181B7808
:10475000002B07D07B6D5A1C7A651022BA182D21C8
:10476000D1541AE08023FB181B680422134007D0A1
:104770007B6D5A1C7A651022BA182B21D1540CE09B
:104780008023FB181B680822134006D07B6D5A1C3F
:104790007A651022BA182021D1543C687A68B96829
:1047A000F8688023FB181B680393FB6F02937B6DF3
:1047B00001931023FB1800932300FFF7BBFB0300BA
:1047C0001800BD4617B0F0BDF0B5A7B006AF7864CD
:1047D0003964FA63BB639826BB191A685B68B91918
:1047E0000868496801F0DBFA031E13D10122524226
:1047F000D94BB9190868496801F0CCFA031E09D1F0
:1048000001225242D54BB9190868496801F0B4FA3F
:10481000031E1BD0BD6BFC6B396C786CA823FB1896
:104820001B680493A423FB181B680393A023FB18A5
:104830001B6802939823FB181A685B680092019327
:104840002B002200FFF776FD030081E23B23382294
:104850009B18DE190123FB7300220023982179188D
:104860000868496801F088FA031E01D10023FB7330
:10487000FB7B33703B2338229B18DB191B78002B02
:104880000FD098217B181B683B609C23FB181A688B
:1048900080231B0653407B603A687B6879180A6066
:1048A0004B60A823FB181A688023DB00134003D158
:1048B0000623A022BA1813609826BB191A685B68F1
:1048C000BA64FB64BA6CFB6C1100194300D108E1B7
:1048D000BA6CFB6C1B0DBB620023FB62BB6A5B0501
:1048E0005B0D9F4A94466344FB66BA6CFB6C0021E7
:1048F0001000884304001B031D0B002323433B626D
:10490000984B2B437B623B6A7C6ABB64FC64F86E09
:1049100001F058FA944A954B01F0EBF902000B00B4
:1049200010001900924A934B01F0BCF902000B00F1
:1049300014001D00B86CF96C00228F4B01F0A9F92E
:1049400002000B00100019008C4A8D4B01F0D1F9C8
:1049500002000B002000290001F0A4F902000B0066
:104960001000190001F046FA0300FB67F86F01F030
:1049700029FA844A844B01F0BCF902000B001000B4
:1049800019000022814B01F08DF902000B0010008C
:10499000190001F02FFA0300FB66F86F01F012FA1C
:1049A0007B4A7C4B01F0A5F902000B0014001D00AE
:1049B000F86E01F007FA784A784B01F09AF9020094
:1049C0000B002000290001F064F902000B003A6698
:1049D0007B663A6E7B6E386E796E01F08AF9020062
:1049E0000B00BA65FB65FB6E6D4A94466344BB6180
:1049F000DB17FB61BB691B057B6100233B613B69E6
:104A00007C69BB64FC64BC6CFD6C386E796E020022
:104A10000B0001F047F902000B00BA62FB623A6E2C
:104A20007B6E00208021C90501F033F902000B00E4
:104A30003A627B6200225B4BB86DF96D01F03BF985
:104A400002000B00100019000022574B01F02AF958
:104A500002000B00B86DF96D01F02DF902000B009A
:104A6000100019000022514B01F01CF902000B004C
:104A7000B86DF96D01F01FF902000B00386A796A10
:104A800001F010F902000B00B86AF96A01F013F99D
:104A900002000B00100019000022324B01F002F955
:104AA00002000B002000290001F023F902000B0096
:104AB000BA64FB64BA6CFB6CB9190868496801F008
:104AC0005BF9031E0FD0FB6F013BFB67B86CF96C01
:104AD0000022354B01F0EFF802000B00BA64FB64D2
:104AE00001E00023FB67FB6F632B04DCFB6F633388
:104AF00001DB042300E00523BB67A823FB181A6829
:104B000080231B01134000D17AE0BA6CFB6C1100CA
:104B1000194312D0264A274B982439190868496846
:104B200001F030F9031E5AD00022234B39190868CE
:104B3000496801F021F9031E51D0A0217B181B68A0
:104B4000FA6F9A423ADA7B181A68FB6FD31A013B64
:104B50007A18136036E0C046FFFFEF7FFFFFEFFFDC
:104B600001FCFFFF0000F03FFB799F501344D33F4F
:104B7000B3C8608B288AC63F0000F83F61436F636B
:104B8000A787D23F71A379094F930A400000E03F05
:104B90001655B5BBB16B0240EF39FAFE422EE63F27
:104BA000FF03000000002C400000244000001840DB
:104BB0002D431CEBE2361A3F80842E410023A022B5
:104BC000BA181360A8217B181B688022D2001343F7
:104BD0007A1813600023BB670023FB6710E0A02155
:104BE0007B181B68002B0BD0A823FB181A688023A6
:104BF000DB00134004D07B181B68013B7A1813605C
:104C0000A422BB181B687B67BB181A68BB6F9A424B
:104C100004D97A6FBB6FD31A7B6701E000237B67EF
:104C2000A823FB181B680222134004D0BB6F002B83
:104C300001D000237B67FB6F002B0CD0BA6CFB6CA0
:104C4000982439190868496801F035F802000B000A
:104C500039190A604B60FB6B7B653B2338229B183C
:104C6000DB191B78002B0BD09823FB181B683B63C8
:104C70009C23FB181B68802212065A407A6305E0C9
:104C80009823FB185C681B683B637C63A823FA18B5
:104C90001368314A1340BC6BFA6B396C786C04931F
:104CA0007B6F0393A0257D192B6802933D6B7E6B70
:104CB000009501962300FFF73DFB0300FB63BB6FEC
:104CC000002B44D0A823FB181B682022134001D0DE
:104CD000452000E06520FA6B531CFB63BB6B396C0D
:104CE0007C6CA047FB6FDA179B1853409C46FB6F08
:104CF000DB0FDBB2BA6F013ABD6BFC6B396C786CC1
:104D0000052605960492002203920A22029201933C
:104D1000634600932B002200FFF72FFA0300FB638A
:104D2000A823FB181B680222134010D007E0FA6B7F
:104D3000531CFB63BB6B396C7C6C2020A047FA6B67
:104D40007B6DD31AA422BA1812689A42EFD8FB6B73
:104D50001800BD4621B0F0BDFFF7FFFFF0B5C64615
:104D600000B5A8B00AAFF862B9627A623B6200236C
:104D70007B66BB6A002B01D000F054FCAD4BFB629C
:104D800000F050FC3B6A1B78252B0DD03B6A18784D
:104D90007A6E531C7B667B6AB96AFC6AA0473B6AE1
:104DA00001333B6200F03EFC3B6A01333B6200236F
:104DB0007B673B6A1B78203B102B36D89A009E4BB2
:104DC000D3181B689F467B6F012213437B673B6AA6
:104DD00001333B620123BB662AE07B6F022213434F
:104DE0007B673B6A01333B620123BB6620E07B6F3C
:104DF000042213437B673B6A01333B620123BB669A
:104E000016E07B6F082213437B673B6A01333B62EA
:104E10000123BB660CE07B6F102213437B673B6A68
:104E200001333B620123BB6602E00023BB66C04640
:104E3000BB6E002BBDD100233B673B6A1B7818007B
:104E4000FFF73CF8031E07D02023FB181800FFF7DC
:104E50004EF803003B671CE03B6A1B782A2B18D1F5
:104E60009023FB181B681A1D902179180A601B6893
:104E70003B653B6D002B07DA7B6F022213437B6798
:104E80003B6D5B423B6701E03B6D3B673B6A013337
:104E90003B620023FB663B6A1B782E2B2BD17B6F7A
:104EA0008022D20013437B673B6A01333B623B6A3B
:104EB0001B781800FFF702F8031E07D02023FB1809
:104EC0001800FFF714F80300FB6614E03B6A1B7838
:104ED0002A2B10D19023FB181B681A1D90217918DA
:104EE0000A601B68FB64FB6C002B00DA0023FB6686
:104EF0003B6A01333B623B6A1B78683B122B47D805
:104F00009A004E4BD3181B689F467B6F802252003D
:104F100013437B673B6A01333B623B6A1B786C2B14
:104F200038D17B6F8022920013437B673B6A013349
:104F30003B622FE07B6F802213437B673B6A013328
:104F40003B623B6A1B78682B26D17B6F4022134360
:104F50007B673B6A01333B621EE07B6F802252001D
:104F600013437B673B6A01333B6216E07B6F802211
:104F7000920013437B673B6A01333B620DE07B6F1A
:104F80008022520013437B673B6A01333B6204E09B
:104F9000C04602E0C04600E0C0463B6A1B78672B73
:104FA00028DC252B1DDA30E3693B01229A401300EF
:104FB000234A1A40511E8A41D2B2002A20D18022AF
:104FC0001A40511E8A41D2B2002A00D0B8E2802293
:104FD000D20013405A1E9341DBB2002B00D049E2AD
:104FE00013E3253B422B00D90FE39A00154BD3184E
:104FF0001B689F46782B00DD07E3692BD4DA04E3B6
:105000003B6A1B78782B03D03B6A1B78582B02D164
:1050100010233B661EE03B6A1B786F2B02D10823EE
:105020003B6617E03B6A1B78622B0DD102233B667F
:1050300010E0C046353E00104CA6001090A60010AF
:1050400041900000DCA600100A233B667B6F102213
:1050500093437B673B6A1B78582B03D17B6F2022DD
:1050600013437B673B6A1B78692B07D03B6A1B782D
:10507000642B03D07B6F0C2293437B677A6F802372
:10508000DB00134003D07B6F012293437B673B6AB5
:105090001B78692B04D03B6A1B78642B00D0B2E0EC
:1050A0007A6F80239B00134040D09023FB181B682D
:1050B0000733072293431A000832902179180A60B7
:1050C0001A685B683A637B633A6B7B6B002B05DA8B
:1050D00000200021801A994102000B0010001900E5
:1050E0007B6BDB0F3B6000237B603A783B6EBB61E0
:1050F0000023FB617B6A9C467E6EBD6AFB6A984614
:105100007B6F08933B6F0793FB6E0693BB69FC694B
:1051100004930594029200900191634632002900A5
:105120004046FFF793F803007B66FAE07A6F80232E
:105130005B00134025D09023FB181B681A1D90219B
:1051400079180A601B68FB63FB6BDA179B185340E6
:105150001E00FB6BDB0FDAB27D6A7C6EB96AF86AFF
:105160007B6F05933B6F0493FB6E03933B6E02933F
:10517000019200962B002200FEF7FFFF03007B66E2
:10518000CFE07B6F4022134009D09023FB181B68AF
:105190001A1D902179180A601B68DBB215E07B6F3D
:1051A0008022134009D09023FB181B681A1D902100
:1051B00079180A601B681BB207E09023FB181B6874
:1051C0001A1D902179180A601B683B643B6CDA1742
:1051D0009B1853401E003B6CDB0FDAB27D6A7C6E7D
:1051E000B96AF86A7B6F05933B6F0493FB6E039378
:1051F0003B6E0293019200962B002200FEF7BDFF4A
:1052000003007B668DE07A6F80239B0013402BD0D8
:105210009023FB181B680733072293431A000832B8
:10522000902179180A60186859683B6E3B61002329
:105230007B617E6A7A6EBD6AFB6A9C467B6F0893CF
:105240003B6F0793FB6E06933B697C69049305945F
:105250000023029300900191330029006046FEF77D
:10526000F5FF03007B665CE07A6F80235B001340F0
:105270001DD09023FB181B681A1D902179180A6015
:105280001A687D6A7C6EB96AF86A7B6F05933B6F1A
:105290000493FB6E03933B6E0293002301930092F1
:1052A0002B002200FEF769FF03007B6639E07B6F6D
:1052B0004022134009D09023FB181B681A1D90212F
:1052C00079180A601B68DBB215E07B6F80221340FF
:1052D00009D09023FB181B681A1D902179180A60C9
:1052E0001B689BB207E09023FB181B681A1D9021D6
:1052F00079180A601B687B647C6A7A6EB96AF86AFE
:105300007B6F05933B6F0493FB6E03933B6E02939D
:10531000002301937B6C00932300FEF72EFF030014
:105320007B663B6A01333B627CE13B6A1B78462B20
:1053300003D17B6F202213437B679023FB181B68EC
:105340000733072293431A000832902179180A6024
:10535000186859687E6A7A6EBD6AFC6A7B6F04932E
:105360003B6F0393FB6E0293009001913300290081
:105370002000FEF7DFFF03007B663B6A01333B62E0
:1053800050E13B6A1B78672B03D03B6A1B78472BA5
:1053900004D17B6F8022120113437B673B6A1B7829
:1053A000452B03D03B6A1B78472B03D17B6F202210
:1053B00013437B679023FB181B6807330722934333
:1053C0001A000832902179180A60186859687E6AB4
:1053D0007A6EBD6AFC6A7B6F04933B6F0393FB6E2E
:1053E000029300900191330029002000FFF7ECF9AF
:1053F00003007B663B6A01333B6213E10123FB65DB
:105400007B6F022213400ED107E07A6E531C7B663D
:105410007B6AB96AFC6A2020A047FB6D5A1CFA65BA
:105420003A6F9A42F1D89023FB181B681A1D9021FD
:1054300079180A601B68D8B27A6E531C7B667B6A47
:10544000B96AFC6AA0477B6F022213400ED007E0C6
:105450007A6E531C7B667B6AB96AFC6A2020A0477F
:10546000FB6D5A1CFA653A6F9A42F1D83B6A0133D8
:105470003B62D7E09023FB181B681A1D9021791816
:105480000A601B68BB65FB6E002B01D0FB6E01E060
:1054900001235B42BA6D19001000FEF7F4FC030013
:1054A0007B657A6F8023DB00134005D07A6DFB6E3D
:1054B000934200D913007B657B6F022213401AD1FF
:1054C00007E07A6E531C7B667B6AB96AFC6A20200F
:1054D000A0477B6D5A1C7A653A6F9A42F1D80AE070
:1054E000BB6D5A1CBA6518787A6E531C7B667B6A52
:1054F000B96AFC6AA047BB6D1B78002B09D07A6F94
:105500008023DB001340EBD0FB6E5A1EFA66002BA3
:10551000E6D17B6F022213400ED007E07A6E531C57
:105520007B667B6AB96AFC6A2020A0477B6D5A1CA7
:105530007A653A6F9A42F1D83B6A01333B6271E077
:1055400008233B677B6F212213437B672B2120239A
:10555000CB18DB1900221A702023CB18DB191B781B
:10556000002B25D09023FB181B681A1D9021791859
:105570000A601B68BB600023FB607D6A7C6EB96AB1
:10558000F86A7B6F08933B6F0793FB6E06931022BC
:1055900000230492059300230293BA68FB680092EB
:1055A00001932B002200FEF751FE03007B661CE0F6
:1055B0009023FB181B681A1D902179180A601B683C
:1055C0001D007C6A7A6EB96AF86A7B6F05933B6F3F
:1055D0000493FB6E03931023029300230193009521
:1055E0002300FEF7CAFD03007B663B6A01333B6282
:1055F00018E07A6E531C7B667B6AB96AFC6A2520C8
:10560000A0473B6A01333B620CE03B6A18787A6E34
:10561000531C7B667B6AB96AFC6AA0473B6A01330C
:105620003B62C0463B6A1B78002B01D0FFF7AAFB08
:105630007A6E7B6A9A4202D37B6A5A1E00E07A6EC7
:105640007B6AB96AFC6A0020A0477B6E1800BD46E1
:105650001EB080BCB846F0BD0CB490B587B002AFA8
:10566000786039602423FB18BB603C6A3A6879682B
:105670000748BB6800932300FFF770FB0300FB6043
:10568000FB681800BD4605B090BC08BC02B01847C6
:10569000053E001090B589B002AFF860B9607A603D
:1056A0003B6010217B18FA681A607B18BA685A6050
:1056B0007C6801235A42791805483B68009323000F
:1056C000FFF74CFB03001800BD4607B090BDC04675
:1056D000513E001001480421014B1847800500206D
:1056E0006357001080B582B000AF0200BB1D1A8066
:1056F000BB1D1B881B881800BD4602B080BD80B54D
:1057000086B000AF78607B687B611820FFF7EAFF06
:1057100003003B611420FFF7E5FF0300FB6079699C
:10572000FA683B691000984703001800BD4606B0B0
:1057300080BD80B584B000AF78601820FFF7D2FF3D
:105740000300FB601620FFF7CDFF0300BB60796804
:10575000BA68FB681000984703001800BD4604B003
:1057600080BD80B584B000AF786039600F23FB182E
:1057700001221A700023BB601CE0BB689B007A68A2
:10578000D3181B681800FFF7BAFF0100BB689B0025
:105790007A68D3180A001A60BB689B007A68D3182D
:1057A0001B68002B03D10F23FB1800221A70BB6863
:1057B0000133BB60BA683B689A42DED30F23FB1803
:1057C0001B781800BD4604B080BD0000124A936FDC
:1057D0009B0815D29066D166002905D0FFE7FFE748
:1057E000FFE7516F106F704704B580210906C2179B
:1057F0005140002800D0C84303F0CAFF002104BD77
:10580000F0B5146E556E576F166FFFF7E3FF146611
:10581000556657671667F0BD000000D0114A936FB8
:105820009B0813D210665166002905D0FFE7FFE7F9
:10583000FFE7516F106F704704B5002801D00020BA
:10584000C04303F0A5FF002104BDC046F0B5146EAF
:10585000556E576F166FFFF7E5FF1466556657676D
:105860001667F0BD000000D094464A4A926F920835
:10587000624601D228E0C046F0B5464E346E756EE1
:10588000776F366F00F020F89446424A14665566EA
:10589000576716676246F0BD94463E4A926F92087B
:1058A000624601D254E0C046F0B53A4E346E756E91
:1058B000776F366F00F04CF89446364A146655669A
:1058C000576716676246F0BD002B24DB11D0002914
:1058D0003EDA00B5C943404200D1013100F038F84A
:1058E000C943404200D10131DB43524200D1013370
:1058F00000BD002AEBD1002801D1002905D00020ED
:10590000C90FC90701D1C043410800B503F038FFF2
:105910000022002300BD00B500290ADBDB43524210
:1059200000D1013300F014F8C943404200D10131E5
:1059300000BDC943404200D10131DB43524200D196
:10594000013300F005F8DB43524200D1013300BDC2
:10595000002923D1002B18D1002A0CD0BC460D4FB2
:1059600038667A6600210023FFE7FFE7FFE77A6FDA
:10597000386F67467047002801D00748010000B51E
:1059800003F0FEFE0022002300BD02000B000020F9
:1059900000217047000000D0FFFFFFFF002B00D068
:1059A000BFE0130C28D1002AE7D080B4114F39662C
:1059B0007A66FFE7FFE730B4040C7B6F396F1B0496
:1059C00023433B667A66FFE7FFE7FFE7C04684B202
:1059D0007B6F3D6F1B0423433B667A66FFE7FFE75F
:1059E000C04600232C042D0C7A6F386F00196941D2
:1059F000B0BC7047000000D0F0B594460025140EEE
:105A000001D112020835140F01D112010435940F8F
:105A100001D192000235D40F01D152000135D40BCF
:105A20000134254F7C66254C3C660E0C93B2FFE793
:105A3000FFE7FFE73C6F6643360C7703BE467343D0
:105A4000DF0B5B04C01AB941130C7343DB18C91A8E
:105A5000CE086643360CB64493B273431F0F1B0146
:105A6000C01AB941130C73431F0B1B05C01AB9416F
:105A7000860D8F023E436643360C092D24DB520A05
:105A80007243801A7703460A6643360C16235B1B63
:105A9000DE40DF40BF1964466643821B7046043512
:105AA00006330100D940A840C01900D30131A242F9
:105AB00006D20023F0BD0000000000D0FFFFFFFF72
:105AC000121B0130F3D3F1E709277F1BFE40644628
:105AD000A2B27243801A00D20139220C7243130C15
